{
  "_format": "hh-sol-artifact-1",
  "contractName": "PokemonCards",
  "sourceName": "contracts/PokemonCards.sol",
  "abi": [
    {
      "inputs": [],
      "stateMutability": "payable",
      "type": "constructor"
    },
    {
      "anonymous": false,
      "inputs": [
        {
          "indexed": true,
          "internalType": "address",
          "name": "owner",
          "type": "address"
        },
        {
          "indexed": true,
          "internalType": "address",
          "name": "approved",
          "type": "address"
        },
        {
          "indexed": true,
          "internalType": "uint256",
          "name": "tokenId",
          "type": "uint256"
        }
      ],
      "name": "Approval",
      "type": "event"
    },
    {
      "anonymous": false,
      "inputs": [
        {
          "indexed": true,
          "internalType": "address",
          "name": "owner",
          "type": "address"
        },
        {
          "indexed": true,
          "internalType": "address",
          "name": "operator",
          "type": "address"
        },
        {
          "indexed": false,
          "internalType": "bool",
          "name": "approved",
          "type": "bool"
        }
      ],
      "name": "ApprovalForAll",
      "type": "event"
    },
    {
      "anonymous": false,
      "inputs": [
        {
          "indexed": true,
          "internalType": "address",
          "name": "_signer",
          "type": "address"
        },
        {
          "indexed": true,
          "internalType": "uint256",
          "name": "_id",
          "type": "uint256"
        }
      ],
      "name": "Bid",
      "type": "event"
    },
    {
      "anonymous": false,
      "inputs": [
        {
          "indexed": true,
          "internalType": "address",
          "name": "_signer",
          "type": "address"
        },
        {
          "indexed": true,
          "internalType": "uint256",
          "name": "_id",
          "type": "uint256"
        }
      ],
      "name": "Cancel",
      "type": "event"
    },
    {
      "anonymous": false,
      "inputs": [
        {
          "indexed": true,
          "internalType": "address",
          "name": "_from",
          "type": "address"
        },
        {
          "indexed": true,
          "internalType": "address",
          "name": "_to",
          "type": "address"
        },
        {
          "indexed": true,
          "internalType": "uint256",
          "name": "_id",
          "type": "uint256"
        }
      ],
      "name": "FinalizeTrade",
      "type": "event"
    },
    {
      "anonymous": false,
      "inputs": [
        {
          "indexed": true,
          "internalType": "address",
          "name": "previousOwner",
          "type": "address"
        },
        {
          "indexed": true,
          "internalType": "address",
          "name": "newOwner",
          "type": "address"
        }
      ],
      "name": "OwnershipTransferred",
      "type": "event"
    },
    {
      "anonymous": false,
      "inputs": [
        {
          "indexed": true,
          "internalType": "address",
          "name": "_signer",
          "type": "address"
        },
        {
          "indexed": true,
          "internalType": "uint256",
          "name": "_id",
          "type": "uint256"
        }
      ],
      "name": "TradeCreated",
      "type": "event"
    },
    {
      "anonymous": false,
      "inputs": [
        {
          "indexed": true,
          "internalType": "address",
          "name": "from",
          "type": "address"
        },
        {
          "indexed": true,
          "internalType": "address",
          "name": "to",
          "type": "address"
        },
        {
          "indexed": true,
          "internalType": "uint256",
          "name": "tokenId",
          "type": "uint256"
        }
      ],
      "name": "Transfer",
      "type": "event"
    },
    {
      "inputs": [
        {
          "internalType": "uint256",
          "name": "",
          "type": "uint256"
        }
      ],
      "name": "allTrades",
      "outputs": [
        {
          "internalType": "address",
          "name": "creator",
          "type": "address"
        },
        {
          "internalType": "uint256",
          "name": "creatorTokenId",
          "type": "uint256"
        },
        {
          "internalType": "bool",
          "name": "isCompleted",
          "type": "bool"
        },
        {
          "internalType": "uint256",
          "name": "tradeId",
          "type": "uint256"
        },
        {
          "internalType": "bool",
          "name": "creatorConfirm",
          "type": "bool"
        },
        {
          "internalType": "bool",
          "name": "dealerConfirm",
          "type": "bool"
        },
        {
          "internalType": "address",
          "name": "dealer",
          "type": "address"
        },
        {
          "internalType": "uint256",
          "name": "dealerTokenId",
          "type": "uint256"
        }
      ],
      "stateMutability": "view",
      "type": "function"
    },
    {
      "inputs": [
        {
          "internalType": "address",
          "name": "to",
          "type": "address"
        },
        {
          "internalType": "uint256",
          "name": "tokenId",
          "type": "uint256"
        }
      ],
      "name": "approve",
      "outputs": [],
      "stateMutability": "nonpayable",
      "type": "function"
    },
    {
      "inputs": [
        {
          "internalType": "uint256",
          "name": "_tradeId",
          "type": "uint256"
        }
      ],
      "name": "approveTrade",
      "outputs": [],
      "stateMutability": "payable",
      "type": "function"
    },
    {
      "inputs": [
        {
          "internalType": "address",
          "name": "owner",
          "type": "address"
        }
      ],
      "name": "balanceOf",
      "outputs": [
        {
          "internalType": "uint256",
          "name": "",
          "type": "uint256"
        }
      ],
      "stateMutability": "view",
      "type": "function"
    },
    {
      "inputs": [
        {
          "internalType": "uint256",
          "name": "_tradeId",
          "type": "uint256"
        },
        {
          "internalType": "uint256",
          "name": "_delaerTokenId",
          "type": "uint256"
        }
      ],
      "name": "bidTrade",
      "outputs": [],
      "stateMutability": "payable",
      "type": "function"
    },
    {
      "inputs": [
        {
          "internalType": "uint256",
          "name": "_tradeId",
          "type": "uint256"
        }
      ],
      "name": "cancelTrade",
      "outputs": [],
      "stateMutability": "payable",
      "type": "function"
    },
    {
      "inputs": [
        {
          "internalType": "uint256",
          "name": "_tradeId",
          "type": "uint256"
        }
      ],
      "name": "finalizeTrade",
      "outputs": [],
      "stateMutability": "payable",
      "type": "function"
    },
    {
      "inputs": [
        {
          "internalType": "address",
          "name": "_addr",
          "type": "address"
        }
      ],
      "name": "getAll",
      "outputs": [
        {
          "internalType": "uint256[]",
          "name": "",
          "type": "uint256[]"
        }
      ],
      "stateMutability": "view",
      "type": "function"
    },
    {
      "inputs": [],
      "name": "getAlltrades",
      "outputs": [
        {
          "components": [
            {
              "internalType": "address",
              "name": "creator",
              "type": "address"
            },
            {
              "internalType": "uint256",
              "name": "creatorTokenId",
              "type": "uint256"
            },
            {
              "internalType": "bool",
              "name": "isCompleted",
              "type": "bool"
            },
            {
              "internalType": "uint256",
              "name": "tradeId",
              "type": "uint256"
            },
            {
              "internalType": "bool",
              "name": "creatorConfirm",
              "type": "bool"
            },
            {
              "internalType": "bool",
              "name": "dealerConfirm",
              "type": "bool"
            },
            {
              "internalType": "address",
              "name": "dealer",
              "type": "address"
            },
            {
              "internalType": "uint256",
              "name": "dealerTokenId",
              "type": "uint256"
            }
          ],
          "internalType": "struct PokemonCards.Trade[]",
          "name": "",
          "type": "tuple[]"
        }
      ],
      "stateMutability": "view",
      "type": "function"
    },
    {
      "inputs": [
        {
          "internalType": "uint256",
          "name": "tokenId",
          "type": "uint256"
        }
      ],
      "name": "getApproved",
      "outputs": [
        {
          "internalType": "address",
          "name": "",
          "type": "address"
        }
      ],
      "stateMutability": "view",
      "type": "function"
    },
    {
      "inputs": [
        {
          "internalType": "uint256",
          "name": "",
          "type": "uint256"
        }
      ],
      "name": "hasTokenId",
      "outputs": [
        {
          "internalType": "uint256",
          "name": "",
          "type": "uint256"
        }
      ],
      "stateMutability": "view",
      "type": "function"
    },
    {
      "inputs": [
        {
          "internalType": "address",
          "name": "owner",
          "type": "address"
        },
        {
          "internalType": "address",
          "name": "operator",
          "type": "address"
        }
      ],
      "name": "isApprovedForAll",
      "outputs": [
        {
          "internalType": "bool",
          "name": "",
          "type": "bool"
        }
      ],
      "stateMutability": "view",
      "type": "function"
    },
    {
      "inputs": [],
      "name": "isMintEnabled",
      "outputs": [
        {
          "internalType": "bool",
          "name": "",
          "type": "bool"
        }
      ],
      "stateMutability": "view",
      "type": "function"
    },
    {
      "inputs": [
        {
          "internalType": "address",
          "name": "",
          "type": "address"
        }
      ],
      "name": "isTrading",
      "outputs": [
        {
          "internalType": "bool",
          "name": "",
          "type": "bool"
        }
      ],
      "stateMutability": "view",
      "type": "function"
    },
    {
      "inputs": [],
      "name": "maxSupply",
      "outputs": [
        {
          "internalType": "uint256",
          "name": "",
          "type": "uint256"
        }
      ],
      "stateMutability": "view",
      "type": "function"
    },
    {
      "inputs": [
        {
          "internalType": "string",
          "name": "tokenURI",
          "type": "string"
        }
      ],
      "name": "mint",
      "outputs": [],
      "stateMutability": "payable",
      "type": "function"
    },
    {
      "inputs": [
        {
          "internalType": "address",
          "name": "",
          "type": "address"
        }
      ],
      "name": "mintedWallets",
      "outputs": [
        {
          "internalType": "uint256",
          "name": "",
          "type": "uint256"
        }
      ],
      "stateMutability": "view",
      "type": "function"
    },
    {
      "inputs": [],
      "name": "name",
      "outputs": [
        {
          "internalType": "string",
          "name": "",
          "type": "string"
        }
      ],
      "stateMutability": "view",
      "type": "function"
    },
    {
      "inputs": [
        {
          "internalType": "address",
          "name": "",
          "type": "address"
        },
        {
          "internalType": "uint256",
          "name": "",
          "type": "uint256"
        }
      ],
      "name": "ownedNfts",
      "outputs": [
        {
          "internalType": "uint256",
          "name": "",
          "type": "uint256"
        }
      ],
      "stateMutability": "view",
      "type": "function"
    },
    {
      "inputs": [],
      "name": "owner",
      "outputs": [
        {
          "internalType": "address",
          "name": "",
          "type": "address"
        }
      ],
      "stateMutability": "view",
      "type": "function"
    },
    {
      "inputs": [
        {
          "internalType": "uint256",
          "name": "tokenId",
          "type": "uint256"
        }
      ],
      "name": "ownerOf",
      "outputs": [
        {
          "internalType": "address",
          "name": "",
          "type": "address"
        }
      ],
      "stateMutability": "view",
      "type": "function"
    },
    {
      "inputs": [
        {
          "internalType": "address",
          "name": "_from",
          "type": "address"
        },
        {
          "internalType": "uint256",
          "name": "_tokenId",
          "type": "uint256"
        }
      ],
      "name": "receiveToken",
      "outputs": [],
      "stateMutability": "payable",
      "type": "function"
    },
    {
      "inputs": [],
      "name": "renounceOwnership",
      "outputs": [],
      "stateMutability": "nonpayable",
      "type": "function"
    },
    {
      "inputs": [
        {
          "internalType": "address",
          "name": "from",
          "type": "address"
        },
        {
          "internalType": "address",
          "name": "to",
          "type": "address"
        },
        {
          "internalType": "uint256",
          "name": "tokenId",
          "type": "uint256"
        }
      ],
      "name": "safeTransferFrom",
      "outputs": [],
      "stateMutability": "nonpayable",
      "type": "function"
    },
    {
      "inputs": [
        {
          "internalType": "address",
          "name": "from",
          "type": "address"
        },
        {
          "internalType": "address",
          "name": "to",
          "type": "address"
        },
        {
          "internalType": "uint256",
          "name": "tokenId",
          "type": "uint256"
        },
        {
          "internalType": "bytes",
          "name": "data",
          "type": "bytes"
        }
      ],
      "name": "safeTransferFrom",
      "outputs": [],
      "stateMutability": "nonpayable",
      "type": "function"
    },
    {
      "inputs": [
        {
          "internalType": "address",
          "name": "operator",
          "type": "address"
        },
        {
          "internalType": "bool",
          "name": "approved",
          "type": "bool"
        }
      ],
      "name": "setApprovalForAll",
      "outputs": [],
      "stateMutability": "nonpayable",
      "type": "function"
    },
    {
      "inputs": [
        {
          "internalType": "uint256",
          "name": "_maxSupply",
          "type": "uint256"
        }
      ],
      "name": "setMaxSupply",
      "outputs": [],
      "stateMutability": "nonpayable",
      "type": "function"
    },
    {
      "inputs": [
        {
          "internalType": "uint256",
          "name": "_creatorTokenId",
          "type": "uint256"
        }
      ],
      "name": "setTrade",
      "outputs": [],
      "stateMutability": "payable",
      "type": "function"
    },
    {
      "inputs": [
        {
          "internalType": "bytes4",
          "name": "interfaceId",
          "type": "bytes4"
        }
      ],
      "name": "supportsInterface",
      "outputs": [
        {
          "internalType": "bool",
          "name": "",
          "type": "bool"
        }
      ],
      "stateMutability": "view",
      "type": "function"
    },
    {
      "inputs": [],
      "name": "symbol",
      "outputs": [
        {
          "internalType": "string",
          "name": "",
          "type": "string"
        }
      ],
      "stateMutability": "view",
      "type": "function"
    },
    {
      "inputs": [],
      "name": "toggleIsMintEnabled",
      "outputs": [],
      "stateMutability": "nonpayable",
      "type": "function"
    },
    {
      "inputs": [
        {
          "internalType": "uint256",
          "name": "tokenId",
          "type": "uint256"
        }
      ],
      "name": "tokenURI",
      "outputs": [
        {
          "internalType": "string",
          "name": "",
          "type": "string"
        }
      ],
      "stateMutability": "view",
      "type": "function"
    },
    {
      "inputs": [],
      "name": "totalSupply",
      "outputs": [
        {
          "internalType": "uint256",
          "name": "",
          "type": "uint256"
        }
      ],
      "stateMutability": "view",
      "type": "function"
    },
    {
      "inputs": [],
      "name": "totalTrades",
      "outputs": [
        {
          "internalType": "uint256",
          "name": "",
          "type": "uint256"
        }
      ],
      "stateMutability": "view",
      "type": "function"
    },
    {
      "inputs": [
        {
          "internalType": "uint256",
          "name": "",
          "type": "uint256"
        }
      ],
      "name": "trades",
      "outputs": [
        {
          "internalType": "address",
          "name": "creator",
          "type": "address"
        },
        {
          "internalType": "uint256",
          "name": "creatorTokenId",
          "type": "uint256"
        },
        {
          "internalType": "bool",
          "name": "isCompleted",
          "type": "bool"
        },
        {
          "internalType": "uint256",
          "name": "tradeId",
          "type": "uint256"
        },
        {
          "internalType": "bool",
          "name": "creatorConfirm",
          "type": "bool"
        },
        {
          "internalType": "bool",
          "name": "dealerConfirm",
          "type": "bool"
        },
        {
          "internalType": "address",
          "name": "dealer",
          "type": "address"
        },
        {
          "internalType": "uint256",
          "name": "dealerTokenId",
          "type": "uint256"
        }
      ],
      "stateMutability": "view",
      "type": "function"
    },
    {
      "inputs": [
        {
          "internalType": "address",
          "name": "from",
          "type": "address"
        },
        {
          "internalType": "address",
          "name": "to",
          "type": "address"
        },
        {
          "internalType": "uint256",
          "name": "tokenId",
          "type": "uint256"
        }
      ],
      "name": "transferFrom",
      "outputs": [],
      "stateMutability": "nonpayable",
      "type": "function"
    },
    {
      "inputs": [
        {
          "internalType": "address",
          "name": "newOwner",
          "type": "address"
        }
      ],
      "name": "transferOwnership",
      "outputs": [],
      "stateMutability": "nonpayable",
      "type": "function"
    },
    {
      "inputs": [
        {
          "internalType": "address",
          "name": "",
          "type": "address"
        },
        {
          "internalType": "uint256",
          "name": "",
          "type": "uint256"
        }
      ],
      "name": "userTrades",
      "outputs": [
        {
          "internalType": "address",
          "name": "creator",
          "type": "address"
        },
        {
          "internalType": "uint256",
          "name": "creatorTokenId",
          "type": "uint256"
        },
        {
          "internalType": "bool",
          "name": "isCompleted",
          "type": "bool"
        },
        {
          "internalType": "uint256",
          "name": "tradeId",
          "type": "uint256"
        },
        {
          "internalType": "bool",
          "name": "creatorConfirm",
          "type": "bool"
        },
        {
          "internalType": "bool",
          "name": "dealerConfirm",
          "type": "bool"
        },
        {
          "internalType": "address",
          "name": "dealer",
          "type": "address"
        },
        {
          "internalType": "uint256",
          "name": "dealerTokenId",
          "type": "uint256"
        }
      ],
      "stateMutability": "view",
      "type": "function"
    }
  ],
  "bytecode": "0x60806040526001600a60006101000a81548160ff0219169083151502179055506000600f556040518060400160405280600c81526020017f506f6b656d6f6e204361726400000000000000000000000000000000000000008152506040518060400160405280600481526020017f504f4b45000000000000000000000000000000000000000000000000000000008152508160009081620000a191906200042c565b508060019081620000b391906200042c565b505050620000d6620000ca620000e460201b60201c565b620000ec60201b60201c565b601460098190555062000513565b600033905090565b6000600760009054906101000a900473ffffffffffffffffffffffffffffffffffffffff16905081600760006101000a81548173ffffffffffffffffffffffffffffffffffffffff021916908373ffffffffffffffffffffffffffffffffffffffff1602179055508173ffffffffffffffffffffffffffffffffffffffff168173ffffffffffffffffffffffffffffffffffffffff167f8be0079c531659141344cd1fd0a4f28419497f9722a3daafe3b4186f6b6457e060405160405180910390a35050565b600081519050919050565b7f4e487b7100000000000000000000000000000000000000000000000000000000600052604160045260246000fd5b7f4e487b7100000000000000000000000000000000000000000000000000000000600052602260045260246000fd5b600060028204905060018216806200023457607f821691505b6020821081036200024a5762000249620001ec565b5b50919050565b60008190508160005260206000209050919050565b60006020601f8301049050919050565b600082821b905092915050565b600060088302620002b47fffffffffffffffffffffffffffffffffffffffffffffffffffffffffffffffff8262000275565b620002c0868362000275565b95508019841693508086168417925050509392505050565b6000819050919050565b6000819050919050565b60006200030d620003076200030184620002d8565b620002e2565b620002d8565b9050919050565b6000819050919050565b6200032983620002ec565b62000341620003388262000314565b84845462000282565b825550505050565b600090565b6200035862000349565b620003658184846200031e565b505050565b5b818110156200038d57620003816000826200034e565b6001810190506200036b565b5050565b601f821115620003dc57620003a68162000250565b620003b18462000265565b81016020851015620003c1578190505b620003d9620003d08562000265565b8301826200036a565b50505b505050565b600082821c905092915050565b60006200040160001984600802620003e1565b1980831691505092915050565b60006200041c8383620003ee565b9150826002028217905092915050565b6200043782620001b2565b67ffffffffffffffff811115620004535762000452620001bd565b5b6200045f82546200021b565b6200046c82828562000391565b600060209050601f831160018114620004a457600084156200048f578287015190505b6200049b85826200040e565b8655506200050b565b601f198416620004b48662000250565b60005b82811015620004de57848901518255600182019150602085019450602081019050620004b7565b86831015620004fe5784890151620004fa601f891682620003ee565b8355505b6001600288020188555050505b505050505050565b615fe380620005236000396000f3fe6080604052600436106102255760003560e01c806370a0823111610123578063b88d4fde116100ab578063d85d3d271161006f578063d85d3d2714610814578063e275c99714610830578063e985e9c51461085b578063eb07734214610898578063f2fde38b146108d557610225565b8063b88d4fde14610750578063c407321714610779578063c87b56dd14610790578063d58c71a5146107cd578063d5abeb01146107e957610225565b806397235a1e116100f257806397235a1e1461066e578063992cb6361461068a578063a22cb465146106a6578063ada7c4ed146106cf578063b1b1ffab1461070c57610225565b806370a08231146105c4578063715018a6146106015780638da5cb5b1461061857806395d89b411461064357610225565b806330911590116101b15780635d6bc62c116101755780635d6bc62c146104c8578063605df800146105055780636352211e146105215780636b3a76711461055e5780636f8b44b01461059b57610225565b806330911590146103c8578063346de50a146103f35780633d9a34791461041e57806342842e0e1461045b57806347ca9c331461048457610225565b8063095ea7b3116101f8578063095ea7b3146102eb57806309ec6cc71461031457806318160ddd146103305780631e6c598e1461035b57806323b872dd1461039f57610225565b806301663e591461022a57806301ffc9a71461024657806306fdde0314610283578063081812fc146102ae575b600080fd5b610244600480360381019061023f9190614538565b6108fe565b005b34801561025257600080fd5b5061026d600480360381019061026891906145bd565b610b48565b60405161027a9190614605565b60405180910390f35b34801561028f57600080fd5b50610298610c2a565b6040516102a591906146b0565b60405180910390f35b3480156102ba57600080fd5b506102d560048036038101906102d09190614538565b610cbc565b6040516102e29190614713565b60405180910390f35b3480156102f757600080fd5b50610312600480360381019061030d919061475a565b610d02565b005b61032e60048036038101906103299190614538565b610e19565b005b34801561033c57600080fd5b50610345611250565b60405161035291906147a9565b60405180910390f35b34801561036757600080fd5b50610382600480360381019061037d9190614538565b611256565b6040516103969897969594939291906147c4565b60405180910390f35b3480156103ab57600080fd5b506103c660048036038101906103c19190614842565b611305565b005b3480156103d457600080fd5b506103dd611365565b6040516103ea9190614a14565b60405180910390f35b3480156103ff57600080fd5b506104086114e0565b6040516104159190614605565b60405180910390f35b34801561042a57600080fd5b506104456004803603810190610440919061475a565b6114f3565b60405161045291906147a9565b60405180910390f35b34801561046757600080fd5b50610482600480360381019061047d9190614842565b611524565b005b34801561049057600080fd5b506104ab60048036038101906104a69190614538565b611544565b6040516104bf9897969594939291906147c4565b60405180910390f35b3480156104d457600080fd5b506104ef60048036038101906104ea9190614a36565b611603565b6040516104fc9190614605565b60405180910390f35b61051f600480360381019061051a9190614538565b611623565b005b34801561052d57600080fd5b5061054860048036038101906105439190614538565b611d2e565b6040516105559190614713565b60405180910390f35b34801561056a57600080fd5b5061058560048036038101906105809190614538565b611db4565b60405161059291906147a9565b60405180910390f35b3480156105a757600080fd5b506105c260048036038101906105bd9190614538565b611dd8565b005b3480156105d057600080fd5b506105eb60048036038101906105e69190614a36565b611dea565b6040516105f891906147a9565b60405180910390f35b34801561060d57600080fd5b50610616611ea1565b005b34801561062457600080fd5b5061062d611eb5565b60405161063a9190614713565b60405180910390f35b34801561064f57600080fd5b50610658611edf565b60405161066591906146b0565b60405180910390f35b6106886004803603810190610683919061475a565b611f71565b005b6106a4600480360381019061069f9190614a63565b611fe4565b005b3480156106b257600080fd5b506106cd60048036038101906106c89190614acf565b6123f8565b005b3480156106db57600080fd5b506106f660048036038101906106f19190614a36565b61240e565b60405161070391906147a9565b60405180910390f35b34801561071857600080fd5b50610733600480360381019061072e919061475a565b612426565b6040516107479897969594939291906147c4565b60405180910390f35b34801561075c57600080fd5b5061077760048036038101906107729190614c44565b6124f2565b005b34801561078557600080fd5b5061078e612554565b005b34801561079c57600080fd5b506107b760048036038101906107b29190614538565b612588565b6040516107c491906146b0565b60405180910390f35b6107e760048036038101906107e29190614538565b61269a565b005b3480156107f557600080fd5b506107fe6130a6565b60405161080b91906147a9565b60405180910390f35b61082e60048036038101906108299190614d68565b6130ac565b005b34801561083c57600080fd5b50610845613233565b60405161085291906147a9565b60405180910390f35b34801561086757600080fd5b50610882600480360381019061087d9190614db1565b613239565b60405161088f9190614605565b60405180910390f35b3480156108a457600080fd5b506108bf60048036038101906108ba9190614a36565b6132cd565b6040516108cc9190614ea0565b60405180910390f35b3480156108e157600080fd5b506108fc60048036038101906108f79190614a36565b613364565b005b6010600082815260200190815260200160002060000160009054906101000a900473ffffffffffffffffffffffffffffffffffffffff1673ffffffffffffffffffffffffffffffffffffffff163373ffffffffffffffffffffffffffffffffffffffff1614806109cf57506010600082815260200190815260200160002060040160029054906101000a900473ffffffffffffffffffffffffffffffffffffffff1673ffffffffffffffffffffffffffffffffffffffff163373ffffffffffffffffffffffffffffffffffffffff16145b610a0e576040517f08c379a0000000000000000000000000000000000000000000000000000000008152600401610a0590614f34565b60405180910390fd5b6010600082815260200190815260200160002060000160009054906101000a900473ffffffffffffffffffffffffffffffffffffffff1673ffffffffffffffffffffffffffffffffffffffff163373ffffffffffffffffffffffffffffffffffffffff1603610aab5760016010600083815260200190815260200160002060040160006101000a81548160ff021916908315150217905550610b45565b6010600082815260200190815260200160002060040160029054906101000a900473ffffffffffffffffffffffffffffffffffffffff1673ffffffffffffffffffffffffffffffffffffffff163373ffffffffffffffffffffffffffffffffffffffff1603610b445760016010600083815260200190815260200160002060040160016101000a81548160ff0219169083151502179055505b5b50565b60007f80ac58cd000000000000000000000000000000000000000000000000000000007bffffffffffffffffffffffffffffffffffffffffffffffffffffffff1916827bffffffffffffffffffffffffffffffffffffffffffffffffffffffff19161480610c1357507f5b5e139f000000000000000000000000000000000000000000000000000000007bffffffffffffffffffffffffffffffffffffffffffffffffffffffff1916827bffffffffffffffffffffffffffffffffffffffffffffffffffffffff1916145b80610c235750610c22826133e7565b5b9050919050565b606060008054610c3990614f83565b80601f0160208091040260200160405190810160405280929190818152602001828054610c6590614f83565b8015610cb25780601f10610c8757610100808354040283529160200191610cb2565b820191906000526020600020905b815481529060010190602001808311610c9557829003601f168201915b5050505050905090565b6000610cc782613451565b6004600083815260200190815260200160002060009054906101000a900473ffffffffffffffffffffffffffffffffffffffff169050919050565b6000610d0d82611d2e565b90508073ffffffffffffffffffffffffffffffffffffffff168373ffffffffffffffffffffffffffffffffffffffff1603610d7d576040517f08c379a0000000000000000000000000000000000000000000000000000000008152600401610d7490615026565b60405180910390fd5b8073ffffffffffffffffffffffffffffffffffffffff16610d9c61349c565b73ffffffffffffffffffffffffffffffffffffffff161480610dcb5750610dca81610dc561349c565b613239565b5b610e0a576040517f08c379a0000000000000000000000000000000000000000000000000000000008152600401610e01906150b8565b60405180910390fd5b610e1483836134a4565b505050565b6010600082815260200190815260200160002060000160009054906101000a900473ffffffffffffffffffffffffffffffffffffffff1673ffffffffffffffffffffffffffffffffffffffff163373ffffffffffffffffffffffffffffffffffffffff161480610eea57506010600082815260200190815260200160002060040160029054906101000a900473ffffffffffffffffffffffffffffffffffffffff1673ffffffffffffffffffffffffffffffffffffffff163373ffffffffffffffffffffffffffffffffffffffff16145b610f29576040517f08c379a0000000000000000000000000000000000000000000000000000000008152600401610f2090614f34565b60405180910390fd5b6010600082815260200190815260200160002060000160009054906101000a900473ffffffffffffffffffffffffffffffffffffffff1673ffffffffffffffffffffffffffffffffffffffff163373ffffffffffffffffffffffffffffffffffffffff16036110fd57600015156010600083815260200190815260200160002060020160009054906101000a900460ff16151514610ffc576040517f08c379a0000000000000000000000000000000000000000000000000000000008152600401610ff390615124565b60405180910390fd5b60106000828152602001908152602001600020600080820160006101000a81549073ffffffffffffffffffffffffffffffffffffffff021916905560018201600090556002820160006101000a81549060ff021916905560038201600090556004820160006101000a81549060ff02191690556004820160016101000a81549060ff02191690556004820160026101000a81549073ffffffffffffffffffffffffffffffffffffffff021916905560058201600090555050803373ffffffffffffffffffffffffffffffffffffffff167f27f83af92b39768b17fe0c8d6922452702717efb8626d97e7a754e0b27d4f6d260405160405180910390a361124d565b6010600082815260200190815260200160002060040160029054906101000a900473ffffffffffffffffffffffffffffffffffffffff1673ffffffffffffffffffffffffffffffffffffffff163373ffffffffffffffffffffffffffffffffffffffff160361124c5760006010600083815260200190815260200160002060040160016101000a81548160ff02191690831515021790555060006010600083815260200190815260200160002060040160026101000a81548173ffffffffffffffffffffffffffffffffffffffff021916908373ffffffffffffffffffffffffffffffffffffffff16021790555060006010600083815260200190815260200160002060050181905550803373ffffffffffffffffffffffffffffffffffffffff167f27f83af92b39768b17fe0c8d6922452702717efb8626d97e7a754e0b27d4f6d260405160405180910390a35b5b50565b60085481565b60106020528060005260406000206000915090508060000160009054906101000a900473ffffffffffffffffffffffffffffffffffffffff16908060010154908060020160009054906101000a900460ff16908060030154908060040160009054906101000a900460ff16908060040160019054906101000a900460ff16908060040160029054906101000a900473ffffffffffffffffffffffffffffffffffffffff16908060050154905088565b61131661131061349c565b8261355d565b611355576040517f08c379a000000000000000000000000000000000000000000000000000000000815260040161134c906151b6565b60405180910390fd5b6113608383836135f2565b505050565b60606013805480602002602001604051908101604052809291908181526020016000905b828210156114d75783829060005260206000209060060201604051806101000160405290816000820160009054906101000a900473ffffffffffffffffffffffffffffffffffffffff1673ffffffffffffffffffffffffffffffffffffffff1673ffffffffffffffffffffffffffffffffffffffff168152602001600182015481526020016002820160009054906101000a900460ff16151515158152602001600382015481526020016004820160009054906101000a900460ff161515151581526020016004820160019054906101000a900460ff161515151581526020016004820160029054906101000a900473ffffffffffffffffffffffffffffffffffffffff1673ffffffffffffffffffffffffffffffffffffffff1673ffffffffffffffffffffffffffffffffffffffff16815260200160058201548152505081526020019060010190611389565b50505050905090565b600a60009054906101000a900460ff1681565b600e602052816000526040600020818154811061150f57600080fd5b90600052602060002001600091509150505481565b61153f838383604051806020016040528060008152506124f2565b505050565b6013818154811061155457600080fd5b90600052602060002090600602016000915090508060000160009054906101000a900473ffffffffffffffffffffffffffffffffffffffff16908060010154908060020160009054906101000a900460ff16908060030154908060040160009054906101000a900460ff16908060040160019054906101000a900460ff16908060040160029054906101000a900473ffffffffffffffffffffffffffffffffffffffff16908060050154905088565b60126020528060005260406000206000915054906101000a900460ff1681565b3373ffffffffffffffffffffffffffffffffffffffff1661164382611d2e565b73ffffffffffffffffffffffffffffffffffffffff1614611699576040517f08c379a000000000000000000000000000000000000000000000000000000000815260040161169090615248565b60405180910390fd5b60001515601260003373ffffffffffffffffffffffffffffffffffffffff1673ffffffffffffffffffffffffffffffffffffffff16815260200190815260200160002060009054906101000a900460ff1615151461172c576040517f08c379a0000000000000000000000000000000000000000000000000000000008152600401611723906152b4565b60405180910390fd5b6117373060016123f8565b600f600081548092919061174a90615303565b91905055506001601260003373ffffffffffffffffffffffffffffffffffffffff1673ffffffffffffffffffffffffffffffffffffffff16815260200190815260200160002060006101000a81548160ff0219169083151502179055506040518061010001604052803373ffffffffffffffffffffffffffffffffffffffff168152602001828152602001600015158152602001600f548152602001600015158152602001600015158152602001600073ffffffffffffffffffffffffffffffffffffffff168152602001600081525060106000600f54815260200190815260200160002060008201518160000160006101000a81548173ffffffffffffffffffffffffffffffffffffffff021916908373ffffffffffffffffffffffffffffffffffffffff1602179055506020820151816001015560408201518160020160006101000a81548160ff0219169083151502179055506060820151816003015560808201518160040160006101000a81548160ff02191690831515021790555060a08201518160040160016101000a81548160ff02191690831515021790555060c08201518160040160026101000a81548173ffffffffffffffffffffffffffffffffffffffff021916908373ffffffffffffffffffffffffffffffffffffffff16021790555060e08201518160050155905050601360106000600f54815260200190815260200160002090806001815401808255809150506001900390600052602060002090600602016000909190919091506000820160009054906101000a900473ffffffffffffffffffffffffffffffffffffffff168160000160006101000a81548173ffffffffffffffffffffffffffffffffffffffff021916908373ffffffffffffffffffffffffffffffffffffffff160217905550600182015481600101556002820160009054906101000a900460ff168160020160006101000a81548160ff021916908315150217905550600382015481600301556004820160009054906101000a900460ff168160040160006101000a81548160ff0219169083151502179055506004820160019054906101000a900460ff168160040160016101000a81548160ff0219169083151502179055506004820160029054906101000a900473ffffffffffffffffffffffffffffffffffffffff168160040160026101000a81548173ffffffffffffffffffffffffffffffffffffffff021916908373ffffffffffffffffffffffffffffffffffffffff160217905550600582015481600501555050601160003373ffffffffffffffffffffffffffffffffffffffff1673ffffffffffffffffffffffffffffffffffffffff16815260200190815260200160002060106000600f54815260200190815260200160002090806001815401808255809150506001900390600052602060002090600602016000909190919091506000820160009054906101000a900473ffffffffffffffffffffffffffffffffffffffff168160000160006101000a81548173ffffffffffffffffffffffffffffffffffffffff021916908373ffffffffffffffffffffffffffffffffffffffff160217905550600182015481600101556002820160009054906101000a900460ff168160020160006101000a81548160ff021916908315150217905550600382015481600301556004820160009054906101000a900460ff168160040160006101000a81548160ff0219169083151502179055506004820160019054906101000a900460ff168160040160016101000a81548160ff0219169083151502179055506004820160029054906101000a900473ffffffffffffffffffffffffffffffffffffffff168160040160026101000a81548173ffffffffffffffffffffffffffffffffffffffff021916908373ffffffffffffffffffffffffffffffffffffffff160217905550600582015481600501555050600f543373ffffffffffffffffffffffffffffffffffffffff167fbfce24751fc3f5d349c888b748dbe331a3af19ad7ee1ea95c5ac1b844ba9e51a60405160405180910390a350565b600080611d3a836138eb565b9050600073ffffffffffffffffffffffffffffffffffffffff168173ffffffffffffffffffffffffffffffffffffffff1603611dab576040517f08c379a0000000000000000000000000000000000000000000000000000000008152600401611da290615397565b60405180910390fd5b80915050919050565b600b8181548110611dc457600080fd5b906000526020600020016000915090505481565b611de0613928565b8060098190555050565b60008073ffffffffffffffffffffffffffffffffffffffff168273ffffffffffffffffffffffffffffffffffffffff1603611e5a576040517f08c379a0000000000000000000000000000000000000000000000000000000008152600401611e5190615429565b60405180910390fd5b600360008373ffffffffffffffffffffffffffffffffffffffff1673ffffffffffffffffffffffffffffffffffffffff168152602001908152602001600020549050919050565b611ea9613928565b611eb360006139a6565b565b6000600760009054906101000a900473ffffffffffffffffffffffffffffffffffffffff16905090565b606060018054611eee90614f83565b80601f0160208091040260200160405190810160405280929190818152602001828054611f1a90614f83565b8015611f675780601f10611f3c57610100808354040283529160200191611f67565b820191906000526020600020905b815481529060010190602001808311611f4a57829003601f168201915b5050505050905090565b8173ffffffffffffffffffffffffffffffffffffffff166342842e0e8330846040518463ffffffff1660e01b8152600401611fae93929190615449565b600060405180830381600087803b158015611fc857600080fd5b505af1158015611fdc573d6000803e3d6000fd5b505050505050565b3373ffffffffffffffffffffffffffffffffffffffff1661200482611d2e565b73ffffffffffffffffffffffffffffffffffffffff161461205a576040517f08c379a000000000000000000000000000000000000000000000000000000000815260040161205190615248565b60405180910390fd5b60001515601260003373ffffffffffffffffffffffffffffffffffffffff1673ffffffffffffffffffffffffffffffffffffffff16815260200190815260200160002060009054906101000a900460ff161515146120ed576040517f08c379a00000000000000000000000000000000000000000000000000000000081526004016120e4906154cc565b60405180910390fd5b6120f83060016123f8565b6001601260003373ffffffffffffffffffffffffffffffffffffffff1673ffffffffffffffffffffffffffffffffffffffff16815260200190815260200160002060006101000a81548160ff021916908315150217905550336010600084815260200190815260200160002060040160026101000a81548173ffffffffffffffffffffffffffffffffffffffff021916908373ffffffffffffffffffffffffffffffffffffffff160217905550806010600084815260200190815260200160002060050181905550601160003373ffffffffffffffffffffffffffffffffffffffff1673ffffffffffffffffffffffffffffffffffffffff1681526020019081526020016000206010600084815260200190815260200160002090806001815401808255809150506001900390600052602060002090600602016000909190919091506000820160009054906101000a900473ffffffffffffffffffffffffffffffffffffffff168160000160006101000a81548173ffffffffffffffffffffffffffffffffffffffff021916908373ffffffffffffffffffffffffffffffffffffffff160217905550600182015481600101556002820160009054906101000a900460ff168160020160006101000a81548160ff021916908315150217905550600382015481600301556004820160009054906101000a900460ff168160040160006101000a81548160ff0219169083151502179055506004820160019054906101000a900460ff168160040160016101000a81548160ff0219169083151502179055506004820160029054906101000a900473ffffffffffffffffffffffffffffffffffffffff168160040160026101000a81548173ffffffffffffffffffffffffffffffffffffffff021916908373ffffffffffffffffffffffffffffffffffffffff160217905550600582015481600501555050813373ffffffffffffffffffffffffffffffffffffffff167fe684a55f31b79eca403df938249029212a5925ec6be8012e099b45bc1019e5d260405160405180910390a35050565b61240a61240361349c565b8383613a6c565b5050565b600d6020528060005260406000206000915090505481565b6011602052816000526040600020818154811061244257600080fd5b9060005260206000209060060201600091509150508060000160009054906101000a900473ffffffffffffffffffffffffffffffffffffffff16908060010154908060020160009054906101000a900460ff16908060030154908060040160009054906101000a900460ff16908060040160019054906101000a900460ff16908060040160029054906101000a900473ffffffffffffffffffffffffffffffffffffffff16908060050154905088565b6125036124fd61349c565b8361355d565b612542576040517f08c379a0000000000000000000000000000000000000000000000000000000008152600401612539906151b6565b60405180910390fd5b61254e84848484613bd8565b50505050565b61255c613928565b600a60009054906101000a900460ff1615600a60006101000a81548160ff021916908315150217905550565b606061259382613451565b60006006600084815260200190815260200160002080546125b390614f83565b80601f01602080910402602001604051908101604052809291908181526020018280546125df90614f83565b801561262c5780601f106126015761010080835404028352916020019161262c565b820191906000526020600020905b81548152906001019060200180831161260f57829003601f168201915b50505050509050600061263d613c34565b90506000815103612652578192505050612695565b60008251111561268757808260405160200161266f929190615528565b60405160208183030381529060405292505050612695565b61269084613c4b565b925050505b919050565b3373ffffffffffffffffffffffffffffffffffffffff166010600083815260200190815260200160002060000160009054906101000a900473ffffffffffffffffffffffffffffffffffffffff1673ffffffffffffffffffffffffffffffffffffffff16148061276b57503373ffffffffffffffffffffffffffffffffffffffff166010600083815260200190815260200160002060040160029054906101000a900473ffffffffffffffffffffffffffffffffffffffff1673ffffffffffffffffffffffffffffffffffffffff16145b6127aa576040517f08c379a00000000000000000000000000000000000000000000000000000000081526004016127a190614f34565b60405180910390fd5b600015156010600083815260200190815260200160002060020160009054906101000a900460ff16151514612814576040517f08c379a000000000000000000000000000000000000000000000000000000000815260040161280b90615598565b60405180910390fd5b600115156010600083815260200190815260200160002060040160009054906101000a900460ff1615151480156128725750600115156010600083815260200190815260200160002060040160019054906101000a900460ff161515145b6128b1576040517f08c379a00000000000000000000000000000000000000000000000000000000081526004016128a890615604565b60405180910390fd5b60016010600083815260200190815260200160002060020160006101000a81548160ff0219169083151502179055503073ffffffffffffffffffffffffffffffffffffffff166342842e0e6010600084815260200190815260200160002060000160009054906101000a900473ffffffffffffffffffffffffffffffffffffffff166010600085815260200190815260200160002060040160029054906101000a900473ffffffffffffffffffffffffffffffffffffffff1660106000868152602001908152602001600020600101546040518463ffffffff1660e01b815260040161299f93929190615449565b600060405180830381600087803b1580156129b957600080fd5b505af11580156129cd573d6000803e3d6000fd5b505050503073ffffffffffffffffffffffffffffffffffffffff166342842e0e6010600084815260200190815260200160002060040160029054906101000a900473ffffffffffffffffffffffffffffffffffffffff166010600085815260200190815260200160002060000160009054906101000a900473ffffffffffffffffffffffffffffffffffffffff1660106000868152602001908152602001600020600501546040518463ffffffff1660e01b8152600401612a9093929190615449565b600060405180830381600087803b158015612aaa57600080fd5b505af1158015612abe573d6000803e3d6000fd5b50505050600e60006010600084815260200190815260200160002060040160029054906101000a900473ffffffffffffffffffffffffffffffffffffffff1673ffffffffffffffffffffffffffffffffffffffff1673ffffffffffffffffffffffffffffffffffffffff1681526020019081526020016000206010600083815260200190815260200160002060010154908060018154018082558091505060019003906000526020600020016000909190919091505560005b600e60006010600085815260200190815260200160002060040160029054906101000a900473ffffffffffffffffffffffffffffffffffffffff1673ffffffffffffffffffffffffffffffffffffffff1673ffffffffffffffffffffffffffffffffffffffff16815260200190815260200160002080549050811015612d4e576010600083815260200190815260200160002060050154600e60006010600086815260200190815260200160002060040160029054906101000a900473ffffffffffffffffffffffffffffffffffffffff1673ffffffffffffffffffffffffffffffffffffffff1673ffffffffffffffffffffffffffffffffffffffff1681526020019081526020016000208281548110612c9557612c94615624565b5b906000526020600020015403612d3b57600e60006010600085815260200190815260200160002060040160029054906101000a900473ffffffffffffffffffffffffffffffffffffffff1673ffffffffffffffffffffffffffffffffffffffff1673ffffffffffffffffffffffffffffffffffffffff1681526020019081526020016000208181548110612d2c57612d2b615624565b5b90600052602060002001600090555b8080612d4690615303565b915050612b77565b5060005b600e60006010600085815260200190815260200160002060000160009054906101000a900473ffffffffffffffffffffffffffffffffffffffff1673ffffffffffffffffffffffffffffffffffffffff1673ffffffffffffffffffffffffffffffffffffffff16815260200190815260200160002080549050811015612f29576010600083815260200190815260200160002060010154600e60006010600086815260200190815260200160002060000160009054906101000a900473ffffffffffffffffffffffffffffffffffffffff1673ffffffffffffffffffffffffffffffffffffffff1673ffffffffffffffffffffffffffffffffffffffff1681526020019081526020016000208281548110612e7057612e6f615624565b5b906000526020600020015403612f1657600e60006010600085815260200190815260200160002060000160009054906101000a900473ffffffffffffffffffffffffffffffffffffffff1673ffffffffffffffffffffffffffffffffffffffff1673ffffffffffffffffffffffffffffffffffffffff1681526020019081526020016000208181548110612f0757612f06615624565b5b90600052602060002001600090555b8080612f2190615303565b915050612d52565b50600e60006010600084815260200190815260200160002060000160009054906101000a900473ffffffffffffffffffffffffffffffffffffffff1673ffffffffffffffffffffffffffffffffffffffff1673ffffffffffffffffffffffffffffffffffffffff16815260200190815260200160002060106000838152602001908152602001600020600501549080600181540180825580915050600190039060005260206000200160009091909190915055806010600083815260200190815260200160002060040160029054906101000a900473ffffffffffffffffffffffffffffffffffffffff1673ffffffffffffffffffffffffffffffffffffffff166010600084815260200190815260200160002060000160009054906101000a900473ffffffffffffffffffffffffffffffffffffffff1673ffffffffffffffffffffffffffffffffffffffff167f70472766abdeecc3d1cf2b2c6925b9dfb8f08aae449dffb2a2142b96d5a5ca6c60405160405180910390a450565b60095481565b600a60009054906101000a900460ff166130fb576040517f08c379a00000000000000000000000000000000000000000000000000000000081526004016130f29061569f565b60405180910390fd5b60085460095411613141576040517f08c379a00000000000000000000000000000000000000000000000000000000081526004016131389061570b565b60405180910390fd5b600d60003373ffffffffffffffffffffffffffffffffffffffff1673ffffffffffffffffffffffffffffffffffffffff168152602001908152602001600020600081548092919061319190615303565b9190505550600860008154809291906131a990615303565b919050555060006008549050600e60003373ffffffffffffffffffffffffffffffffffffffff1673ffffffffffffffffffffffffffffffffffffffff1681526020019081526020016000208190806001815401808255809150506001900390600052602060002001600090919091909150556132253382613cb3565b61322f8183613cd1565b5050565b600f5481565b6000600560008473ffffffffffffffffffffffffffffffffffffffff1673ffffffffffffffffffffffffffffffffffffffff16815260200190815260200160002060008373ffffffffffffffffffffffffffffffffffffffff1673ffffffffffffffffffffffffffffffffffffffff16815260200190815260200160002060009054906101000a900460ff16905092915050565b6060600e60008373ffffffffffffffffffffffffffffffffffffffff1673ffffffffffffffffffffffffffffffffffffffff16815260200190815260200160002080548060200260200160405190810160405280929190818152602001828054801561335857602002820191906000526020600020905b815481526020019060010190808311613344575b50505050509050919050565b61336c613928565b600073ffffffffffffffffffffffffffffffffffffffff168173ffffffffffffffffffffffffffffffffffffffff16036133db576040517f08c379a00000000000000000000000000000000000000000000000000000000081526004016133d29061579d565b60405180910390fd5b6133e4816139a6565b50565b60007f01ffc9a7000000000000000000000000000000000000000000000000000000007bffffffffffffffffffffffffffffffffffffffffffffffffffffffff1916827bffffffffffffffffffffffffffffffffffffffffffffffffffffffff1916149050919050565b61345a81613d3e565b613499576040517f08c379a000000000000000000000000000000000000000000000000000000000815260040161349090615397565b60405180910390fd5b50565b600033905090565b816004600083815260200190815260200160002060006101000a81548173ffffffffffffffffffffffffffffffffffffffff021916908373ffffffffffffffffffffffffffffffffffffffff160217905550808273ffffffffffffffffffffffffffffffffffffffff1661351783611d2e565b73ffffffffffffffffffffffffffffffffffffffff167f8c5be1e5ebec7d5bd14f71427d1e84f3dd0314c0f7b2291e5b200ac8c7c3b92560405160405180910390a45050565b60008061356983611d2e565b90508073ffffffffffffffffffffffffffffffffffffffff168473ffffffffffffffffffffffffffffffffffffffff1614806135ab57506135aa8185613239565b5b806135e957508373ffffffffffffffffffffffffffffffffffffffff166135d184610cbc565b73ffffffffffffffffffffffffffffffffffffffff16145b91505092915050565b8273ffffffffffffffffffffffffffffffffffffffff1661361282611d2e565b73ffffffffffffffffffffffffffffffffffffffff1614613668576040517f08c379a000000000000000000000000000000000000000000000000000000000815260040161365f9061582f565b60405180910390fd5b600073ffffffffffffffffffffffffffffffffffffffff168273ffffffffffffffffffffffffffffffffffffffff16036136d7576040517f08c379a00000000000000000000000000000000000000000000000000000000081526004016136ce906158c1565b60405180910390fd5b6136e48383836001613d7f565b8273ffffffffffffffffffffffffffffffffffffffff1661370482611d2e565b73ffffffffffffffffffffffffffffffffffffffff161461375a576040517f08c379a00000000000000000000000000000000000000000000000000000000081526004016137519061582f565b60405180910390fd5b6004600082815260200190815260200160002060006101000a81549073ffffffffffffffffffffffffffffffffffffffff02191690556001600360008573ffffffffffffffffffffffffffffffffffffffff1673ffffffffffffffffffffffffffffffffffffffff168152602001908152602001600020600082825403925050819055506001600360008473ffffffffffffffffffffffffffffffffffffffff1673ffffffffffffffffffffffffffffffffffffffff16815260200190815260200160002060008282540192505081905550816002600083815260200190815260200160002060006101000a81548173ffffffffffffffffffffffffffffffffffffffff021916908373ffffffffffffffffffffffffffffffffffffffff160217905550808273ffffffffffffffffffffffffffffffffffffffff168473ffffffffffffffffffffffffffffffffffffffff167fddf252ad1be2c89b69c2b068fc378daa952ba7f163c4a11628f55a4df523b3ef60405160405180910390a46138e68383836001613ea5565b505050565b60006002600083815260200190815260200160002060009054906101000a900473ffffffffffffffffffffffffffffffffffffffff169050919050565b61393061349c565b73ffffffffffffffffffffffffffffffffffffffff1661394e611eb5565b73ffffffffffffffffffffffffffffffffffffffff16146139a4576040517f08c379a000000000000000000000000000000000000000000000000000000000815260040161399b9061592d565b60405180910390fd5b565b6000600760009054906101000a900473ffffffffffffffffffffffffffffffffffffffff16905081600760006101000a81548173ffffffffffffffffffffffffffffffffffffffff021916908373ffffffffffffffffffffffffffffffffffffffff1602179055508173ffffffffffffffffffffffffffffffffffffffff168173ffffffffffffffffffffffffffffffffffffffff167f8be0079c531659141344cd1fd0a4f28419497f9722a3daafe3b4186f6b6457e060405160405180910390a35050565b8173ffffffffffffffffffffffffffffffffffffffff168373ffffffffffffffffffffffffffffffffffffffff1603613ada576040517f08c379a0000000000000000000000000000000000000000000000000000000008152600401613ad190615999565b60405180910390fd5b80600560008573ffffffffffffffffffffffffffffffffffffffff1673ffffffffffffffffffffffffffffffffffffffff16815260200190815260200160002060008473ffffffffffffffffffffffffffffffffffffffff1673ffffffffffffffffffffffffffffffffffffffff16815260200190815260200160002060006101000a81548160ff0219169083151502179055508173ffffffffffffffffffffffffffffffffffffffff168373ffffffffffffffffffffffffffffffffffffffff167f17307eab39ab6107e8899845ad3d59bd9653f200f220920489ca2b5937696c3183604051613bcb9190614605565b60405180910390a3505050565b613be38484846135f2565b613bef84848484613eab565b613c2e576040517f08c379a0000000000000000000000000000000000000000000000000000000008152600401613c2590615a2b565b60405180910390fd5b50505050565b606060405180602001604052806000815250905090565b6060613c5682613451565b6000613c60613c34565b90506000815111613c805760405180602001604052806000815250613cab565b80613c8a84614032565b604051602001613c9b929190615528565b6040516020818303038152906040525b915050919050565b613ccd828260405180602001604052806000815250614100565b5050565b613cda82613d3e565b613d19576040517f08c379a0000000000000000000000000000000000000000000000000000000008152600401613d1090615abd565b60405180910390fd5b80600660008481526020019081526020016000209081613d399190615c89565b505050565b60008073ffffffffffffffffffffffffffffffffffffffff16613d60836138eb565b73ffffffffffffffffffffffffffffffffffffffff1614159050919050565b6001811115613e9f57600073ffffffffffffffffffffffffffffffffffffffff168473ffffffffffffffffffffffffffffffffffffffff1614613e135780600360008673ffffffffffffffffffffffffffffffffffffffff1673ffffffffffffffffffffffffffffffffffffffff1681526020019081526020016000206000828254613e0b9190615d5b565b925050819055505b600073ffffffffffffffffffffffffffffffffffffffff168373ffffffffffffffffffffffffffffffffffffffff1614613e9e5780600360008573ffffffffffffffffffffffffffffffffffffffff1673ffffffffffffffffffffffffffffffffffffffff1681526020019081526020016000206000828254613e969190615d8f565b925050819055505b5b50505050565b50505050565b6000613ecc8473ffffffffffffffffffffffffffffffffffffffff1661415b565b15614025578373ffffffffffffffffffffffffffffffffffffffff1663150b7a02613ef561349c565b8786866040518563ffffffff1660e01b8152600401613f179493929190615e18565b6020604051808303816000875af1925050508015613f5357506040513d601f19601f82011682018060405250810190613f509190615e79565b60015b613fd5573d8060008114613f83576040519150601f19603f3d011682016040523d82523d6000602084013e613f88565b606091505b506000815103613fcd576040517f08c379a0000000000000000000000000000000000000000000000000000000008152600401613fc490615a2b565b60405180910390fd5b805181602001fd5b63150b7a0260e01b7bffffffffffffffffffffffffffffffffffffffffffffffffffffffff1916817bffffffffffffffffffffffffffffffffffffffffffffffffffffffff19161491505061402a565b600190505b949350505050565b6060600060016140418461417e565b01905060008167ffffffffffffffff8111156140605761405f614b19565b5b6040519080825280601f01601f1916602001820160405280156140925781602001600182028036833780820191505090505b509050600082602001820190505b6001156140f5578080600190039150507f3031323334353637383961626364656600000000000000000000000000000000600a86061a8153600a85816140e9576140e8615ea6565b5b049450600085036140a0575b819350505050919050565b61410a83836142d1565b6141176000848484613eab565b614156576040517f08c379a000000000000000000000000000000000000000000000000000000000815260040161414d90615a2b565b60405180910390fd5b505050565b6000808273ffffffffffffffffffffffffffffffffffffffff163b119050919050565b600080600090507a184f03e93ff9f4daa797ed6e38ed64bf6a1f01000000000000000083106141dc577a184f03e93ff9f4daa797ed6e38ed64bf6a1f01000000000000000083816141d2576141d1615ea6565b5b0492506040810190505b6d04ee2d6d415b85acef81000000008310614219576d04ee2d6d415b85acef8100000000838161420f5761420e615ea6565b5b0492506020810190505b662386f26fc10000831061424857662386f26fc10000838161423e5761423d615ea6565b5b0492506010810190505b6305f5e1008310614271576305f5e100838161426757614266615ea6565b5b0492506008810190505b612710831061429657612710838161428c5761428b615ea6565b5b0492506004810190505b606483106142b957606483816142af576142ae615ea6565b5b0492506002810190505b600a83106142c8576001810190505b80915050919050565b600073ffffffffffffffffffffffffffffffffffffffff168273ffffffffffffffffffffffffffffffffffffffff1603614340576040517f08c379a000000000000000000000000000000000000000000000000000000000815260040161433790615f21565b60405180910390fd5b61434981613d3e565b15614389576040517f08c379a000000000000000000000000000000000000000000000000000000000815260040161438090615f8d565b60405180910390fd5b614397600083836001613d7f565b6143a081613d3e565b156143e0576040517f08c379a00000000000000000000000000000000000000000000000000000000081526004016143d790615f8d565b60405180910390fd5b6001600360008473ffffffffffffffffffffffffffffffffffffffff1673ffffffffffffffffffffffffffffffffffffffff16815260200190815260200160002060008282540192505081905550816002600083815260200190815260200160002060006101000a81548173ffffffffffffffffffffffffffffffffffffffff021916908373ffffffffffffffffffffffffffffffffffffffff160217905550808273ffffffffffffffffffffffffffffffffffffffff16600073ffffffffffffffffffffffffffffffffffffffff167fddf252ad1be2c89b69c2b068fc378daa952ba7f163c4a11628f55a4df523b3ef60405160405180910390a46144ea600083836001613ea5565b5050565b6000604051905090565b600080fd5b600080fd5b6000819050919050565b61451581614502565b811461452057600080fd5b50565b6000813590506145328161450c565b92915050565b60006020828403121561454e5761454d6144f8565b5b600061455c84828501614523565b91505092915050565b60007fffffffff0000000000000000000000000000000000000000000000000000000082169050919050565b61459a81614565565b81146145a557600080fd5b50565b6000813590506145b781614591565b92915050565b6000602082840312156145d3576145d26144f8565b5b60006145e1848285016145a8565b91505092915050565b60008115159050919050565b6145ff816145ea565b82525050565b600060208201905061461a60008301846145f6565b92915050565b600081519050919050565b600082825260208201905092915050565b60005b8381101561465a57808201518184015260208101905061463f565b60008484015250505050565b6000601f19601f8301169050919050565b600061468282614620565b61468c818561462b565b935061469c81856020860161463c565b6146a581614666565b840191505092915050565b600060208201905081810360008301526146ca8184614677565b905092915050565b600073ffffffffffffffffffffffffffffffffffffffff82169050919050565b60006146fd826146d2565b9050919050565b61470d816146f2565b82525050565b60006020820190506147286000830184614704565b92915050565b614737816146f2565b811461474257600080fd5b50565b6000813590506147548161472e565b92915050565b60008060408385031215614771576147706144f8565b5b600061477f85828601614745565b925050602061479085828601614523565b9150509250929050565b6147a381614502565b82525050565b60006020820190506147be600083018461479a565b92915050565b6000610100820190506147da600083018b614704565b6147e7602083018a61479a565b6147f460408301896145f6565b614801606083018861479a565b61480e60808301876145f6565b61481b60a08301866145f6565b61482860c0830185614704565b61483560e083018461479a565b9998505050505050505050565b60008060006060848603121561485b5761485a6144f8565b5b600061486986828701614745565b935050602061487a86828701614745565b925050604061488b86828701614523565b9150509250925092565b600081519050919050565b600082825260208201905092915050565b6000819050602082019050919050565b6148ca816146f2565b82525050565b6148d981614502565b82525050565b6148e8816145ea565b82525050565b6101008201600082015161490560008501826148c1565b50602082015161491860208501826148d0565b50604082015161492b60408501826148df565b50606082015161493e60608501826148d0565b50608082015161495160808501826148df565b5060a082015161496460a08501826148df565b5060c082015161497760c08501826148c1565b5060e082015161498a60e08501826148d0565b50505050565b600061499c83836148ee565b6101008301905092915050565b6000602082019050919050565b60006149c182614895565b6149cb81856148a0565b93506149d6836148b1565b8060005b83811015614a075781516149ee8882614990565b97506149f9836149a9565b9250506001810190506149da565b5085935050505092915050565b60006020820190508181036000830152614a2e81846149b6565b905092915050565b600060208284031215614a4c57614a4b6144f8565b5b6000614a5a84828501614745565b91505092915050565b60008060408385031215614a7a57614a796144f8565b5b6000614a8885828601614523565b9250506020614a9985828601614523565b9150509250929050565b614aac816145ea565b8114614ab757600080fd5b50565b600081359050614ac981614aa3565b92915050565b60008060408385031215614ae657614ae56144f8565b5b6000614af485828601614745565b9250506020614b0585828601614aba565b9150509250929050565b600080fd5b600080fd5b7f4e487b7100000000000000000000000000000000000000000000000000000000600052604160045260246000fd5b614b5182614666565b810181811067ffffffffffffffff82111715614b7057614b6f614b19565b5b80604052505050565b6000614b836144ee565b9050614b8f8282614b48565b919050565b600067ffffffffffffffff821115614baf57614bae614b19565b5b614bb882614666565b9050602081019050919050565b82818337600083830152505050565b6000614be7614be284614b94565b614b79565b905082815260208101848484011115614c0357614c02614b14565b5b614c0e848285614bc5565b509392505050565b600082601f830112614c2b57614c2a614b0f565b5b8135614c3b848260208601614bd4565b91505092915050565b60008060008060808587031215614c5e57614c5d6144f8565b5b6000614c6c87828801614745565b9450506020614c7d87828801614745565b9350506040614c8e87828801614523565b925050606085013567ffffffffffffffff811115614caf57614cae6144fd565b5b614cbb87828801614c16565b91505092959194509250565b600067ffffffffffffffff821115614ce257614ce1614b19565b5b614ceb82614666565b9050602081019050919050565b6000614d0b614d0684614cc7565b614b79565b905082815260208101848484011115614d2757614d26614b14565b5b614d32848285614bc5565b509392505050565b600082601f830112614d4f57614d4e614b0f565b5b8135614d5f848260208601614cf8565b91505092915050565b600060208284031215614d7e57614d7d6144f8565b5b600082013567ffffffffffffffff811115614d9c57614d9b6144fd565b5b614da884828501614d3a565b91505092915050565b60008060408385031215614dc857614dc76144f8565b5b6000614dd685828601614745565b9250506020614de785828601614745565b9150509250929050565b600081519050919050565b600082825260208201905092915050565b6000819050602082019050919050565b6000614e2983836148d0565b60208301905092915050565b6000602082019050919050565b6000614e4d82614df1565b614e578185614dfc565b9350614e6283614e0d565b8060005b83811015614e93578151614e7a8882614e1d565b9750614e8583614e35565b925050600181019050614e66565b5085935050505092915050565b60006020820190508181036000830152614eba8184614e42565b905092915050565b7f596f752068617665206e6f207065726d697373696f6e20696e2074686973207460008201527f7261646500000000000000000000000000000000000000000000000000000000602082015250565b6000614f1e60248361462b565b9150614f2982614ec2565b604082019050919050565b60006020820190508181036000830152614f4d81614f11565b9050919050565b7f4e487b7100000000000000000000000000000000000000000000000000000000600052602260045260246000fd5b60006002820490506001821680614f9b57607f821691505b602082108103614fae57614fad614f54565b5b50919050565b7f4552433732313a20617070726f76616c20746f2063757272656e74206f776e6560008201527f7200000000000000000000000000000000000000000000000000000000000000602082015250565b600061501060218361462b565b915061501b82614fb4565b604082019050919050565b6000602082019050818103600083015261503f81615003565b9050919050565b7f4552433732313a20617070726f76652063616c6c6572206973206e6f7420746f60008201527f6b656e206f776e6572206f7220617070726f76656420666f7220616c6c000000602082015250565b60006150a2603d8361462b565b91506150ad82615046565b604082019050919050565b600060208201905081810360008301526150d181615095565b9050919050565b7f547261646520656e64656420616c726561647900000000000000000000000000600082015250565b600061510e60138361462b565b9150615119826150d8565b602082019050919050565b6000602082019050818103600083015261513d81615101565b9050919050565b7f4552433732313a2063616c6c6572206973206e6f7420746f6b656e206f776e6560008201527f72206f7220617070726f76656400000000000000000000000000000000000000602082015250565b60006151a0602d8361462b565b91506151ab82615144565b604082019050919050565b600060208201905081810360008301526151cf81615193565b9050919050565b7f596f75206d757374206f776e2074686973204e465420696e206f72646572207460008201527f6f20747261646520697400000000000000000000000000000000000000000000602082015250565b6000615232602a8361462b565b915061523d826151d6565b604082019050919050565b6000602082019050818103600083015261526181615225565b9050919050565b7f596f752061726520616c72656164792074726164696e67202100000000000000600082015250565b600061529e60198361462b565b91506152a982615268565b602082019050919050565b600060208201905081810360008301526152cd81615291565b9050919050565b7f4e487b7100000000000000000000000000000000000000000000000000000000600052601160045260246000fd5b600061530e82614502565b91507fffffffffffffffffffffffffffffffffffffffffffffffffffffffffffffffff82036153405761533f6152d4565b5b600182019050919050565b7f4552433732313a20696e76616c696420746f6b656e2049440000000000000000600082015250565b600061538160188361462b565b915061538c8261534b565b602082019050919050565b600060208201905081810360008301526153b081615374565b9050919050565b7f4552433732313a2061646472657373207a65726f206973206e6f74206120766160008201527f6c6964206f776e65720000000000000000000000000000000000000000000000602082015250565b600061541360298361462b565b915061541e826153b7565b604082019050919050565b6000602082019050818103600083015261544281615406565b9050919050565b600060608201905061545e6000830186614704565b61546b6020830185614704565b615478604083018461479a565b949350505050565b7f596f752061726520616c72656164792074726164696e67202120000000000000600082015250565b60006154b6601a8361462b565b91506154c182615480565b602082019050919050565b600060208201905081810360008301526154e5816154a9565b9050919050565b600081905092915050565b600061550282614620565b61550c81856154ec565b935061551c81856020860161463c565b80840191505092915050565b600061553482856154f7565b915061554082846154f7565b91508190509392505050565b7f547261646520616c726561647920636f6d706c65746564000000000000000000600082015250565b600061558260178361462b565b915061558d8261554c565b602082019050919050565b600060208201905081810360008301526155b181615575565b9050919050565b7f5472616465206973206e6f7420617070726f7665640000000000000000000000600082015250565b60006155ee60158361462b565b91506155f9826155b8565b602082019050919050565b6000602082019050818103600083015261561d816155e1565b9050919050565b7f4e487b7100000000000000000000000000000000000000000000000000000000600052603260045260246000fd5b7f4d696e74696e67206973206e6f7420656e61626c650000000000000000000000600082015250565b600061568960158361462b565b915061569482615653565b602082019050919050565b600060208201905081810360008301526156b88161567c565b9050919050565b7f536f6c64204f7574202120000000000000000000000000000000000000000000600082015250565b60006156f5600b8361462b565b9150615700826156bf565b602082019050919050565b60006020820190508181036000830152615724816156e8565b9050919050565b7f4f776e61626c653a206e6577206f776e657220697320746865207a65726f206160008201527f6464726573730000000000000000000000000000000000000000000000000000602082015250565b600061578760268361462b565b91506157928261572b565b604082019050919050565b600060208201905081810360008301526157b68161577a565b9050919050565b7f4552433732313a207472616e736665722066726f6d20696e636f72726563742060008201527f6f776e6572000000000000000000000000000000000000000000000000000000602082015250565b600061581960258361462b565b9150615824826157bd565b604082019050919050565b600060208201905081810360008301526158488161580c565b9050919050565b7f4552433732313a207472616e7366657220746f20746865207a65726f2061646460008201527f7265737300000000000000000000000000000000000000000000000000000000602082015250565b60006158ab60248361462b565b91506158b68261584f565b604082019050919050565b600060208201905081810360008301526158da8161589e565b9050919050565b7f4f776e61626c653a2063616c6c6572206973206e6f7420746865206f776e6572600082015250565b600061591760208361462b565b9150615922826158e1565b602082019050919050565b600060208201905081810360008301526159468161590a565b9050919050565b7f4552433732313a20617070726f766520746f2063616c6c657200000000000000600082015250565b600061598360198361462b565b915061598e8261594d565b602082019050919050565b600060208201905081810360008301526159b281615976565b9050919050565b7f4552433732313a207472616e7366657220746f206e6f6e20455243373231526560008201527f63656976657220696d706c656d656e7465720000000000000000000000000000602082015250565b6000615a1560328361462b565b9150615a20826159b9565b604082019050919050565b60006020820190508181036000830152615a4481615a08565b9050919050565b7f45524337323155524953746f726167653a2055524920736574206f66206e6f6e60008201527f6578697374656e7420746f6b656e000000000000000000000000000000000000602082015250565b6000615aa7602e8361462b565b9150615ab282615a4b565b604082019050919050565b60006020820190508181036000830152615ad681615a9a565b9050919050565b60008190508160005260206000209050919050565b60006020601f8301049050919050565b600082821b905092915050565b600060088302615b3f7fffffffffffffffffffffffffffffffffffffffffffffffffffffffffffffffff82615b02565b615b498683615b02565b95508019841693508086168417925050509392505050565b6000819050919050565b6000615b86615b81615b7c84614502565b615b61565b614502565b9050919050565b6000819050919050565b615ba083615b6b565b615bb4615bac82615b8d565b848454615b0f565b825550505050565b600090565b615bc9615bbc565b615bd4818484615b97565b505050565b5b81811015615bf857615bed600082615bc1565b600181019050615bda565b5050565b601f821115615c3d57615c0e81615add565b615c1784615af2565b81016020851015615c26578190505b615c3a615c3285615af2565b830182615bd9565b50505b505050565b600082821c905092915050565b6000615c6060001984600802615c42565b1980831691505092915050565b6000615c798383615c4f565b9150826002028217905092915050565b615c9282614620565b67ffffffffffffffff811115615cab57615caa614b19565b5b615cb58254614f83565b615cc0828285615bfc565b600060209050601f831160018114615cf35760008415615ce1578287015190505b615ceb8582615c6d565b865550615d53565b601f198416615d0186615add565b60005b82811015615d2957848901518255600182019150602085019450602081019050615d04565b86831015615d465784890151615d42601f891682615c4f565b8355505b6001600288020188555050505b505050505050565b6000615d6682614502565b9150615d7183614502565b9250828203905081811115615d8957615d886152d4565b5b92915050565b6000615d9a82614502565b9150615da583614502565b9250828201905080821115615dbd57615dbc6152d4565b5b92915050565b600081519050919050565b600082825260208201905092915050565b6000615dea82615dc3565b615df48185615dce565b9350615e0481856020860161463c565b615e0d81614666565b840191505092915050565b6000608082019050615e2d6000830187614704565b615e3a6020830186614704565b615e47604083018561479a565b8181036060830152615e598184615ddf565b905095945050505050565b600081519050615e7381614591565b92915050565b600060208284031215615e8f57615e8e6144f8565b5b6000615e9d84828501615e64565b91505092915050565b7f4e487b7100000000000000000000000000000000000000000000000000000000600052601260045260246000fd5b7f4552433732313a206d696e7420746f20746865207a65726f2061646472657373600082015250565b6000615f0b60208361462b565b9150615f1682615ed5565b602082019050919050565b60006020820190508181036000830152615f3a81615efe565b9050919050565b7f4552433732313a20746f6b656e20616c7265616479206d696e74656400000000600082015250565b6000615f77601c8361462b565b9150615f8282615f41565b602082019050919050565b60006020820190508181036000830152615fa681615f6a565b905091905056fea2646970667358221220c2286d5ca3ec63590a1bd240b5e10cc56f93dfb4b751b7e6d31064b99b11cec564736f6c63430008110033",
  "linkReferences": {},
  "deployedLinkReferences": {}
}