{
  "_format": "hh-sol-artifact-1",
  "contractName": "PokemonCards",
  "sourceName": "contracts/PokemonCards.sol",
  "abi": [
    {
      "inputs": [],
      "stateMutability": "payable",
      "type": "constructor"
    },
    {
      "anonymous": false,
      "inputs": [
        {
          "indexed": true,
          "internalType": "address",
          "name": "owner",
          "type": "address"
        },
        {
          "indexed": true,
          "internalType": "address",
          "name": "approved",
          "type": "address"
        },
        {
          "indexed": true,
          "internalType": "uint256",
          "name": "tokenId",
          "type": "uint256"
        }
      ],
      "name": "Approval",
      "type": "event"
    },
    {
      "anonymous": false,
      "inputs": [
        {
          "indexed": true,
          "internalType": "address",
          "name": "owner",
          "type": "address"
        },
        {
          "indexed": true,
          "internalType": "address",
          "name": "operator",
          "type": "address"
        },
        {
          "indexed": false,
          "internalType": "bool",
          "name": "approved",
          "type": "bool"
        }
      ],
      "name": "ApprovalForAll",
      "type": "event"
    },
    {
      "anonymous": false,
      "inputs": [
        {
          "indexed": true,
          "internalType": "address",
          "name": "_signer",
          "type": "address"
        },
        {
          "indexed": true,
          "internalType": "uint256",
          "name": "_id",
          "type": "uint256"
        }
      ],
      "name": "Bid",
      "type": "event"
    },
    {
      "anonymous": false,
      "inputs": [
        {
          "indexed": true,
          "internalType": "address",
          "name": "_signer",
          "type": "address"
        },
        {
          "indexed": true,
          "internalType": "uint256",
          "name": "_id",
          "type": "uint256"
        }
      ],
      "name": "Cancel",
      "type": "event"
    },
    {
      "anonymous": false,
      "inputs": [
        {
          "indexed": true,
          "internalType": "address",
          "name": "_signer",
          "type": "address"
        },
        {
          "indexed": true,
          "internalType": "uint256",
          "name": "_id",
          "type": "uint256"
        }
      ],
      "name": "CreatorConfirmed",
      "type": "event"
    },
    {
      "anonymous": false,
      "inputs": [
        {
          "indexed": true,
          "internalType": "address",
          "name": "_signer",
          "type": "address"
        },
        {
          "indexed": true,
          "internalType": "uint256",
          "name": "_id",
          "type": "uint256"
        }
      ],
      "name": "DealerConfirmed",
      "type": "event"
    },
    {
      "anonymous": false,
      "inputs": [
        {
          "indexed": true,
          "internalType": "address",
          "name": "_from",
          "type": "address"
        },
        {
          "indexed": true,
          "internalType": "address",
          "name": "_to",
          "type": "address"
        },
        {
          "indexed": true,
          "internalType": "uint256",
          "name": "_id",
          "type": "uint256"
        }
      ],
      "name": "FinalizeTrade",
      "type": "event"
    },
    {
      "anonymous": false,
      "inputs": [
        {
          "indexed": true,
          "internalType": "address",
          "name": "_signer",
          "type": "address"
        },
        {
          "indexed": true,
          "internalType": "uint256",
          "name": "_id",
          "type": "uint256"
        }
      ],
      "name": "Minted",
      "type": "event"
    },
    {
      "anonymous": false,
      "inputs": [
        {
          "indexed": true,
          "internalType": "address",
          "name": "previousOwner",
          "type": "address"
        },
        {
          "indexed": true,
          "internalType": "address",
          "name": "newOwner",
          "type": "address"
        }
      ],
      "name": "OwnershipTransferred",
      "type": "event"
    },
    {
      "anonymous": false,
      "inputs": [
        {
          "indexed": true,
          "internalType": "address",
          "name": "_signer",
          "type": "address"
        },
        {
          "indexed": true,
          "internalType": "uint256",
          "name": "_id",
          "type": "uint256"
        }
      ],
      "name": "TradeCreated",
      "type": "event"
    },
    {
      "anonymous": false,
      "inputs": [
        {
          "indexed": true,
          "internalType": "address",
          "name": "from",
          "type": "address"
        },
        {
          "indexed": true,
          "internalType": "address",
          "name": "to",
          "type": "address"
        },
        {
          "indexed": true,
          "internalType": "uint256",
          "name": "tokenId",
          "type": "uint256"
        }
      ],
      "name": "Transfer",
      "type": "event"
    },
    {
      "inputs": [
        {
          "internalType": "uint256",
          "name": "",
          "type": "uint256"
        }
      ],
      "name": "allTrades",
      "outputs": [
        {
          "internalType": "address",
          "name": "creator",
          "type": "address"
        },
        {
          "internalType": "uint256",
          "name": "creatorTokenId",
          "type": "uint256"
        },
        {
          "internalType": "bool",
          "name": "isCompleted",
          "type": "bool"
        },
        {
          "internalType": "uint256",
          "name": "tradeId",
          "type": "uint256"
        },
        {
          "internalType": "bool",
          "name": "creatorConfirm",
          "type": "bool"
        },
        {
          "internalType": "bool",
          "name": "dealerConfirm",
          "type": "bool"
        },
        {
          "internalType": "address",
          "name": "dealer",
          "type": "address"
        },
        {
          "internalType": "uint256",
          "name": "dealerTokenId",
          "type": "uint256"
        }
      ],
      "stateMutability": "view",
      "type": "function"
    },
    {
      "inputs": [
        {
          "internalType": "address",
          "name": "to",
          "type": "address"
        },
        {
          "internalType": "uint256",
          "name": "tokenId",
          "type": "uint256"
        }
      ],
      "name": "approve",
      "outputs": [],
      "stateMutability": "nonpayable",
      "type": "function"
    },
    {
      "inputs": [
        {
          "internalType": "uint256",
          "name": "_tradeId",
          "type": "uint256"
        }
      ],
      "name": "approveTrade",
      "outputs": [],
      "stateMutability": "payable",
      "type": "function"
    },
    {
      "inputs": [
        {
          "internalType": "address",
          "name": "owner",
          "type": "address"
        }
      ],
      "name": "balanceOf",
      "outputs": [
        {
          "internalType": "uint256",
          "name": "",
          "type": "uint256"
        }
      ],
      "stateMutability": "view",
      "type": "function"
    },
    {
      "inputs": [
        {
          "internalType": "uint256",
          "name": "_tradeId",
          "type": "uint256"
        },
        {
          "internalType": "uint256",
          "name": "_delaerTokenId",
          "type": "uint256"
        }
      ],
      "name": "bidTrade",
      "outputs": [],
      "stateMutability": "payable",
      "type": "function"
    },
    {
      "inputs": [
        {
          "internalType": "uint256",
          "name": "_tradeId",
          "type": "uint256"
        }
      ],
      "name": "cancelTrade",
      "outputs": [],
      "stateMutability": "payable",
      "type": "function"
    },
    {
      "inputs": [
        {
          "internalType": "uint256",
          "name": "_tradeId",
          "type": "uint256"
        }
      ],
      "name": "finalizeTrade",
      "outputs": [],
      "stateMutability": "payable",
      "type": "function"
    },
    {
      "inputs": [
        {
          "internalType": "address",
          "name": "_addr",
          "type": "address"
        }
      ],
      "name": "getAll",
      "outputs": [
        {
          "internalType": "uint256[]",
          "name": "",
          "type": "uint256[]"
        }
      ],
      "stateMutability": "view",
      "type": "function"
    },
    {
      "inputs": [],
      "name": "getAlltrades",
      "outputs": [
        {
          "internalType": "uint256",
          "name": "",
          "type": "uint256"
        }
      ],
      "stateMutability": "view",
      "type": "function"
    },
    {
      "inputs": [
        {
          "internalType": "uint256",
          "name": "tokenId",
          "type": "uint256"
        }
      ],
      "name": "getApproved",
      "outputs": [
        {
          "internalType": "address",
          "name": "",
          "type": "address"
        }
      ],
      "stateMutability": "view",
      "type": "function"
    },
    {
      "inputs": [
        {
          "internalType": "address",
          "name": "owner",
          "type": "address"
        },
        {
          "internalType": "address",
          "name": "operator",
          "type": "address"
        }
      ],
      "name": "isApprovedForAll",
      "outputs": [
        {
          "internalType": "bool",
          "name": "",
          "type": "bool"
        }
      ],
      "stateMutability": "view",
      "type": "function"
    },
    {
      "inputs": [
        {
          "internalType": "address",
          "name": "",
          "type": "address"
        }
      ],
      "name": "isTrading",
      "outputs": [
        {
          "internalType": "bool",
          "name": "",
          "type": "bool"
        }
      ],
      "stateMutability": "view",
      "type": "function"
    },
    {
      "inputs": [],
      "name": "maxSupply",
      "outputs": [
        {
          "internalType": "uint256",
          "name": "",
          "type": "uint256"
        }
      ],
      "stateMutability": "view",
      "type": "function"
    },
    {
      "inputs": [
        {
          "internalType": "string",
          "name": "tokenURI",
          "type": "string"
        }
      ],
      "name": "mint",
      "outputs": [],
      "stateMutability": "payable",
      "type": "function"
    },
    {
      "inputs": [
        {
          "internalType": "address",
          "name": "",
          "type": "address"
        }
      ],
      "name": "mintedWallets",
      "outputs": [
        {
          "internalType": "uint256",
          "name": "",
          "type": "uint256"
        }
      ],
      "stateMutability": "view",
      "type": "function"
    },
    {
      "inputs": [],
      "name": "name",
      "outputs": [
        {
          "internalType": "string",
          "name": "",
          "type": "string"
        }
      ],
      "stateMutability": "view",
      "type": "function"
    },
    {
      "inputs": [
        {
          "internalType": "address",
          "name": "",
          "type": "address"
        },
        {
          "internalType": "uint256",
          "name": "",
          "type": "uint256"
        }
      ],
      "name": "ownedNfts",
      "outputs": [
        {
          "internalType": "uint256",
          "name": "",
          "type": "uint256"
        }
      ],
      "stateMutability": "view",
      "type": "function"
    },
    {
      "inputs": [],
      "name": "owner",
      "outputs": [
        {
          "internalType": "address",
          "name": "",
          "type": "address"
        }
      ],
      "stateMutability": "view",
      "type": "function"
    },
    {
      "inputs": [
        {
          "internalType": "uint256",
          "name": "tokenId",
          "type": "uint256"
        }
      ],
      "name": "ownerOf",
      "outputs": [
        {
          "internalType": "address",
          "name": "",
          "type": "address"
        }
      ],
      "stateMutability": "view",
      "type": "function"
    },
    {
      "inputs": [],
      "name": "renounceOwnership",
      "outputs": [],
      "stateMutability": "nonpayable",
      "type": "function"
    },
    {
      "inputs": [
        {
          "internalType": "address",
          "name": "from",
          "type": "address"
        },
        {
          "internalType": "address",
          "name": "to",
          "type": "address"
        },
        {
          "internalType": "uint256",
          "name": "tokenId",
          "type": "uint256"
        }
      ],
      "name": "safeTransferFrom",
      "outputs": [],
      "stateMutability": "nonpayable",
      "type": "function"
    },
    {
      "inputs": [
        {
          "internalType": "address",
          "name": "from",
          "type": "address"
        },
        {
          "internalType": "address",
          "name": "to",
          "type": "address"
        },
        {
          "internalType": "uint256",
          "name": "tokenId",
          "type": "uint256"
        },
        {
          "internalType": "bytes",
          "name": "data",
          "type": "bytes"
        }
      ],
      "name": "safeTransferFrom",
      "outputs": [],
      "stateMutability": "nonpayable",
      "type": "function"
    },
    {
      "inputs": [
        {
          "internalType": "address",
          "name": "operator",
          "type": "address"
        },
        {
          "internalType": "bool",
          "name": "approved",
          "type": "bool"
        }
      ],
      "name": "setApprovalForAll",
      "outputs": [],
      "stateMutability": "nonpayable",
      "type": "function"
    },
    {
      "inputs": [
        {
          "internalType": "uint256",
          "name": "_maxSupply",
          "type": "uint256"
        }
      ],
      "name": "setMaxSupply",
      "outputs": [],
      "stateMutability": "nonpayable",
      "type": "function"
    },
    {
      "inputs": [
        {
          "internalType": "uint256",
          "name": "_creatorTokenId",
          "type": "uint256"
        }
      ],
      "name": "setTrade",
      "outputs": [],
      "stateMutability": "payable",
      "type": "function"
    },
    {
      "inputs": [
        {
          "internalType": "bytes4",
          "name": "interfaceId",
          "type": "bytes4"
        }
      ],
      "name": "supportsInterface",
      "outputs": [
        {
          "internalType": "bool",
          "name": "",
          "type": "bool"
        }
      ],
      "stateMutability": "view",
      "type": "function"
    },
    {
      "inputs": [],
      "name": "symbol",
      "outputs": [
        {
          "internalType": "string",
          "name": "",
          "type": "string"
        }
      ],
      "stateMutability": "view",
      "type": "function"
    },
    {
      "inputs": [
        {
          "internalType": "uint256",
          "name": "tokenId",
          "type": "uint256"
        }
      ],
      "name": "tokenURI",
      "outputs": [
        {
          "internalType": "string",
          "name": "",
          "type": "string"
        }
      ],
      "stateMutability": "view",
      "type": "function"
    },
    {
      "inputs": [],
      "name": "totalSupply",
      "outputs": [
        {
          "internalType": "uint256",
          "name": "",
          "type": "uint256"
        }
      ],
      "stateMutability": "view",
      "type": "function"
    },
    {
      "inputs": [],
      "name": "totalTrades",
      "outputs": [
        {
          "internalType": "uint256",
          "name": "",
          "type": "uint256"
        }
      ],
      "stateMutability": "view",
      "type": "function"
    },
    {
      "inputs": [
        {
          "internalType": "uint256",
          "name": "",
          "type": "uint256"
        }
      ],
      "name": "trades",
      "outputs": [
        {
          "internalType": "address",
          "name": "creator",
          "type": "address"
        },
        {
          "internalType": "uint256",
          "name": "creatorTokenId",
          "type": "uint256"
        },
        {
          "internalType": "bool",
          "name": "isCompleted",
          "type": "bool"
        },
        {
          "internalType": "uint256",
          "name": "tradeId",
          "type": "uint256"
        },
        {
          "internalType": "bool",
          "name": "creatorConfirm",
          "type": "bool"
        },
        {
          "internalType": "bool",
          "name": "dealerConfirm",
          "type": "bool"
        },
        {
          "internalType": "address",
          "name": "dealer",
          "type": "address"
        },
        {
          "internalType": "uint256",
          "name": "dealerTokenId",
          "type": "uint256"
        }
      ],
      "stateMutability": "view",
      "type": "function"
    },
    {
      "inputs": [
        {
          "internalType": "address",
          "name": "from",
          "type": "address"
        },
        {
          "internalType": "address",
          "name": "to",
          "type": "address"
        },
        {
          "internalType": "uint256",
          "name": "tokenId",
          "type": "uint256"
        }
      ],
      "name": "transferFrom",
      "outputs": [],
      "stateMutability": "nonpayable",
      "type": "function"
    },
    {
      "inputs": [
        {
          "internalType": "address",
          "name": "newOwner",
          "type": "address"
        }
      ],
      "name": "transferOwnership",
      "outputs": [],
      "stateMutability": "nonpayable",
      "type": "function"
    },
    {
      "inputs": [
        {
          "internalType": "address",
          "name": "",
          "type": "address"
        },
        {
          "internalType": "uint256",
          "name": "",
          "type": "uint256"
        }
      ],
      "name": "userTrades",
      "outputs": [
        {
          "internalType": "address",
          "name": "creator",
          "type": "address"
        },
        {
          "internalType": "uint256",
          "name": "creatorTokenId",
          "type": "uint256"
        },
        {
          "internalType": "bool",
          "name": "isCompleted",
          "type": "bool"
        },
        {
          "internalType": "uint256",
          "name": "tradeId",
          "type": "uint256"
        },
        {
          "internalType": "bool",
          "name": "creatorConfirm",
          "type": "bool"
        },
        {
          "internalType": "bool",
          "name": "dealerConfirm",
          "type": "bool"
        },
        {
          "internalType": "address",
          "name": "dealer",
          "type": "address"
        },
        {
          "internalType": "uint256",
          "name": "dealerTokenId",
          "type": "uint256"
        }
      ],
      "stateMutability": "view",
      "type": "function"
    }
  ],
  "bytecode": "0x60806040526000600d556040518060400160405280600c81526020017f506f6b656d6f6e204361726400000000000000000000000000000000000000008152506040518060400160405280600481526020017f504f4b4500000000000000000000000000000000000000000000000000000000815250816000908162000086919062000414565b50806001908162000098919062000414565b505050620000bb620000af620000cc60201b60201c565b620000d460201b60201c565b6305f5e0ff600981905550620004fb565b600033905090565b6000600760009054906101000a900473ffffffffffffffffffffffffffffffffffffffff16905081600760006101000a81548173ffffffffffffffffffffffffffffffffffffffff021916908373ffffffffffffffffffffffffffffffffffffffff1602179055508173ffffffffffffffffffffffffffffffffffffffff168173ffffffffffffffffffffffffffffffffffffffff167f8be0079c531659141344cd1fd0a4f28419497f9722a3daafe3b4186f6b6457e060405160405180910390a35050565b600081519050919050565b7f4e487b7100000000000000000000000000000000000000000000000000000000600052604160045260246000fd5b7f4e487b7100000000000000000000000000000000000000000000000000000000600052602260045260246000fd5b600060028204905060018216806200021c57607f821691505b602082108103620002325762000231620001d4565b5b50919050565b60008190508160005260206000209050919050565b60006020601f8301049050919050565b600082821b905092915050565b6000600883026200029c7fffffffffffffffffffffffffffffffffffffffffffffffffffffffffffffffff826200025d565b620002a886836200025d565b95508019841693508086168417925050509392505050565b6000819050919050565b6000819050919050565b6000620002f5620002ef620002e984620002c0565b620002ca565b620002c0565b9050919050565b6000819050919050565b6200031183620002d4565b620003296200032082620002fc565b8484546200026a565b825550505050565b600090565b6200034062000331565b6200034d81848462000306565b505050565b5b8181101562000375576200036960008262000336565b60018101905062000353565b5050565b601f821115620003c4576200038e8162000238565b62000399846200024d565b81016020851015620003a9578190505b620003c1620003b8856200024d565b83018262000352565b50505b505050565b600082821c905092915050565b6000620003e960001984600802620003c9565b1980831691505092915050565b6000620004048383620003d6565b9150826002028217905092915050565b6200041f826200019a565b67ffffffffffffffff8111156200043b576200043a620001a5565b5b62000447825462000203565b6200045482828562000379565b600060209050601f8311600181146200048c576000841562000477578287015190505b620004838582620003f6565b865550620004f3565b601f1984166200049c8662000238565b60005b82811015620004c6578489015182556001820191506020850194506020810190506200049f565b86831015620004e65784890151620004e2601f891682620003d6565b8355505b6001600288020188555050505b505050505050565b615f71806200050b6000396000f3fe6080604052600436106101f95760003560e01c806370a082311161010d578063b88d4fde116100a0578063d85d3d271161006f578063d85d3d271461074d578063e275c99714610769578063e985e9c514610794578063eb077342146107d1578063f2fde38b1461080e576101f9565b8063b88d4fde146106a0578063c87b56dd146106c9578063d58c71a514610706578063d5abeb0114610722576101f9565b8063992cb636116100dc578063992cb636146105da578063a22cb465146105f6578063ada7c4ed1461061f578063b1b1ffab1461065c576101f9565b806370a0823114610530578063715018a61461056d5780638da5cb5b1461058457806395d89b41146105af576101f9565b806323b872dd1161019057806347ca9c331161015f57806347ca9c331461042d5780635d6bc62c14610471578063605df800146104ae5780636352211e146104ca5780636f8b44b014610507576101f9565b806323b872dd14610373578063309115901461039c5780633d9a3479146103c757806342842e0e14610404576101f9565b8063095ea7b3116101cc578063095ea7b3146102bf57806309ec6cc7146102e857806318160ddd146103045780631e6c598e1461032f576101f9565b806301663e59146101fe57806301ffc9a71461021a57806306fdde0314610257578063081812fc14610282575b600080fd5b6102186004803603810190610213919061460c565b610837565b005b34801561022657600080fd5b50610241600480360381019061023c9190614691565b610bdd565b60405161024e91906146d9565b60405180910390f35b34801561026357600080fd5b5061026c610cbf565b6040516102799190614784565b60405180910390f35b34801561028e57600080fd5b506102a960048036038101906102a4919061460c565b610d51565b6040516102b691906147e7565b60405180910390f35b3480156102cb57600080fd5b506102e660048036038101906102e1919061482e565b610d97565b005b61030260048036038101906102fd919061460c565b610eae565b005b34801561031057600080fd5b50610319611423565b604051610326919061487d565b60405180910390f35b34801561033b57600080fd5b506103566004803603810190610351919061460c565b611429565b60405161036a989796959493929190614898565b60405180910390f35b34801561037f57600080fd5b5061039a60048036038101906103959190614916565b6114d8565b005b3480156103a857600080fd5b506103b1611538565b6040516103be919061487d565b60405180910390f35b3480156103d357600080fd5b506103ee60048036038101906103e9919061482e565b611545565b6040516103fb919061487d565b60405180910390f35b34801561041057600080fd5b5061042b60048036038101906104269190614916565b611576565b005b34801561043957600080fd5b50610454600480360381019061044f919061460c565b611596565b604051610468989796959493929190614898565b60405180910390f35b34801561047d57600080fd5b5061049860048036038101906104939190614969565b611655565b6040516104a591906146d9565b60405180910390f35b6104c860048036038101906104c3919061460c565b611675565b005b3480156104d657600080fd5b506104f160048036038101906104ec919061460c565b611d80565b6040516104fe91906147e7565b60405180910390f35b34801561051357600080fd5b5061052e6004803603810190610529919061460c565b611e06565b005b34801561053c57600080fd5b5061055760048036038101906105529190614969565b611e18565b604051610564919061487d565b60405180910390f35b34801561057957600080fd5b50610582611ecf565b005b34801561059057600080fd5b50610599611ee3565b6040516105a691906147e7565b60405180910390f35b3480156105bb57600080fd5b506105c4611f0d565b6040516105d19190614784565b60405180910390f35b6105f460048036038101906105ef9190614996565b611f9f565b005b34801561060257600080fd5b5061061d60048036038101906106189190614a02565b6123b3565b005b34801561062b57600080fd5b5061064660048036038101906106419190614969565b6123c9565b604051610653919061487d565b60405180910390f35b34801561066857600080fd5b50610683600480360381019061067e919061482e565b6123e1565b604051610697989796959493929190614898565b60405180910390f35b3480156106ac57600080fd5b506106c760048036038101906106c29190614b77565b6124ad565b005b3480156106d557600080fd5b506106f060048036038101906106eb919061460c565b61250f565b6040516106fd9190614784565b60405180910390f35b610720600480360381019061071b919061460c565b612621565b005b34801561072e57600080fd5b50610737613149565b604051610744919061487d565b60405180910390f35b61076760048036038101906107629190614c9b565b61314f565b005b34801561077557600080fd5b5061077e613307565b60405161078b919061487d565b60405180910390f35b3480156107a057600080fd5b506107bb60048036038101906107b69190614ce4565b61330d565b6040516107c891906146d9565b60405180910390f35b3480156107dd57600080fd5b506107f860048036038101906107f39190614969565b6133a1565b6040516108059190614de2565b60405180910390f35b34801561081a57600080fd5b5061083560048036038101906108309190614969565b613438565b005b600e600082815260200190815260200160002060000160009054906101000a900473ffffffffffffffffffffffffffffffffffffffff1673ffffffffffffffffffffffffffffffffffffffff163373ffffffffffffffffffffffffffffffffffffffff1614806109085750600e600082815260200190815260200160002060040160029054906101000a900473ffffffffffffffffffffffffffffffffffffffff1673ffffffffffffffffffffffffffffffffffffffff163373ffffffffffffffffffffffffffffffffffffffff16145b610947576040517f08c379a000000000000000000000000000000000000000000000000000000000815260040161093e90614e76565b60405180910390fd5b600e600082815260200190815260200160002060000160009054906101000a900473ffffffffffffffffffffffffffffffffffffffff1673ffffffffffffffffffffffffffffffffffffffff163373ffffffffffffffffffffffffffffffffffffffff1603610a925760001515600e600083815260200190815260200160002060040160009054906101000a900460ff16151514610a1a576040517f08c379a0000000000000000000000000000000000000000000000000000000008152600401610a1190614f08565b60405180910390fd5b6001600e600083815260200190815260200160002060040160006101000a81548160ff021916908315150217905550803373ffffffffffffffffffffffffffffffffffffffff167f3a1969ca46669a3f66a53a2135981b18fb515a84547134f620f6909a9e77420360405160405180910390a3610bda565b600e600082815260200190815260200160002060040160029054906101000a900473ffffffffffffffffffffffffffffffffffffffff1673ffffffffffffffffffffffffffffffffffffffff163373ffffffffffffffffffffffffffffffffffffffff1603610bd95760001515600e600083815260200190815260200160002060040160019054906101000a900460ff16151514610b65576040517f08c379a0000000000000000000000000000000000000000000000000000000008152600401610b5c90614f08565b60405180910390fd5b6001600e600083815260200190815260200160002060040160016101000a81548160ff021916908315150217905550803373ffffffffffffffffffffffffffffffffffffffff167f647aff22ae177d03066d9a153943a8fe57e44a8dd0f1a47a2b7b6aebbf3173c660405160405180910390a35b5b50565b60007f80ac58cd000000000000000000000000000000000000000000000000000000007bffffffffffffffffffffffffffffffffffffffffffffffffffffffff1916827bffffffffffffffffffffffffffffffffffffffffffffffffffffffff19161480610ca857507f5b5e139f000000000000000000000000000000000000000000000000000000007bffffffffffffffffffffffffffffffffffffffffffffffffffffffff1916827bffffffffffffffffffffffffffffffffffffffffffffffffffffffff1916145b80610cb85750610cb7826134bb565b5b9050919050565b606060008054610cce90614f57565b80601f0160208091040260200160405190810160405280929190818152602001828054610cfa90614f57565b8015610d475780601f10610d1c57610100808354040283529160200191610d47565b820191906000526020600020905b815481529060010190602001808311610d2a57829003601f168201915b5050505050905090565b6000610d5c82613525565b6004600083815260200190815260200160002060009054906101000a900473ffffffffffffffffffffffffffffffffffffffff169050919050565b6000610da282611d80565b90508073ffffffffffffffffffffffffffffffffffffffff168373ffffffffffffffffffffffffffffffffffffffff1603610e12576040517f08c379a0000000000000000000000000000000000000000000000000000000008152600401610e0990614ffa565b60405180910390fd5b8073ffffffffffffffffffffffffffffffffffffffff16610e31613570565b73ffffffffffffffffffffffffffffffffffffffff161480610e605750610e5f81610e5a613570565b61330d565b5b610e9f576040517f08c379a0000000000000000000000000000000000000000000000000000000008152600401610e969061508c565b60405180910390fd5b610ea98383613578565b505050565b600e600082815260200190815260200160002060000160009054906101000a900473ffffffffffffffffffffffffffffffffffffffff1673ffffffffffffffffffffffffffffffffffffffff163373ffffffffffffffffffffffffffffffffffffffff161480610f7f5750600e600082815260200190815260200160002060040160029054906101000a900473ffffffffffffffffffffffffffffffffffffffff1673ffffffffffffffffffffffffffffffffffffffff163373ffffffffffffffffffffffffffffffffffffffff16145b610fbe576040517f08c379a0000000000000000000000000000000000000000000000000000000008152600401610fb590614e76565b60405180910390fd5b600e600082815260200190815260200160002060000160009054906101000a900473ffffffffffffffffffffffffffffffffffffffff1673ffffffffffffffffffffffffffffffffffffffff163373ffffffffffffffffffffffffffffffffffffffff16036112785760001515600e600083815260200190815260200160002060020160009054906101000a900460ff16151514611091576040517f08c379a0000000000000000000000000000000000000000000000000000000008152600401611088906150f8565b60405180910390fd5b600e6000828152602001908152602001600020600080820160006101000a81549073ffffffffffffffffffffffffffffffffffffffff021916905560018201600090556002820160006101000a81549060ff021916905560038201600090556004820160006101000a81549060ff02191690556004820160016101000a81549060ff02191690556004820160026101000a81549073ffffffffffffffffffffffffffffffffffffffff0219169055600582016000905550506000601060003373ffffffffffffffffffffffffffffffffffffffff1673ffffffffffffffffffffffffffffffffffffffff16815260200190815260200160002060006101000a81548160ff021916908315150217905550600060106000600e600085815260200190815260200160002060040160029054906101000a900473ffffffffffffffffffffffffffffffffffffffff1673ffffffffffffffffffffffffffffffffffffffff1673ffffffffffffffffffffffffffffffffffffffff16815260200190815260200160002060006101000a81548160ff021916908315150217905550803373ffffffffffffffffffffffffffffffffffffffff167f27f83af92b39768b17fe0c8d6922452702717efb8626d97e7a754e0b27d4f6d260405160405180910390a3611420565b600e600082815260200190815260200160002060040160029054906101000a900473ffffffffffffffffffffffffffffffffffffffff1673ffffffffffffffffffffffffffffffffffffffff163373ffffffffffffffffffffffffffffffffffffffff160361141f576000600e600083815260200190815260200160002060040160016101000a81548160ff0219169083151502179055506000600e600083815260200190815260200160002060040160026101000a81548173ffffffffffffffffffffffffffffffffffffffff021916908373ffffffffffffffffffffffffffffffffffffffff1602179055506000600e6000838152602001908152602001600020600501819055506000601060003373ffffffffffffffffffffffffffffffffffffffff1673ffffffffffffffffffffffffffffffffffffffff16815260200190815260200160002060006101000a81548160ff021916908315150217905550803373ffffffffffffffffffffffffffffffffffffffff167f27f83af92b39768b17fe0c8d6922452702717efb8626d97e7a754e0b27d4f6d260405160405180910390a35b5b50565b60085481565b600e6020528060005260406000206000915090508060000160009054906101000a900473ffffffffffffffffffffffffffffffffffffffff16908060010154908060020160009054906101000a900460ff16908060030154908060040160009054906101000a900460ff16908060040160019054906101000a900460ff16908060040160029054906101000a900473ffffffffffffffffffffffffffffffffffffffff16908060050154905088565b6114e96114e3613570565b82613631565b611528576040517f08c379a000000000000000000000000000000000000000000000000000000000815260040161151f9061518a565b60405180910390fd5b6115338383836136c6565b505050565b6000601180549050905090565b600c602052816000526040600020818154811061156157600080fd5b90600052602060002001600091509150505481565b611591838383604051806020016040528060008152506124ad565b505050565b601181815481106115a657600080fd5b90600052602060002090600602016000915090508060000160009054906101000a900473ffffffffffffffffffffffffffffffffffffffff16908060010154908060020160009054906101000a900460ff16908060030154908060040160009054906101000a900460ff16908060040160019054906101000a900460ff16908060040160029054906101000a900473ffffffffffffffffffffffffffffffffffffffff16908060050154905088565b60106020528060005260406000206000915054906101000a900460ff1681565b3373ffffffffffffffffffffffffffffffffffffffff1661169582611d80565b73ffffffffffffffffffffffffffffffffffffffff16146116eb576040517f08c379a00000000000000000000000000000000000000000000000000000000081526004016116e29061521c565b60405180910390fd5b60001515601060003373ffffffffffffffffffffffffffffffffffffffff1673ffffffffffffffffffffffffffffffffffffffff16815260200190815260200160002060009054906101000a900460ff1615151461177e576040517f08c379a000000000000000000000000000000000000000000000000000000000815260040161177590615288565b60405180910390fd5b6117893060016123b3565b600d600081548092919061179c906152d7565b91905055506001601060003373ffffffffffffffffffffffffffffffffffffffff1673ffffffffffffffffffffffffffffffffffffffff16815260200190815260200160002060006101000a81548160ff0219169083151502179055506040518061010001604052803373ffffffffffffffffffffffffffffffffffffffff168152602001828152602001600015158152602001600d548152602001600015158152602001600015158152602001600073ffffffffffffffffffffffffffffffffffffffff1681526020016000815250600e6000600d54815260200190815260200160002060008201518160000160006101000a81548173ffffffffffffffffffffffffffffffffffffffff021916908373ffffffffffffffffffffffffffffffffffffffff1602179055506020820151816001015560408201518160020160006101000a81548160ff0219169083151502179055506060820151816003015560808201518160040160006101000a81548160ff02191690831515021790555060a08201518160040160016101000a81548160ff02191690831515021790555060c08201518160040160026101000a81548173ffffffffffffffffffffffffffffffffffffffff021916908373ffffffffffffffffffffffffffffffffffffffff16021790555060e082015181600501559050506011600e6000600d54815260200190815260200160002090806001815401808255809150506001900390600052602060002090600602016000909190919091506000820160009054906101000a900473ffffffffffffffffffffffffffffffffffffffff168160000160006101000a81548173ffffffffffffffffffffffffffffffffffffffff021916908373ffffffffffffffffffffffffffffffffffffffff160217905550600182015481600101556002820160009054906101000a900460ff168160020160006101000a81548160ff021916908315150217905550600382015481600301556004820160009054906101000a900460ff168160040160006101000a81548160ff0219169083151502179055506004820160019054906101000a900460ff168160040160016101000a81548160ff0219169083151502179055506004820160029054906101000a900473ffffffffffffffffffffffffffffffffffffffff168160040160026101000a81548173ffffffffffffffffffffffffffffffffffffffff021916908373ffffffffffffffffffffffffffffffffffffffff160217905550600582015481600501555050600f60003373ffffffffffffffffffffffffffffffffffffffff1673ffffffffffffffffffffffffffffffffffffffff168152602001908152602001600020600e6000600d54815260200190815260200160002090806001815401808255809150506001900390600052602060002090600602016000909190919091506000820160009054906101000a900473ffffffffffffffffffffffffffffffffffffffff168160000160006101000a81548173ffffffffffffffffffffffffffffffffffffffff021916908373ffffffffffffffffffffffffffffffffffffffff160217905550600182015481600101556002820160009054906101000a900460ff168160020160006101000a81548160ff021916908315150217905550600382015481600301556004820160009054906101000a900460ff168160040160006101000a81548160ff0219169083151502179055506004820160019054906101000a900460ff168160040160016101000a81548160ff0219169083151502179055506004820160029054906101000a900473ffffffffffffffffffffffffffffffffffffffff168160040160026101000a81548173ffffffffffffffffffffffffffffffffffffffff021916908373ffffffffffffffffffffffffffffffffffffffff160217905550600582015481600501555050600d543373ffffffffffffffffffffffffffffffffffffffff167fbfce24751fc3f5d349c888b748dbe331a3af19ad7ee1ea95c5ac1b844ba9e51a60405160405180910390a350565b600080611d8c836139bf565b9050600073ffffffffffffffffffffffffffffffffffffffff168173ffffffffffffffffffffffffffffffffffffffff1603611dfd576040517f08c379a0000000000000000000000000000000000000000000000000000000008152600401611df49061536b565b60405180910390fd5b80915050919050565b611e0e6139fc565b8060098190555050565b60008073ffffffffffffffffffffffffffffffffffffffff168273ffffffffffffffffffffffffffffffffffffffff1603611e88576040517f08c379a0000000000000000000000000000000000000000000000000000000008152600401611e7f906153fd565b60405180910390fd5b600360008373ffffffffffffffffffffffffffffffffffffffff1673ffffffffffffffffffffffffffffffffffffffff168152602001908152602001600020549050919050565b611ed76139fc565b611ee16000613a7a565b565b6000600760009054906101000a900473ffffffffffffffffffffffffffffffffffffffff16905090565b606060018054611f1c90614f57565b80601f0160208091040260200160405190810160405280929190818152602001828054611f4890614f57565b8015611f955780601f10611f6a57610100808354040283529160200191611f95565b820191906000526020600020905b815481529060010190602001808311611f7857829003601f168201915b5050505050905090565b3373ffffffffffffffffffffffffffffffffffffffff16611fbf82611d80565b73ffffffffffffffffffffffffffffffffffffffff1614612015576040517f08c379a000000000000000000000000000000000000000000000000000000000815260040161200c9061521c565b60405180910390fd5b60001515601060003373ffffffffffffffffffffffffffffffffffffffff1673ffffffffffffffffffffffffffffffffffffffff16815260200190815260200160002060009054906101000a900460ff161515146120a8576040517f08c379a000000000000000000000000000000000000000000000000000000000815260040161209f90615469565b60405180910390fd5b6120b33060016123b3565b6001601060003373ffffffffffffffffffffffffffffffffffffffff1673ffffffffffffffffffffffffffffffffffffffff16815260200190815260200160002060006101000a81548160ff02191690831515021790555033600e600084815260200190815260200160002060040160026101000a81548173ffffffffffffffffffffffffffffffffffffffff021916908373ffffffffffffffffffffffffffffffffffffffff16021790555080600e600084815260200190815260200160002060050181905550600f60003373ffffffffffffffffffffffffffffffffffffffff1673ffffffffffffffffffffffffffffffffffffffff168152602001908152602001600020600e600084815260200190815260200160002090806001815401808255809150506001900390600052602060002090600602016000909190919091506000820160009054906101000a900473ffffffffffffffffffffffffffffffffffffffff168160000160006101000a81548173ffffffffffffffffffffffffffffffffffffffff021916908373ffffffffffffffffffffffffffffffffffffffff160217905550600182015481600101556002820160009054906101000a900460ff168160020160006101000a81548160ff021916908315150217905550600382015481600301556004820160009054906101000a900460ff168160040160006101000a81548160ff0219169083151502179055506004820160019054906101000a900460ff168160040160016101000a81548160ff0219169083151502179055506004820160029054906101000a900473ffffffffffffffffffffffffffffffffffffffff168160040160026101000a81548173ffffffffffffffffffffffffffffffffffffffff021916908373ffffffffffffffffffffffffffffffffffffffff160217905550600582015481600501555050813373ffffffffffffffffffffffffffffffffffffffff167fe684a55f31b79eca403df938249029212a5925ec6be8012e099b45bc1019e5d260405160405180910390a35050565b6123c56123be613570565b8383613b40565b5050565b600b6020528060005260406000206000915090505481565b600f60205281600052604060002081815481106123fd57600080fd5b9060005260206000209060060201600091509150508060000160009054906101000a900473ffffffffffffffffffffffffffffffffffffffff16908060010154908060020160009054906101000a900460ff16908060030154908060040160009054906101000a900460ff16908060040160019054906101000a900460ff16908060040160029054906101000a900473ffffffffffffffffffffffffffffffffffffffff16908060050154905088565b6124be6124b8613570565b83613631565b6124fd576040517f08c379a00000000000000000000000000000000000000000000000000000000081526004016124f49061518a565b60405180910390fd5b61250984848484613cac565b50505050565b606061251a82613525565b600060066000848152602001908152602001600020805461253a90614f57565b80601f016020809104026020016040519081016040528092919081815260200182805461256690614f57565b80156125b35780601f10612588576101008083540402835291602001916125b3565b820191906000526020600020905b81548152906001019060200180831161259657829003601f168201915b5050505050905060006125c4613d08565b905060008151036125d957819250505061261c565b60008251111561260e5780826040516020016125f69291906154c5565b6040516020818303038152906040529250505061261c565b61261784613d1f565b925050505b919050565b3373ffffffffffffffffffffffffffffffffffffffff16600e600083815260200190815260200160002060000160009054906101000a900473ffffffffffffffffffffffffffffffffffffffff1673ffffffffffffffffffffffffffffffffffffffff1614806126f257503373ffffffffffffffffffffffffffffffffffffffff16600e600083815260200190815260200160002060040160029054906101000a900473ffffffffffffffffffffffffffffffffffffffff1673ffffffffffffffffffffffffffffffffffffffff16145b612731576040517f08c379a000000000000000000000000000000000000000000000000000000000815260040161272890614e76565b60405180910390fd5b60001515600e600083815260200190815260200160002060020160009054906101000a900460ff1615151461279b576040517f08c379a000000000000000000000000000000000000000000000000000000000815260040161279290615535565b60405180910390fd5b60011515600e600083815260200190815260200160002060040160009054906101000a900460ff1615151480156127f9575060011515600e600083815260200190815260200160002060040160019054906101000a900460ff161515145b612838576040517f08c379a000000000000000000000000000000000000000000000000000000000815260040161282f906155a1565b60405180910390fd5b6001600e600083815260200190815260200160002060020160006101000a81548160ff0219169083151502179055503073ffffffffffffffffffffffffffffffffffffffff166342842e0e600e600084815260200190815260200160002060000160009054906101000a900473ffffffffffffffffffffffffffffffffffffffff16600e600085815260200190815260200160002060040160029054906101000a900473ffffffffffffffffffffffffffffffffffffffff16600e6000868152602001908152602001600020600101546040518463ffffffff1660e01b8152600401612926939291906155c1565b600060405180830381600087803b15801561294057600080fd5b505af1158015612954573d6000803e3d6000fd5b505050503073ffffffffffffffffffffffffffffffffffffffff166342842e0e600e600084815260200190815260200160002060040160029054906101000a900473ffffffffffffffffffffffffffffffffffffffff16600e600085815260200190815260200160002060000160009054906101000a900473ffffffffffffffffffffffffffffffffffffffff16600e6000868152602001908152602001600020600501546040518463ffffffff1660e01b8152600401612a17939291906155c1565b600060405180830381600087803b158015612a3157600080fd5b505af1158015612a45573d6000803e3d6000fd5b50505050600c6000600e600084815260200190815260200160002060040160029054906101000a900473ffffffffffffffffffffffffffffffffffffffff1673ffffffffffffffffffffffffffffffffffffffff1673ffffffffffffffffffffffffffffffffffffffff168152602001908152602001600020600e600083815260200190815260200160002060010154908060018154018082558091505060019003906000526020600020016000909190919091505560005b600c6000600e600085815260200190815260200160002060040160029054906101000a900473ffffffffffffffffffffffffffffffffffffffff1673ffffffffffffffffffffffffffffffffffffffff1673ffffffffffffffffffffffffffffffffffffffff16815260200190815260200160002080549050811015612cd557600e600083815260200190815260200160002060050154600c6000600e600086815260200190815260200160002060040160029054906101000a900473ffffffffffffffffffffffffffffffffffffffff1673ffffffffffffffffffffffffffffffffffffffff1673ffffffffffffffffffffffffffffffffffffffff1681526020019081526020016000208281548110612c1c57612c1b6155f8565b5b906000526020600020015403612cc257600c6000600e600085815260200190815260200160002060040160029054906101000a900473ffffffffffffffffffffffffffffffffffffffff1673ffffffffffffffffffffffffffffffffffffffff1673ffffffffffffffffffffffffffffffffffffffff1681526020019081526020016000208181548110612cb357612cb26155f8565b5b90600052602060002001600090555b8080612ccd906152d7565b915050612afe565b5060005b600c6000600e600085815260200190815260200160002060000160009054906101000a900473ffffffffffffffffffffffffffffffffffffffff1673ffffffffffffffffffffffffffffffffffffffff1673ffffffffffffffffffffffffffffffffffffffff16815260200190815260200160002080549050811015612eb057600e600083815260200190815260200160002060010154600c6000600e600086815260200190815260200160002060000160009054906101000a900473ffffffffffffffffffffffffffffffffffffffff1673ffffffffffffffffffffffffffffffffffffffff1673ffffffffffffffffffffffffffffffffffffffff1681526020019081526020016000208281548110612df757612df66155f8565b5b906000526020600020015403612e9d57600c6000600e600085815260200190815260200160002060000160009054906101000a900473ffffffffffffffffffffffffffffffffffffffff1673ffffffffffffffffffffffffffffffffffffffff1673ffffffffffffffffffffffffffffffffffffffff1681526020019081526020016000208181548110612e8e57612e8d6155f8565b5b90600052602060002001600090555b8080612ea8906152d7565b915050612cd9565b50600c6000600e600084815260200190815260200160002060000160009054906101000a900473ffffffffffffffffffffffffffffffffffffffff1673ffffffffffffffffffffffffffffffffffffffff1673ffffffffffffffffffffffffffffffffffffffff168152602001908152602001600020600e600083815260200190815260200160002060050154908060018154018082558091505060019003906000526020600020016000909190919091505580600e600083815260200190815260200160002060040160029054906101000a900473ffffffffffffffffffffffffffffffffffffffff1673ffffffffffffffffffffffffffffffffffffffff16600e600084815260200190815260200160002060000160009054906101000a900473ffffffffffffffffffffffffffffffffffffffff1673ffffffffffffffffffffffffffffffffffffffff167f70472766abdeecc3d1cf2b2c6925b9dfb8f08aae449dffb2a2142b96d5a5ca6c60405160405180910390a4600060106000600e600085815260200190815260200160002060000160009054906101000a900473ffffffffffffffffffffffffffffffffffffffff1673ffffffffffffffffffffffffffffffffffffffff1673ffffffffffffffffffffffffffffffffffffffff16815260200190815260200160002060006101000a81548160ff021916908315150217905550600060106000600e600085815260200190815260200160002060040160029054906101000a900473ffffffffffffffffffffffffffffffffffffffff1673ffffffffffffffffffffffffffffffffffffffff1673ffffffffffffffffffffffffffffffffffffffff16815260200190815260200160002060006101000a81548160ff02191690831515021790555050565b60095481565b6001600b60003373ffffffffffffffffffffffffffffffffffffffff1673ffffffffffffffffffffffffffffffffffffffff16815260200190815260200160002054106131d1576040517f08c379a00000000000000000000000000000000000000000000000000000000081526004016131c890615699565b60405180910390fd5b600b60003373ffffffffffffffffffffffffffffffffffffffff1673ffffffffffffffffffffffffffffffffffffffff1681526020019081526020016000206000815480929190613221906152d7565b919050555060086000815480929190613239906152d7565b919050555060006008549050600c60003373ffffffffffffffffffffffffffffffffffffffff1673ffffffffffffffffffffffffffffffffffffffff1681526020019081526020016000208190806001815401808255809150506001900390600052602060002001600090919091909150556132b53382613d87565b6132bf8183613da5565b803373ffffffffffffffffffffffffffffffffffffffff167f30385c845b448a36257a6a1716e6ad2e1bc2cbe333cde1e69fe849ad6511adfe60405160405180910390a35050565b600d5481565b6000600560008473ffffffffffffffffffffffffffffffffffffffff1673ffffffffffffffffffffffffffffffffffffffff16815260200190815260200160002060008373ffffffffffffffffffffffffffffffffffffffff1673ffffffffffffffffffffffffffffffffffffffff16815260200190815260200160002060009054906101000a900460ff16905092915050565b6060600c60008373ffffffffffffffffffffffffffffffffffffffff1673ffffffffffffffffffffffffffffffffffffffff16815260200190815260200160002080548060200260200160405190810160405280929190818152602001828054801561342c57602002820191906000526020600020905b815481526020019060010190808311613418575b50505050509050919050565b6134406139fc565b600073ffffffffffffffffffffffffffffffffffffffff168173ffffffffffffffffffffffffffffffffffffffff16036134af576040517f08c379a00000000000000000000000000000000000000000000000000000000081526004016134a69061572b565b60405180910390fd5b6134b881613a7a565b50565b60007f01ffc9a7000000000000000000000000000000000000000000000000000000007bffffffffffffffffffffffffffffffffffffffffffffffffffffffff1916827bffffffffffffffffffffffffffffffffffffffffffffffffffffffff1916149050919050565b61352e81613e12565b61356d576040517f08c379a00000000000000000000000000000000000000000000000000000000081526004016135649061536b565b60405180910390fd5b50565b600033905090565b816004600083815260200190815260200160002060006101000a81548173ffffffffffffffffffffffffffffffffffffffff021916908373ffffffffffffffffffffffffffffffffffffffff160217905550808273ffffffffffffffffffffffffffffffffffffffff166135eb83611d80565b73ffffffffffffffffffffffffffffffffffffffff167f8c5be1e5ebec7d5bd14f71427d1e84f3dd0314c0f7b2291e5b200ac8c7c3b92560405160405180910390a45050565b60008061363d83611d80565b90508073ffffffffffffffffffffffffffffffffffffffff168473ffffffffffffffffffffffffffffffffffffffff16148061367f575061367e818561330d565b5b806136bd57508373ffffffffffffffffffffffffffffffffffffffff166136a584610d51565b73ffffffffffffffffffffffffffffffffffffffff16145b91505092915050565b8273ffffffffffffffffffffffffffffffffffffffff166136e682611d80565b73ffffffffffffffffffffffffffffffffffffffff161461373c576040517f08c379a0000000000000000000000000000000000000000000000000000000008152600401613733906157bd565b60405180910390fd5b600073ffffffffffffffffffffffffffffffffffffffff168273ffffffffffffffffffffffffffffffffffffffff16036137ab576040517f08c379a00000000000000000000000000000000000000000000000000000000081526004016137a29061584f565b60405180910390fd5b6137b88383836001613e53565b8273ffffffffffffffffffffffffffffffffffffffff166137d882611d80565b73ffffffffffffffffffffffffffffffffffffffff161461382e576040517f08c379a0000000000000000000000000000000000000000000000000000000008152600401613825906157bd565b60405180910390fd5b6004600082815260200190815260200160002060006101000a81549073ffffffffffffffffffffffffffffffffffffffff02191690556001600360008573ffffffffffffffffffffffffffffffffffffffff1673ffffffffffffffffffffffffffffffffffffffff168152602001908152602001600020600082825403925050819055506001600360008473ffffffffffffffffffffffffffffffffffffffff1673ffffffffffffffffffffffffffffffffffffffff16815260200190815260200160002060008282540192505081905550816002600083815260200190815260200160002060006101000a81548173ffffffffffffffffffffffffffffffffffffffff021916908373ffffffffffffffffffffffffffffffffffffffff160217905550808273ffffffffffffffffffffffffffffffffffffffff168473ffffffffffffffffffffffffffffffffffffffff167fddf252ad1be2c89b69c2b068fc378daa952ba7f163c4a11628f55a4df523b3ef60405160405180910390a46139ba8383836001613f79565b505050565b60006002600083815260200190815260200160002060009054906101000a900473ffffffffffffffffffffffffffffffffffffffff169050919050565b613a04613570565b73ffffffffffffffffffffffffffffffffffffffff16613a22611ee3565b73ffffffffffffffffffffffffffffffffffffffff1614613a78576040517f08c379a0000000000000000000000000000000000000000000000000000000008152600401613a6f906158bb565b60405180910390fd5b565b6000600760009054906101000a900473ffffffffffffffffffffffffffffffffffffffff16905081600760006101000a81548173ffffffffffffffffffffffffffffffffffffffff021916908373ffffffffffffffffffffffffffffffffffffffff1602179055508173ffffffffffffffffffffffffffffffffffffffff168173ffffffffffffffffffffffffffffffffffffffff167f8be0079c531659141344cd1fd0a4f28419497f9722a3daafe3b4186f6b6457e060405160405180910390a35050565b8173ffffffffffffffffffffffffffffffffffffffff168373ffffffffffffffffffffffffffffffffffffffff1603613bae576040517f08c379a0000000000000000000000000000000000000000000000000000000008152600401613ba590615927565b60405180910390fd5b80600560008573ffffffffffffffffffffffffffffffffffffffff1673ffffffffffffffffffffffffffffffffffffffff16815260200190815260200160002060008473ffffffffffffffffffffffffffffffffffffffff1673ffffffffffffffffffffffffffffffffffffffff16815260200190815260200160002060006101000a81548160ff0219169083151502179055508173ffffffffffffffffffffffffffffffffffffffff168373ffffffffffffffffffffffffffffffffffffffff167f17307eab39ab6107e8899845ad3d59bd9653f200f220920489ca2b5937696c3183604051613c9f91906146d9565b60405180910390a3505050565b613cb78484846136c6565b613cc384848484613f7f565b613d02576040517f08c379a0000000000000000000000000000000000000000000000000000000008152600401613cf9906159b9565b60405180910390fd5b50505050565b606060405180602001604052806000815250905090565b6060613d2a82613525565b6000613d34613d08565b90506000815111613d545760405180602001604052806000815250613d7f565b80613d5e84614106565b604051602001613d6f9291906154c5565b6040516020818303038152906040525b915050919050565b613da18282604051806020016040528060008152506141d4565b5050565b613dae82613e12565b613ded576040517f08c379a0000000000000000000000000000000000000000000000000000000008152600401613de490615a4b565b60405180910390fd5b80600660008481526020019081526020016000209081613e0d9190615c17565b505050565b60008073ffffffffffffffffffffffffffffffffffffffff16613e34836139bf565b73ffffffffffffffffffffffffffffffffffffffff1614159050919050565b6001811115613f7357600073ffffffffffffffffffffffffffffffffffffffff168473ffffffffffffffffffffffffffffffffffffffff1614613ee75780600360008673ffffffffffffffffffffffffffffffffffffffff1673ffffffffffffffffffffffffffffffffffffffff1681526020019081526020016000206000828254613edf9190615ce9565b925050819055505b600073ffffffffffffffffffffffffffffffffffffffff168373ffffffffffffffffffffffffffffffffffffffff1614613f725780600360008573ffffffffffffffffffffffffffffffffffffffff1673ffffffffffffffffffffffffffffffffffffffff1681526020019081526020016000206000828254613f6a9190615d1d565b925050819055505b5b50505050565b50505050565b6000613fa08473ffffffffffffffffffffffffffffffffffffffff1661422f565b156140f9578373ffffffffffffffffffffffffffffffffffffffff1663150b7a02613fc9613570565b8786866040518563ffffffff1660e01b8152600401613feb9493929190615da6565b6020604051808303816000875af192505050801561402757506040513d601f19601f820116820180604052508101906140249190615e07565b60015b6140a9573d8060008114614057576040519150601f19603f3d011682016040523d82523d6000602084013e61405c565b606091505b5060008151036140a1576040517f08c379a0000000000000000000000000000000000000000000000000000000008152600401614098906159b9565b60405180910390fd5b805181602001fd5b63150b7a0260e01b7bffffffffffffffffffffffffffffffffffffffffffffffffffffffff1916817bffffffffffffffffffffffffffffffffffffffffffffffffffffffff1916149150506140fe565b600190505b949350505050565b60606000600161411584614252565b01905060008167ffffffffffffffff81111561413457614133614a4c565b5b6040519080825280601f01601f1916602001820160405280156141665781602001600182028036833780820191505090505b509050600082602001820190505b6001156141c9578080600190039150507f3031323334353637383961626364656600000000000000000000000000000000600a86061a8153600a85816141bd576141bc615e34565b5b04945060008503614174575b819350505050919050565b6141de83836143a5565b6141eb6000848484613f7f565b61422a576040517f08c379a0000000000000000000000000000000000000000000000000000000008152600401614221906159b9565b60405180910390fd5b505050565b6000808273ffffffffffffffffffffffffffffffffffffffff163b119050919050565b600080600090507a184f03e93ff9f4daa797ed6e38ed64bf6a1f01000000000000000083106142b0577a184f03e93ff9f4daa797ed6e38ed64bf6a1f01000000000000000083816142a6576142a5615e34565b5b0492506040810190505b6d04ee2d6d415b85acef810000000083106142ed576d04ee2d6d415b85acef810000000083816142e3576142e2615e34565b5b0492506020810190505b662386f26fc10000831061431c57662386f26fc10000838161431257614311615e34565b5b0492506010810190505b6305f5e1008310614345576305f5e100838161433b5761433a615e34565b5b0492506008810190505b612710831061436a5761271083816143605761435f615e34565b5b0492506004810190505b6064831061438d576064838161438357614382615e34565b5b0492506002810190505b600a831061439c576001810190505b80915050919050565b600073ffffffffffffffffffffffffffffffffffffffff168273ffffffffffffffffffffffffffffffffffffffff1603614414576040517f08c379a000000000000000000000000000000000000000000000000000000000815260040161440b90615eaf565b60405180910390fd5b61441d81613e12565b1561445d576040517f08c379a000000000000000000000000000000000000000000000000000000000815260040161445490615f1b565b60405180910390fd5b61446b600083836001613e53565b61447481613e12565b156144b4576040517f08c379a00000000000000000000000000000000000000000000000000000000081526004016144ab90615f1b565b60405180910390fd5b6001600360008473ffffffffffffffffffffffffffffffffffffffff1673ffffffffffffffffffffffffffffffffffffffff16815260200190815260200160002060008282540192505081905550816002600083815260200190815260200160002060006101000a81548173ffffffffffffffffffffffffffffffffffffffff021916908373ffffffffffffffffffffffffffffffffffffffff160217905550808273ffffffffffffffffffffffffffffffffffffffff16600073ffffffffffffffffffffffffffffffffffffffff167fddf252ad1be2c89b69c2b068fc378daa952ba7f163c4a11628f55a4df523b3ef60405160405180910390a46145be600083836001613f79565b5050565b6000604051905090565b600080fd5b600080fd5b6000819050919050565b6145e9816145d6565b81146145f457600080fd5b50565b600081359050614606816145e0565b92915050565b600060208284031215614622576146216145cc565b5b6000614630848285016145f7565b91505092915050565b60007fffffffff0000000000000000000000000000000000000000000000000000000082169050919050565b61466e81614639565b811461467957600080fd5b50565b60008135905061468b81614665565b92915050565b6000602082840312156146a7576146a66145cc565b5b60006146b58482850161467c565b91505092915050565b60008115159050919050565b6146d3816146be565b82525050565b60006020820190506146ee60008301846146ca565b92915050565b600081519050919050565b600082825260208201905092915050565b60005b8381101561472e578082015181840152602081019050614713565b60008484015250505050565b6000601f19601f8301169050919050565b6000614756826146f4565b61476081856146ff565b9350614770818560208601614710565b6147798161473a565b840191505092915050565b6000602082019050818103600083015261479e818461474b565b905092915050565b600073ffffffffffffffffffffffffffffffffffffffff82169050919050565b60006147d1826147a6565b9050919050565b6147e1816147c6565b82525050565b60006020820190506147fc60008301846147d8565b92915050565b61480b816147c6565b811461481657600080fd5b50565b60008135905061482881614802565b92915050565b60008060408385031215614845576148446145cc565b5b600061485385828601614819565b9250506020614864858286016145f7565b9150509250929050565b614877816145d6565b82525050565b6000602082019050614892600083018461486e565b92915050565b6000610100820190506148ae600083018b6147d8565b6148bb602083018a61486e565b6148c860408301896146ca565b6148d5606083018861486e565b6148e260808301876146ca565b6148ef60a08301866146ca565b6148fc60c08301856147d8565b61490960e083018461486e565b9998505050505050505050565b60008060006060848603121561492f5761492e6145cc565b5b600061493d86828701614819565b935050602061494e86828701614819565b925050604061495f868287016145f7565b9150509250925092565b60006020828403121561497f5761497e6145cc565b5b600061498d84828501614819565b91505092915050565b600080604083850312156149ad576149ac6145cc565b5b60006149bb858286016145f7565b92505060206149cc858286016145f7565b9150509250929050565b6149df816146be565b81146149ea57600080fd5b50565b6000813590506149fc816149d6565b92915050565b60008060408385031215614a1957614a186145cc565b5b6000614a2785828601614819565b9250506020614a38858286016149ed565b9150509250929050565b600080fd5b600080fd5b7f4e487b7100000000000000000000000000000000000000000000000000000000600052604160045260246000fd5b614a848261473a565b810181811067ffffffffffffffff82111715614aa357614aa2614a4c565b5b80604052505050565b6000614ab66145c2565b9050614ac28282614a7b565b919050565b600067ffffffffffffffff821115614ae257614ae1614a4c565b5b614aeb8261473a565b9050602081019050919050565b82818337600083830152505050565b6000614b1a614b1584614ac7565b614aac565b905082815260208101848484011115614b3657614b35614a47565b5b614b41848285614af8565b509392505050565b600082601f830112614b5e57614b5d614a42565b5b8135614b6e848260208601614b07565b91505092915050565b60008060008060808587031215614b9157614b906145cc565b5b6000614b9f87828801614819565b9450506020614bb087828801614819565b9350506040614bc1878288016145f7565b925050606085013567ffffffffffffffff811115614be257614be16145d1565b5b614bee87828801614b49565b91505092959194509250565b600067ffffffffffffffff821115614c1557614c14614a4c565b5b614c1e8261473a565b9050602081019050919050565b6000614c3e614c3984614bfa565b614aac565b905082815260208101848484011115614c5a57614c59614a47565b5b614c65848285614af8565b509392505050565b600082601f830112614c8257614c81614a42565b5b8135614c92848260208601614c2b565b91505092915050565b600060208284031215614cb157614cb06145cc565b5b600082013567ffffffffffffffff811115614ccf57614cce6145d1565b5b614cdb84828501614c6d565b91505092915050565b60008060408385031215614cfb57614cfa6145cc565b5b6000614d0985828601614819565b9250506020614d1a85828601614819565b9150509250929050565b600081519050919050565b600082825260208201905092915050565b6000819050602082019050919050565b614d59816145d6565b82525050565b6000614d6b8383614d50565b60208301905092915050565b6000602082019050919050565b6000614d8f82614d24565b614d998185614d2f565b9350614da483614d40565b8060005b83811015614dd5578151614dbc8882614d5f565b9750614dc783614d77565b925050600181019050614da8565b5085935050505092915050565b60006020820190508181036000830152614dfc8184614d84565b905092915050565b7f596f752068617665206e6f207065726d697373696f6e20696e2074686973207460008201527f7261646500000000000000000000000000000000000000000000000000000000602082015250565b6000614e606024836146ff565b9150614e6b82614e04565b604082019050919050565b60006020820190508181036000830152614e8f81614e53565b9050919050565b7f596f752061726520616c726561647920636f6e6669726d65642074686520747260008201527f6164650000000000000000000000000000000000000000000000000000000000602082015250565b6000614ef26023836146ff565b9150614efd82614e96565b604082019050919050565b60006020820190508181036000830152614f2181614ee5565b9050919050565b7f4e487b7100000000000000000000000000000000000000000000000000000000600052602260045260246000fd5b60006002820490506001821680614f6f57607f821691505b602082108103614f8257614f81614f28565b5b50919050565b7f4552433732313a20617070726f76616c20746f2063757272656e74206f776e6560008201527f7200000000000000000000000000000000000000000000000000000000000000602082015250565b6000614fe46021836146ff565b9150614fef82614f88565b604082019050919050565b6000602082019050818103600083015261501381614fd7565b9050919050565b7f4552433732313a20617070726f76652063616c6c6572206973206e6f7420746f60008201527f6b656e206f776e6572206f7220617070726f76656420666f7220616c6c000000602082015250565b6000615076603d836146ff565b91506150818261501a565b604082019050919050565b600060208201905081810360008301526150a581615069565b9050919050565b7f547261646520656e64656420616c726561647900000000000000000000000000600082015250565b60006150e26013836146ff565b91506150ed826150ac565b602082019050919050565b60006020820190508181036000830152615111816150d5565b9050919050565b7f4552433732313a2063616c6c6572206973206e6f7420746f6b656e206f776e6560008201527f72206f7220617070726f76656400000000000000000000000000000000000000602082015250565b6000615174602d836146ff565b915061517f82615118565b604082019050919050565b600060208201905081810360008301526151a381615167565b9050919050565b7f596f75206d757374206f776e2074686973204e465420696e206f72646572207460008201527f6f20747261646520697400000000000000000000000000000000000000000000602082015250565b6000615206602a836146ff565b9150615211826151aa565b604082019050919050565b60006020820190508181036000830152615235816151f9565b9050919050565b7f596f752061726520616c72656164792074726164696e67202100000000000000600082015250565b60006152726019836146ff565b915061527d8261523c565b602082019050919050565b600060208201905081810360008301526152a181615265565b9050919050565b7f4e487b7100000000000000000000000000000000000000000000000000000000600052601160045260246000fd5b60006152e2826145d6565b91507fffffffffffffffffffffffffffffffffffffffffffffffffffffffffffffffff8203615314576153136152a8565b5b600182019050919050565b7f4552433732313a20696e76616c696420746f6b656e2049440000000000000000600082015250565b60006153556018836146ff565b91506153608261531f565b602082019050919050565b6000602082019050818103600083015261538481615348565b9050919050565b7f4552433732313a2061646472657373207a65726f206973206e6f74206120766160008201527f6c6964206f776e65720000000000000000000000000000000000000000000000602082015250565b60006153e76029836146ff565b91506153f28261538b565b604082019050919050565b60006020820190508181036000830152615416816153da565b9050919050565b7f596f752061726520616c72656164792074726164696e67202120000000000000600082015250565b6000615453601a836146ff565b915061545e8261541d565b602082019050919050565b6000602082019050818103600083015261548281615446565b9050919050565b600081905092915050565b600061549f826146f4565b6154a98185615489565b93506154b9818560208601614710565b80840191505092915050565b60006154d18285615494565b91506154dd8284615494565b91508190509392505050565b7f547261646520616c726561647920636f6d706c65746564000000000000000000600082015250565b600061551f6017836146ff565b915061552a826154e9565b602082019050919050565b6000602082019050818103600083015261554e81615512565b9050919050565b7f5472616465206973206e6f7420617070726f7665640000000000000000000000600082015250565b600061558b6015836146ff565b915061559682615555565b602082019050919050565b600060208201905081810360008301526155ba8161557e565b9050919050565b60006060820190506155d660008301866147d8565b6155e360208301856147d8565b6155f0604083018461486e565b949350505050565b7f4e487b7100000000000000000000000000000000000000000000000000000000600052603260045260246000fd5b7f596f7520686176652072656163686564206d6178696d756d206d696e74206e7560008201527f6d62657200000000000000000000000000000000000000000000000000000000602082015250565b60006156836024836146ff565b915061568e82615627565b604082019050919050565b600060208201905081810360008301526156b281615676565b9050919050565b7f4f776e61626c653a206e6577206f776e657220697320746865207a65726f206160008201527f6464726573730000000000000000000000000000000000000000000000000000602082015250565b60006157156026836146ff565b9150615720826156b9565b604082019050919050565b6000602082019050818103600083015261574481615708565b9050919050565b7f4552433732313a207472616e736665722066726f6d20696e636f72726563742060008201527f6f776e6572000000000000000000000000000000000000000000000000000000602082015250565b60006157a76025836146ff565b91506157b28261574b565b604082019050919050565b600060208201905081810360008301526157d68161579a565b9050919050565b7f4552433732313a207472616e7366657220746f20746865207a65726f2061646460008201527f7265737300000000000000000000000000000000000000000000000000000000602082015250565b60006158396024836146ff565b9150615844826157dd565b604082019050919050565b600060208201905081810360008301526158688161582c565b9050919050565b7f4f776e61626c653a2063616c6c6572206973206e6f7420746865206f776e6572600082015250565b60006158a56020836146ff565b91506158b08261586f565b602082019050919050565b600060208201905081810360008301526158d481615898565b9050919050565b7f4552433732313a20617070726f766520746f2063616c6c657200000000000000600082015250565b60006159116019836146ff565b915061591c826158db565b602082019050919050565b6000602082019050818103600083015261594081615904565b9050919050565b7f4552433732313a207472616e7366657220746f206e6f6e20455243373231526560008201527f63656976657220696d706c656d656e7465720000000000000000000000000000602082015250565b60006159a36032836146ff565b91506159ae82615947565b604082019050919050565b600060208201905081810360008301526159d281615996565b9050919050565b7f45524337323155524953746f726167653a2055524920736574206f66206e6f6e60008201527f6578697374656e7420746f6b656e000000000000000000000000000000000000602082015250565b6000615a35602e836146ff565b9150615a40826159d9565b604082019050919050565b60006020820190508181036000830152615a6481615a28565b9050919050565b60008190508160005260206000209050919050565b60006020601f8301049050919050565b600082821b905092915050565b600060088302615acd7fffffffffffffffffffffffffffffffffffffffffffffffffffffffffffffffff82615a90565b615ad78683615a90565b95508019841693508086168417925050509392505050565b6000819050919050565b6000615b14615b0f615b0a846145d6565b615aef565b6145d6565b9050919050565b6000819050919050565b615b2e83615af9565b615b42615b3a82615b1b565b848454615a9d565b825550505050565b600090565b615b57615b4a565b615b62818484615b25565b505050565b5b81811015615b8657615b7b600082615b4f565b600181019050615b68565b5050565b601f821115615bcb57615b9c81615a6b565b615ba584615a80565b81016020851015615bb4578190505b615bc8615bc085615a80565b830182615b67565b50505b505050565b600082821c905092915050565b6000615bee60001984600802615bd0565b1980831691505092915050565b6000615c078383615bdd565b9150826002028217905092915050565b615c20826146f4565b67ffffffffffffffff811115615c3957615c38614a4c565b5b615c438254614f57565b615c4e828285615b8a565b600060209050601f831160018114615c815760008415615c6f578287015190505b615c798582615bfb565b865550615ce1565b601f198416615c8f86615a6b565b60005b82811015615cb757848901518255600182019150602085019450602081019050615c92565b86831015615cd45784890151615cd0601f891682615bdd565b8355505b6001600288020188555050505b505050505050565b6000615cf4826145d6565b9150615cff836145d6565b9250828203905081811115615d1757615d166152a8565b5b92915050565b6000615d28826145d6565b9150615d33836145d6565b9250828201905080821115615d4b57615d4a6152a8565b5b92915050565b600081519050919050565b600082825260208201905092915050565b6000615d7882615d51565b615d828185615d5c565b9350615d92818560208601614710565b615d9b8161473a565b840191505092915050565b6000608082019050615dbb60008301876147d8565b615dc860208301866147d8565b615dd5604083018561486e565b8181036060830152615de78184615d6d565b905095945050505050565b600081519050615e0181614665565b92915050565b600060208284031215615e1d57615e1c6145cc565b5b6000615e2b84828501615df2565b91505092915050565b7f4e487b7100000000000000000000000000000000000000000000000000000000600052601260045260246000fd5b7f4552433732313a206d696e7420746f20746865207a65726f2061646472657373600082015250565b6000615e996020836146ff565b9150615ea482615e63565b602082019050919050565b60006020820190508181036000830152615ec881615e8c565b9050919050565b7f4552433732313a20746f6b656e20616c7265616479206d696e74656400000000600082015250565b6000615f05601c836146ff565b9150615f1082615ecf565b602082019050919050565b60006020820190508181036000830152615f3481615ef8565b905091905056fea2646970667358221220e1acd863c29e07ea29ff28b6e16a17ee018865042d0ab9967f4ad161bf563aa364736f6c63430008110033",
  "linkReferences": {},
  "deployedLinkReferences": {}
}