{
  "_format": "hh-sol-artifact-1",
  "contractName": "PokemonCards",
  "sourceName": "contracts/PokemonCards.sol",
  "abi": [
    {
      "inputs": [],
      "stateMutability": "payable",
      "type": "constructor"
    },
    {
      "anonymous": false,
      "inputs": [
        {
          "indexed": true,
          "internalType": "address",
          "name": "owner",
          "type": "address"
        },
        {
          "indexed": true,
          "internalType": "address",
          "name": "approved",
          "type": "address"
        },
        {
          "indexed": true,
          "internalType": "uint256",
          "name": "tokenId",
          "type": "uint256"
        }
      ],
      "name": "Approval",
      "type": "event"
    },
    {
      "anonymous": false,
      "inputs": [
        {
          "indexed": true,
          "internalType": "address",
          "name": "owner",
          "type": "address"
        },
        {
          "indexed": true,
          "internalType": "address",
          "name": "operator",
          "type": "address"
        },
        {
          "indexed": false,
          "internalType": "bool",
          "name": "approved",
          "type": "bool"
        }
      ],
      "name": "ApprovalForAll",
      "type": "event"
    },
    {
      "anonymous": false,
      "inputs": [
        {
          "indexed": true,
          "internalType": "address",
          "name": "previousOwner",
          "type": "address"
        },
        {
          "indexed": true,
          "internalType": "address",
          "name": "newOwner",
          "type": "address"
        }
      ],
      "name": "OwnershipTransferred",
      "type": "event"
    },
    {
      "anonymous": false,
      "inputs": [
        {
          "indexed": true,
          "internalType": "address",
          "name": "from",
          "type": "address"
        },
        {
          "indexed": true,
          "internalType": "address",
          "name": "to",
          "type": "address"
        },
        {
          "indexed": true,
          "internalType": "uint256",
          "name": "tokenId",
          "type": "uint256"
        }
      ],
      "name": "Transfer",
      "type": "event"
    },
    {
      "inputs": [
        {
          "internalType": "address",
          "name": "to",
          "type": "address"
        },
        {
          "internalType": "uint256",
          "name": "tokenId",
          "type": "uint256"
        }
      ],
      "name": "approve",
      "outputs": [],
      "stateMutability": "nonpayable",
      "type": "function"
    },
    {
      "inputs": [
        {
          "internalType": "address",
          "name": "owner",
          "type": "address"
        }
      ],
      "name": "balanceOf",
      "outputs": [
        {
          "internalType": "uint256",
          "name": "",
          "type": "uint256"
        }
      ],
      "stateMutability": "view",
      "type": "function"
    },
    {
      "inputs": [
        {
          "internalType": "address",
          "name": "_addr",
          "type": "address"
        }
      ],
      "name": "getAll",
      "outputs": [
        {
          "internalType": "uint256[]",
          "name": "",
          "type": "uint256[]"
        }
      ],
      "stateMutability": "view",
      "type": "function"
    },
    {
      "inputs": [
        {
          "internalType": "uint256",
          "name": "tokenId",
          "type": "uint256"
        }
      ],
      "name": "getApproved",
      "outputs": [
        {
          "internalType": "address",
          "name": "",
          "type": "address"
        }
      ],
      "stateMutability": "view",
      "type": "function"
    },
    {
      "inputs": [
        {
          "internalType": "uint256",
          "name": "",
          "type": "uint256"
        }
      ],
      "name": "hasTokenId",
      "outputs": [
        {
          "internalType": "uint256",
          "name": "",
          "type": "uint256"
        }
      ],
      "stateMutability": "view",
      "type": "function"
    },
    {
      "inputs": [
        {
          "internalType": "address",
          "name": "owner",
          "type": "address"
        },
        {
          "internalType": "address",
          "name": "operator",
          "type": "address"
        }
      ],
      "name": "isApprovedForAll",
      "outputs": [
        {
          "internalType": "bool",
          "name": "",
          "type": "bool"
        }
      ],
      "stateMutability": "view",
      "type": "function"
    },
    {
      "inputs": [],
      "name": "isMintEnabled",
      "outputs": [
        {
          "internalType": "bool",
          "name": "",
          "type": "bool"
        }
      ],
      "stateMutability": "view",
      "type": "function"
    },
    {
      "inputs": [],
      "name": "maxSupply",
      "outputs": [
        {
          "internalType": "uint256",
          "name": "",
          "type": "uint256"
        }
      ],
      "stateMutability": "view",
      "type": "function"
    },
    {
      "inputs": [
        {
          "internalType": "string",
          "name": "tokenURI",
          "type": "string"
        }
      ],
      "name": "mint",
      "outputs": [],
      "stateMutability": "payable",
      "type": "function"
    },
    {
      "inputs": [
        {
          "internalType": "address",
          "name": "",
          "type": "address"
        }
      ],
      "name": "mintedWallets",
      "outputs": [
        {
          "internalType": "uint256",
          "name": "",
          "type": "uint256"
        }
      ],
      "stateMutability": "view",
      "type": "function"
    },
    {
      "inputs": [],
      "name": "name",
      "outputs": [
        {
          "internalType": "string",
          "name": "",
          "type": "string"
        }
      ],
      "stateMutability": "view",
      "type": "function"
    },
    {
      "inputs": [
        {
          "internalType": "address",
          "name": "",
          "type": "address"
        },
        {
          "internalType": "uint256",
          "name": "",
          "type": "uint256"
        }
      ],
      "name": "ownedNfts",
      "outputs": [
        {
          "internalType": "uint256",
          "name": "",
          "type": "uint256"
        }
      ],
      "stateMutability": "view",
      "type": "function"
    },
    {
      "inputs": [],
      "name": "owner",
      "outputs": [
        {
          "internalType": "address",
          "name": "",
          "type": "address"
        }
      ],
      "stateMutability": "view",
      "type": "function"
    },
    {
      "inputs": [
        {
          "internalType": "uint256",
          "name": "tokenId",
          "type": "uint256"
        }
      ],
      "name": "ownerOf",
      "outputs": [
        {
          "internalType": "address",
          "name": "",
          "type": "address"
        }
      ],
      "stateMutability": "view",
      "type": "function"
    },
    {
      "inputs": [],
      "name": "renounceOwnership",
      "outputs": [],
      "stateMutability": "nonpayable",
      "type": "function"
    },
    {
      "inputs": [
        {
          "internalType": "address",
          "name": "from",
          "type": "address"
        },
        {
          "internalType": "address",
          "name": "to",
          "type": "address"
        },
        {
          "internalType": "uint256",
          "name": "tokenId",
          "type": "uint256"
        }
      ],
      "name": "safeTransferFrom",
      "outputs": [],
      "stateMutability": "nonpayable",
      "type": "function"
    },
    {
      "inputs": [
        {
          "internalType": "address",
          "name": "from",
          "type": "address"
        },
        {
          "internalType": "address",
          "name": "to",
          "type": "address"
        },
        {
          "internalType": "uint256",
          "name": "tokenId",
          "type": "uint256"
        },
        {
          "internalType": "bytes",
          "name": "data",
          "type": "bytes"
        }
      ],
      "name": "safeTransferFrom",
      "outputs": [],
      "stateMutability": "nonpayable",
      "type": "function"
    },
    {
      "inputs": [
        {
          "internalType": "address",
          "name": "operator",
          "type": "address"
        },
        {
          "internalType": "bool",
          "name": "approved",
          "type": "bool"
        }
      ],
      "name": "setApprovalForAll",
      "outputs": [],
      "stateMutability": "nonpayable",
      "type": "function"
    },
    {
      "inputs": [
        {
          "internalType": "uint256",
          "name": "_maxSupply",
          "type": "uint256"
        }
      ],
      "name": "setMaxSupply",
      "outputs": [],
      "stateMutability": "nonpayable",
      "type": "function"
    },
    {
      "inputs": [
        {
          "internalType": "bytes4",
          "name": "interfaceId",
          "type": "bytes4"
        }
      ],
      "name": "supportsInterface",
      "outputs": [
        {
          "internalType": "bool",
          "name": "",
          "type": "bool"
        }
      ],
      "stateMutability": "view",
      "type": "function"
    },
    {
      "inputs": [],
      "name": "symbol",
      "outputs": [
        {
          "internalType": "string",
          "name": "",
          "type": "string"
        }
      ],
      "stateMutability": "view",
      "type": "function"
    },
    {
      "inputs": [],
      "name": "toggleIsMintEnabled",
      "outputs": [],
      "stateMutability": "nonpayable",
      "type": "function"
    },
    {
      "inputs": [
        {
          "internalType": "uint256",
          "name": "tokenId",
          "type": "uint256"
        }
      ],
      "name": "tokenURI",
      "outputs": [
        {
          "internalType": "string",
          "name": "",
          "type": "string"
        }
      ],
      "stateMutability": "view",
      "type": "function"
    },
    {
      "inputs": [],
      "name": "totalSupply",
      "outputs": [
        {
          "internalType": "uint256",
          "name": "",
          "type": "uint256"
        }
      ],
      "stateMutability": "view",
      "type": "function"
    },
    {
      "inputs": [
        {
          "internalType": "address",
          "name": "from",
          "type": "address"
        },
        {
          "internalType": "address",
          "name": "to",
          "type": "address"
        },
        {
          "internalType": "uint256",
          "name": "tokenId",
          "type": "uint256"
        }
      ],
      "name": "transferFrom",
      "outputs": [],
      "stateMutability": "nonpayable",
      "type": "function"
    },
    {
      "inputs": [
        {
          "internalType": "address",
          "name": "newOwner",
          "type": "address"
        }
      ],
      "name": "transferOwnership",
      "outputs": [],
      "stateMutability": "nonpayable",
      "type": "function"
    }
  ],
  "bytecode": "0x60806040526040518060400160405280600c81526020017f506f6b656d6f6e204361726400000000000000000000000000000000000000008152506040518060400160405280600481526020017f504f4b450000000000000000000000000000000000000000000000000000000081525081600090816200008191906200040c565b5080600190816200009391906200040c565b505050620000b6620000aa620000c460201b60201c565b620000cc60201b60201c565b6014600981905550620004f3565b600033905090565b6000600760009054906101000a900473ffffffffffffffffffffffffffffffffffffffff16905081600760006101000a81548173ffffffffffffffffffffffffffffffffffffffff021916908373ffffffffffffffffffffffffffffffffffffffff1602179055508173ffffffffffffffffffffffffffffffffffffffff168173ffffffffffffffffffffffffffffffffffffffff167f8be0079c531659141344cd1fd0a4f28419497f9722a3daafe3b4186f6b6457e060405160405180910390a35050565b600081519050919050565b7f4e487b7100000000000000000000000000000000000000000000000000000000600052604160045260246000fd5b7f4e487b7100000000000000000000000000000000000000000000000000000000600052602260045260246000fd5b600060028204905060018216806200021457607f821691505b6020821081036200022a5762000229620001cc565b5b50919050565b60008190508160005260206000209050919050565b60006020601f8301049050919050565b600082821b905092915050565b600060088302620002947fffffffffffffffffffffffffffffffffffffffffffffffffffffffffffffffff8262000255565b620002a0868362000255565b95508019841693508086168417925050509392505050565b6000819050919050565b6000819050919050565b6000620002ed620002e7620002e184620002b8565b620002c2565b620002b8565b9050919050565b6000819050919050565b6200030983620002cc565b620003216200031882620002f4565b84845462000262565b825550505050565b600090565b6200033862000329565b62000345818484620002fe565b505050565b5b818110156200036d57620003616000826200032e565b6001810190506200034b565b5050565b601f821115620003bc57620003868162000230565b620003918462000245565b81016020851015620003a1578190505b620003b9620003b08562000245565b8301826200034a565b50505b505050565b600082821c905092915050565b6000620003e160001984600802620003c1565b1980831691505092915050565b6000620003fc8383620003ce565b9150826002028217905092915050565b620004178262000192565b67ffffffffffffffff8111156200043357620004326200019d565b5b6200043f8254620001fb565b6200044c82828562000371565b600060209050601f8311600181146200048457600084156200046f578287015190505b6200047b8582620003ee565b865550620004eb565b601f198416620004948662000230565b60005b82811015620004be5784890151825560018201915060208501945060208101905062000497565b86831015620004de5784890151620004da601f891682620003ce565b8355505b6001600288020188555050505b505050505050565b61368d80620005036000396000f3fe6080604052600436106101815760003560e01c8063715018a6116100d1578063c40732171161008a578063d85d3d2711610064578063d85d3d2714610594578063e985e9c5146105b0578063eb077342146105ed578063f2fde38b1461062a57610181565b8063c407321714610515578063c87b56dd1461052c578063d5abeb011461056957610181565b8063715018a6146104195780638da5cb5b1461043057806395d89b411461045b578063a22cb46514610486578063ada7c4ed146104af578063b88d4fde146104ec57610181565b8063346de50a1161013e5780636352211e116101185780636352211e146103395780636b3a7671146103765780636f8b44b0146103b357806370a08231146103dc57610181565b8063346de50a146102a85780633d9a3479146102d357806342842e0e1461031057610181565b806301ffc9a71461018657806306fdde03146101c3578063081812fc146101ee578063095ea7b31461022b57806318160ddd1461025457806323b872dd1461027f575b600080fd5b34801561019257600080fd5b506101ad60048036038101906101a89190612266565b610653565b6040516101ba91906122ae565b60405180910390f35b3480156101cf57600080fd5b506101d8610735565b6040516101e59190612359565b60405180910390f35b3480156101fa57600080fd5b50610215600480360381019061021091906123b1565b6107c7565b604051610222919061241f565b60405180910390f35b34801561023757600080fd5b50610252600480360381019061024d9190612466565b61080d565b005b34801561026057600080fd5b50610269610924565b60405161027691906124b5565b60405180910390f35b34801561028b57600080fd5b506102a660048036038101906102a191906124d0565b61092a565b005b3480156102b457600080fd5b506102bd61098a565b6040516102ca91906122ae565b60405180910390f35b3480156102df57600080fd5b506102fa60048036038101906102f59190612466565b61099d565b60405161030791906124b5565b60405180910390f35b34801561031c57600080fd5b50610337600480360381019061033291906124d0565b6109ce565b005b34801561034557600080fd5b50610360600480360381019061035b91906123b1565b6109ee565b60405161036d919061241f565b60405180910390f35b34801561038257600080fd5b5061039d600480360381019061039891906123b1565b610a74565b6040516103aa91906124b5565b60405180910390f35b3480156103bf57600080fd5b506103da60048036038101906103d591906123b1565b610a98565b005b3480156103e857600080fd5b5061040360048036038101906103fe9190612523565b610aaa565b60405161041091906124b5565b60405180910390f35b34801561042557600080fd5b5061042e610b61565b005b34801561043c57600080fd5b50610445610b75565b604051610452919061241f565b60405180910390f35b34801561046757600080fd5b50610470610b9f565b60405161047d9190612359565b60405180910390f35b34801561049257600080fd5b506104ad60048036038101906104a8919061257c565b610c31565b005b3480156104bb57600080fd5b506104d660048036038101906104d19190612523565b610c47565b6040516104e391906124b5565b60405180910390f35b3480156104f857600080fd5b50610513600480360381019061050e91906126f1565b610c5f565b005b34801561052157600080fd5b5061052a610cc1565b005b34801561053857600080fd5b50610553600480360381019061054e91906123b1565b610cf5565b6040516105609190612359565b60405180910390f35b34801561057557600080fd5b5061057e610e07565b60405161058b91906124b5565b60405180910390f35b6105ae60048036038101906105a99190612815565b610e0d565b005b3480156105bc57600080fd5b506105d760048036038101906105d2919061285e565b610f45565b6040516105e491906122ae565b60405180910390f35b3480156105f957600080fd5b50610614600480360381019061060f9190612523565b610fd9565b604051610621919061295c565b60405180910390f35b34801561063657600080fd5b50610651600480360381019061064c9190612523565b611070565b005b60007f80ac58cd000000000000000000000000000000000000000000000000000000007bffffffffffffffffffffffffffffffffffffffffffffffffffffffff1916827bffffffffffffffffffffffffffffffffffffffffffffffffffffffff1916148061071e57507f5b5e139f000000000000000000000000000000000000000000000000000000007bffffffffffffffffffffffffffffffffffffffffffffffffffffffff1916827bffffffffffffffffffffffffffffffffffffffffffffffffffffffff1916145b8061072e575061072d826110f3565b5b9050919050565b606060008054610744906129ad565b80601f0160208091040260200160405190810160405280929190818152602001828054610770906129ad565b80156107bd5780601f10610792576101008083540402835291602001916107bd565b820191906000526020600020905b8154815290600101906020018083116107a057829003601f168201915b5050505050905090565b60006107d28261115d565b6004600083815260200190815260200160002060009054906101000a900473ffffffffffffffffffffffffffffffffffffffff169050919050565b6000610818826109ee565b90508073ffffffffffffffffffffffffffffffffffffffff168373ffffffffffffffffffffffffffffffffffffffff1603610888576040517f08c379a000000000000000000000000000000000000000000000000000000000815260040161087f90612a50565b60405180910390fd5b8073ffffffffffffffffffffffffffffffffffffffff166108a76111a8565b73ffffffffffffffffffffffffffffffffffffffff1614806108d657506108d5816108d06111a8565b610f45565b5b610915576040517f08c379a000000000000000000000000000000000000000000000000000000000815260040161090c90612ae2565b60405180910390fd5b61091f83836111b0565b505050565b60085481565b61093b6109356111a8565b82611269565b61097a576040517f08c379a000000000000000000000000000000000000000000000000000000000815260040161097190612b74565b60405180910390fd5b6109858383836112fe565b505050565b600a60009054906101000a900460ff1681565b600d60205281600052604060002081815481106109b957600080fd5b90600052602060002001600091509150505481565b6109e983838360405180602001604052806000815250610c5f565b505050565b6000806109fa836115f7565b9050600073ffffffffffffffffffffffffffffffffffffffff168173ffffffffffffffffffffffffffffffffffffffff1603610a6b576040517f08c379a0000000000000000000000000000000000000000000000000000000008152600401610a6290612be0565b60405180910390fd5b80915050919050565b600b8181548110610a8457600080fd5b906000526020600020016000915090505481565b610aa0611634565b8060098190555050565b60008073ffffffffffffffffffffffffffffffffffffffff168273ffffffffffffffffffffffffffffffffffffffff1603610b1a576040517f08c379a0000000000000000000000000000000000000000000000000000000008152600401610b1190612c72565b60405180910390fd5b600360008373ffffffffffffffffffffffffffffffffffffffff1673ffffffffffffffffffffffffffffffffffffffff168152602001908152602001600020549050919050565b610b69611634565b610b7360006116b2565b565b6000600760009054906101000a900473ffffffffffffffffffffffffffffffffffffffff16905090565b606060018054610bae906129ad565b80601f0160208091040260200160405190810160405280929190818152602001828054610bda906129ad565b8015610c275780601f10610bfc57610100808354040283529160200191610c27565b820191906000526020600020905b815481529060010190602001808311610c0a57829003601f168201915b5050505050905090565b610c43610c3c6111a8565b8383611778565b5050565b600c6020528060005260406000206000915090505481565b610c70610c6a6111a8565b83611269565b610caf576040517f08c379a0000000000000000000000000000000000000000000000000000000008152600401610ca690612b74565b60405180910390fd5b610cbb848484846118e4565b50505050565b610cc9611634565b600a60009054906101000a900460ff1615600a60006101000a81548160ff021916908315150217905550565b6060610d008261115d565b6000600660008481526020019081526020016000208054610d20906129ad565b80601f0160208091040260200160405190810160405280929190818152602001828054610d4c906129ad565b8015610d995780601f10610d6e57610100808354040283529160200191610d99565b820191906000526020600020905b815481529060010190602001808311610d7c57829003601f168201915b505050505090506000610daa611940565b90506000815103610dbf578192505050610e02565b600082511115610df4578082604051602001610ddc929190612cce565b60405160208183030381529060405292505050610e02565b610dfd84611957565b925050505b919050565b60095481565b60085460095411610e53576040517f08c379a0000000000000000000000000000000000000000000000000000000008152600401610e4a90612d3e565b60405180910390fd5b600c60003373ffffffffffffffffffffffffffffffffffffffff1673ffffffffffffffffffffffffffffffffffffffff1681526020019081526020016000206000815480929190610ea390612d8d565b919050555060086000815480929190610ebb90612d8d565b919050555060006008549050600d60003373ffffffffffffffffffffffffffffffffffffffff1673ffffffffffffffffffffffffffffffffffffffff168152602001908152602001600020819080600181540180825580915050600190039060005260206000200160009091909190915055610f3733826119bf565b610f4181836119dd565b5050565b6000600560008473ffffffffffffffffffffffffffffffffffffffff1673ffffffffffffffffffffffffffffffffffffffff16815260200190815260200160002060008373ffffffffffffffffffffffffffffffffffffffff1673ffffffffffffffffffffffffffffffffffffffff16815260200190815260200160002060009054906101000a900460ff16905092915050565b6060600d60008373ffffffffffffffffffffffffffffffffffffffff1673ffffffffffffffffffffffffffffffffffffffff16815260200190815260200160002080548060200260200160405190810160405280929190818152602001828054801561106457602002820191906000526020600020905b815481526020019060010190808311611050575b50505050509050919050565b611078611634565b600073ffffffffffffffffffffffffffffffffffffffff168173ffffffffffffffffffffffffffffffffffffffff16036110e7576040517f08c379a00000000000000000000000000000000000000000000000000000000081526004016110de90612e47565b60405180910390fd5b6110f0816116b2565b50565b60007f01ffc9a7000000000000000000000000000000000000000000000000000000007bffffffffffffffffffffffffffffffffffffffffffffffffffffffff1916827bffffffffffffffffffffffffffffffffffffffffffffffffffffffff1916149050919050565b61116681611a4a565b6111a5576040517f08c379a000000000000000000000000000000000000000000000000000000000815260040161119c90612be0565b60405180910390fd5b50565b600033905090565b816004600083815260200190815260200160002060006101000a81548173ffffffffffffffffffffffffffffffffffffffff021916908373ffffffffffffffffffffffffffffffffffffffff160217905550808273ffffffffffffffffffffffffffffffffffffffff16611223836109ee565b73ffffffffffffffffffffffffffffffffffffffff167f8c5be1e5ebec7d5bd14f71427d1e84f3dd0314c0f7b2291e5b200ac8c7c3b92560405160405180910390a45050565b600080611275836109ee565b90508073ffffffffffffffffffffffffffffffffffffffff168473ffffffffffffffffffffffffffffffffffffffff1614806112b757506112b68185610f45565b5b806112f557508373ffffffffffffffffffffffffffffffffffffffff166112dd846107c7565b73ffffffffffffffffffffffffffffffffffffffff16145b91505092915050565b8273ffffffffffffffffffffffffffffffffffffffff1661131e826109ee565b73ffffffffffffffffffffffffffffffffffffffff1614611374576040517f08c379a000000000000000000000000000000000000000000000000000000000815260040161136b90612ed9565b60405180910390fd5b600073ffffffffffffffffffffffffffffffffffffffff168273ffffffffffffffffffffffffffffffffffffffff16036113e3576040517f08c379a00000000000000000000000000000000000000000000000000000000081526004016113da90612f6b565b60405180910390fd5b6113f08383836001611a8b565b8273ffffffffffffffffffffffffffffffffffffffff16611410826109ee565b73ffffffffffffffffffffffffffffffffffffffff1614611466576040517f08c379a000000000000000000000000000000000000000000000000000000000815260040161145d90612ed9565b60405180910390fd5b6004600082815260200190815260200160002060006101000a81549073ffffffffffffffffffffffffffffffffffffffff02191690556001600360008573ffffffffffffffffffffffffffffffffffffffff1673ffffffffffffffffffffffffffffffffffffffff168152602001908152602001600020600082825403925050819055506001600360008473ffffffffffffffffffffffffffffffffffffffff1673ffffffffffffffffffffffffffffffffffffffff16815260200190815260200160002060008282540192505081905550816002600083815260200190815260200160002060006101000a81548173ffffffffffffffffffffffffffffffffffffffff021916908373ffffffffffffffffffffffffffffffffffffffff160217905550808273ffffffffffffffffffffffffffffffffffffffff168473ffffffffffffffffffffffffffffffffffffffff167fddf252ad1be2c89b69c2b068fc378daa952ba7f163c4a11628f55a4df523b3ef60405160405180910390a46115f28383836001611bb1565b505050565b60006002600083815260200190815260200160002060009054906101000a900473ffffffffffffffffffffffffffffffffffffffff169050919050565b61163c6111a8565b73ffffffffffffffffffffffffffffffffffffffff1661165a610b75565b73ffffffffffffffffffffffffffffffffffffffff16146116b0576040517f08c379a00000000000000000000000000000000000000000000000000000000081526004016116a790612fd7565b60405180910390fd5b565b6000600760009054906101000a900473ffffffffffffffffffffffffffffffffffffffff16905081600760006101000a81548173ffffffffffffffffffffffffffffffffffffffff021916908373ffffffffffffffffffffffffffffffffffffffff1602179055508173ffffffffffffffffffffffffffffffffffffffff168173ffffffffffffffffffffffffffffffffffffffff167f8be0079c531659141344cd1fd0a4f28419497f9722a3daafe3b4186f6b6457e060405160405180910390a35050565b8173ffffffffffffffffffffffffffffffffffffffff168373ffffffffffffffffffffffffffffffffffffffff16036117e6576040517f08c379a00000000000000000000000000000000000000000000000000000000081526004016117dd90613043565b60405180910390fd5b80600560008573ffffffffffffffffffffffffffffffffffffffff1673ffffffffffffffffffffffffffffffffffffffff16815260200190815260200160002060008473ffffffffffffffffffffffffffffffffffffffff1673ffffffffffffffffffffffffffffffffffffffff16815260200190815260200160002060006101000a81548160ff0219169083151502179055508173ffffffffffffffffffffffffffffffffffffffff168373ffffffffffffffffffffffffffffffffffffffff167f17307eab39ab6107e8899845ad3d59bd9653f200f220920489ca2b5937696c31836040516118d791906122ae565b60405180910390a3505050565b6118ef8484846112fe565b6118fb84848484611bb7565b61193a576040517f08c379a0000000000000000000000000000000000000000000000000000000008152600401611931906130d5565b60405180910390fd5b50505050565b606060405180602001604052806000815250905090565b60606119628261115d565b600061196c611940565b9050600081511161198c57604051806020016040528060008152506119b7565b8061199684611d3e565b6040516020016119a7929190612cce565b6040516020818303038152906040525b915050919050565b6119d9828260405180602001604052806000815250611e0c565b5050565b6119e682611a4a565b611a25576040517f08c379a0000000000000000000000000000000000000000000000000000000008152600401611a1c90613167565b60405180910390fd5b80600660008481526020019081526020016000209081611a459190613333565b505050565b60008073ffffffffffffffffffffffffffffffffffffffff16611a6c836115f7565b73ffffffffffffffffffffffffffffffffffffffff1614159050919050565b6001811115611bab57600073ffffffffffffffffffffffffffffffffffffffff168473ffffffffffffffffffffffffffffffffffffffff1614611b1f5780600360008673ffffffffffffffffffffffffffffffffffffffff1673ffffffffffffffffffffffffffffffffffffffff1681526020019081526020016000206000828254611b179190613405565b925050819055505b600073ffffffffffffffffffffffffffffffffffffffff168373ffffffffffffffffffffffffffffffffffffffff1614611baa5780600360008573ffffffffffffffffffffffffffffffffffffffff1673ffffffffffffffffffffffffffffffffffffffff1681526020019081526020016000206000828254611ba29190613439565b925050819055505b5b50505050565b50505050565b6000611bd88473ffffffffffffffffffffffffffffffffffffffff16611e67565b15611d31578373ffffffffffffffffffffffffffffffffffffffff1663150b7a02611c016111a8565b8786866040518563ffffffff1660e01b8152600401611c2394939291906134c2565b6020604051808303816000875af1925050508015611c5f57506040513d601f19601f82011682018060405250810190611c5c9190613523565b60015b611ce1573d8060008114611c8f576040519150601f19603f3d011682016040523d82523d6000602084013e611c94565b606091505b506000815103611cd9576040517f08c379a0000000000000000000000000000000000000000000000000000000008152600401611cd0906130d5565b60405180910390fd5b805181602001fd5b63150b7a0260e01b7bffffffffffffffffffffffffffffffffffffffffffffffffffffffff1916817bffffffffffffffffffffffffffffffffffffffffffffffffffffffff191614915050611d36565b600190505b949350505050565b606060006001611d4d84611e8a565b01905060008167ffffffffffffffff811115611d6c57611d6b6125c6565b5b6040519080825280601f01601f191660200182016040528015611d9e5781602001600182028036833780820191505090505b509050600082602001820190505b600115611e01578080600190039150507f3031323334353637383961626364656600000000000000000000000000000000600a86061a8153600a8581611df557611df4613550565b5b04945060008503611dac575b819350505050919050565b611e168383611fdd565b611e236000848484611bb7565b611e62576040517f08c379a0000000000000000000000000000000000000000000000000000000008152600401611e59906130d5565b60405180910390fd5b505050565b6000808273ffffffffffffffffffffffffffffffffffffffff163b119050919050565b600080600090507a184f03e93ff9f4daa797ed6e38ed64bf6a1f0100000000000000008310611ee8577a184f03e93ff9f4daa797ed6e38ed64bf6a1f0100000000000000008381611ede57611edd613550565b5b0492506040810190505b6d04ee2d6d415b85acef81000000008310611f25576d04ee2d6d415b85acef81000000008381611f1b57611f1a613550565b5b0492506020810190505b662386f26fc100008310611f5457662386f26fc100008381611f4a57611f49613550565b5b0492506010810190505b6305f5e1008310611f7d576305f5e1008381611f7357611f72613550565b5b0492506008810190505b6127108310611fa2576127108381611f9857611f97613550565b5b0492506004810190505b60648310611fc55760648381611fbb57611fba613550565b5b0492506002810190505b600a8310611fd4576001810190505b80915050919050565b600073ffffffffffffffffffffffffffffffffffffffff168273ffffffffffffffffffffffffffffffffffffffff160361204c576040517f08c379a0000000000000000000000000000000000000000000000000000000008152600401612043906135cb565b60405180910390fd5b61205581611a4a565b15612095576040517f08c379a000000000000000000000000000000000000000000000000000000000815260040161208c90613637565b60405180910390fd5b6120a3600083836001611a8b565b6120ac81611a4a565b156120ec576040517f08c379a00000000000000000000000000000000000000000000000000000000081526004016120e390613637565b60405180910390fd5b6001600360008473ffffffffffffffffffffffffffffffffffffffff1673ffffffffffffffffffffffffffffffffffffffff16815260200190815260200160002060008282540192505081905550816002600083815260200190815260200160002060006101000a81548173ffffffffffffffffffffffffffffffffffffffff021916908373ffffffffffffffffffffffffffffffffffffffff160217905550808273ffffffffffffffffffffffffffffffffffffffff16600073ffffffffffffffffffffffffffffffffffffffff167fddf252ad1be2c89b69c2b068fc378daa952ba7f163c4a11628f55a4df523b3ef60405160405180910390a46121f6600083836001611bb1565b5050565b6000604051905090565b600080fd5b600080fd5b60007fffffffff0000000000000000000000000000000000000000000000000000000082169050919050565b6122438161220e565b811461224e57600080fd5b50565b6000813590506122608161223a565b92915050565b60006020828403121561227c5761227b612204565b5b600061228a84828501612251565b91505092915050565b60008115159050919050565b6122a881612293565b82525050565b60006020820190506122c3600083018461229f565b92915050565b600081519050919050565b600082825260208201905092915050565b60005b838110156123035780820151818401526020810190506122e8565b60008484015250505050565b6000601f19601f8301169050919050565b600061232b826122c9565b61233581856122d4565b93506123458185602086016122e5565b61234e8161230f565b840191505092915050565b600060208201905081810360008301526123738184612320565b905092915050565b6000819050919050565b61238e8161237b565b811461239957600080fd5b50565b6000813590506123ab81612385565b92915050565b6000602082840312156123c7576123c6612204565b5b60006123d58482850161239c565b91505092915050565b600073ffffffffffffffffffffffffffffffffffffffff82169050919050565b6000612409826123de565b9050919050565b612419816123fe565b82525050565b60006020820190506124346000830184612410565b92915050565b612443816123fe565b811461244e57600080fd5b50565b6000813590506124608161243a565b92915050565b6000806040838503121561247d5761247c612204565b5b600061248b85828601612451565b925050602061249c8582860161239c565b9150509250929050565b6124af8161237b565b82525050565b60006020820190506124ca60008301846124a6565b92915050565b6000806000606084860312156124e9576124e8612204565b5b60006124f786828701612451565b935050602061250886828701612451565b92505060406125198682870161239c565b9150509250925092565b60006020828403121561253957612538612204565b5b600061254784828501612451565b91505092915050565b61255981612293565b811461256457600080fd5b50565b60008135905061257681612550565b92915050565b6000806040838503121561259357612592612204565b5b60006125a185828601612451565b92505060206125b285828601612567565b9150509250929050565b600080fd5b600080fd5b7f4e487b7100000000000000000000000000000000000000000000000000000000600052604160045260246000fd5b6125fe8261230f565b810181811067ffffffffffffffff8211171561261d5761261c6125c6565b5b80604052505050565b60006126306121fa565b905061263c82826125f5565b919050565b600067ffffffffffffffff82111561265c5761265b6125c6565b5b6126658261230f565b9050602081019050919050565b82818337600083830152505050565b600061269461268f84612641565b612626565b9050828152602081018484840111156126b0576126af6125c1565b5b6126bb848285612672565b509392505050565b600082601f8301126126d8576126d76125bc565b5b81356126e8848260208601612681565b91505092915050565b6000806000806080858703121561270b5761270a612204565b5b600061271987828801612451565b945050602061272a87828801612451565b935050604061273b8782880161239c565b925050606085013567ffffffffffffffff81111561275c5761275b612209565b5b612768878288016126c3565b91505092959194509250565b600067ffffffffffffffff82111561278f5761278e6125c6565b5b6127988261230f565b9050602081019050919050565b60006127b86127b384612774565b612626565b9050828152602081018484840111156127d4576127d36125c1565b5b6127df848285612672565b509392505050565b600082601f8301126127fc576127fb6125bc565b5b813561280c8482602086016127a5565b91505092915050565b60006020828403121561282b5761282a612204565b5b600082013567ffffffffffffffff81111561284957612848612209565b5b612855848285016127e7565b91505092915050565b6000806040838503121561287557612874612204565b5b600061288385828601612451565b925050602061289485828601612451565b9150509250929050565b600081519050919050565b600082825260208201905092915050565b6000819050602082019050919050565b6128d38161237b565b82525050565b60006128e583836128ca565b60208301905092915050565b6000602082019050919050565b60006129098261289e565b61291381856128a9565b935061291e836128ba565b8060005b8381101561294f57815161293688826128d9565b9750612941836128f1565b925050600181019050612922565b5085935050505092915050565b6000602082019050818103600083015261297681846128fe565b905092915050565b7f4e487b7100000000000000000000000000000000000000000000000000000000600052602260045260246000fd5b600060028204905060018216806129c557607f821691505b6020821081036129d8576129d761297e565b5b50919050565b7f4552433732313a20617070726f76616c20746f2063757272656e74206f776e6560008201527f7200000000000000000000000000000000000000000000000000000000000000602082015250565b6000612a3a6021836122d4565b9150612a45826129de565b604082019050919050565b60006020820190508181036000830152612a6981612a2d565b9050919050565b7f4552433732313a20617070726f76652063616c6c6572206973206e6f7420746f60008201527f6b656e206f776e6572206f7220617070726f76656420666f7220616c6c000000602082015250565b6000612acc603d836122d4565b9150612ad782612a70565b604082019050919050565b60006020820190508181036000830152612afb81612abf565b9050919050565b7f4552433732313a2063616c6c6572206973206e6f7420746f6b656e206f776e6560008201527f72206f7220617070726f76656400000000000000000000000000000000000000602082015250565b6000612b5e602d836122d4565b9150612b6982612b02565b604082019050919050565b60006020820190508181036000830152612b8d81612b51565b9050919050565b7f4552433732313a20696e76616c696420746f6b656e2049440000000000000000600082015250565b6000612bca6018836122d4565b9150612bd582612b94565b602082019050919050565b60006020820190508181036000830152612bf981612bbd565b9050919050565b7f4552433732313a2061646472657373207a65726f206973206e6f74206120766160008201527f6c6964206f776e65720000000000000000000000000000000000000000000000602082015250565b6000612c5c6029836122d4565b9150612c6782612c00565b604082019050919050565b60006020820190508181036000830152612c8b81612c4f565b9050919050565b600081905092915050565b6000612ca8826122c9565b612cb28185612c92565b9350612cc28185602086016122e5565b80840191505092915050565b6000612cda8285612c9d565b9150612ce68284612c9d565b91508190509392505050565b7f536f6c64204f7574202120000000000000000000000000000000000000000000600082015250565b6000612d28600b836122d4565b9150612d3382612cf2565b602082019050919050565b60006020820190508181036000830152612d5781612d1b565b9050919050565b7f4e487b7100000000000000000000000000000000000000000000000000000000600052601160045260246000fd5b6000612d988261237b565b91507fffffffffffffffffffffffffffffffffffffffffffffffffffffffffffffffff8203612dca57612dc9612d5e565b5b600182019050919050565b7f4f776e61626c653a206e6577206f776e657220697320746865207a65726f206160008201527f6464726573730000000000000000000000000000000000000000000000000000602082015250565b6000612e316026836122d4565b9150612e3c82612dd5565b604082019050919050565b60006020820190508181036000830152612e6081612e24565b9050919050565b7f4552433732313a207472616e736665722066726f6d20696e636f72726563742060008201527f6f776e6572000000000000000000000000000000000000000000000000000000602082015250565b6000612ec36025836122d4565b9150612ece82612e67565b604082019050919050565b60006020820190508181036000830152612ef281612eb6565b9050919050565b7f4552433732313a207472616e7366657220746f20746865207a65726f2061646460008201527f7265737300000000000000000000000000000000000000000000000000000000602082015250565b6000612f556024836122d4565b9150612f6082612ef9565b604082019050919050565b60006020820190508181036000830152612f8481612f48565b9050919050565b7f4f776e61626c653a2063616c6c6572206973206e6f7420746865206f776e6572600082015250565b6000612fc16020836122d4565b9150612fcc82612f8b565b602082019050919050565b60006020820190508181036000830152612ff081612fb4565b9050919050565b7f4552433732313a20617070726f766520746f2063616c6c657200000000000000600082015250565b600061302d6019836122d4565b915061303882612ff7565b602082019050919050565b6000602082019050818103600083015261305c81613020565b9050919050565b7f4552433732313a207472616e7366657220746f206e6f6e20455243373231526560008201527f63656976657220696d706c656d656e7465720000000000000000000000000000602082015250565b60006130bf6032836122d4565b91506130ca82613063565b604082019050919050565b600060208201905081810360008301526130ee816130b2565b9050919050565b7f45524337323155524953746f726167653a2055524920736574206f66206e6f6e60008201527f6578697374656e7420746f6b656e000000000000000000000000000000000000602082015250565b6000613151602e836122d4565b915061315c826130f5565b604082019050919050565b6000602082019050818103600083015261318081613144565b9050919050565b60008190508160005260206000209050919050565b60006020601f8301049050919050565b600082821b905092915050565b6000600883026131e97fffffffffffffffffffffffffffffffffffffffffffffffffffffffffffffffff826131ac565b6131f386836131ac565b95508019841693508086168417925050509392505050565b6000819050919050565b600061323061322b6132268461237b565b61320b565b61237b565b9050919050565b6000819050919050565b61324a83613215565b61325e61325682613237565b8484546131b9565b825550505050565b600090565b613273613266565b61327e818484613241565b505050565b5b818110156132a25761329760008261326b565b600181019050613284565b5050565b601f8211156132e7576132b881613187565b6132c18461319c565b810160208510156132d0578190505b6132e46132dc8561319c565b830182613283565b50505b505050565b600082821c905092915050565b600061330a600019846008026132ec565b1980831691505092915050565b600061332383836132f9565b9150826002028217905092915050565b61333c826122c9565b67ffffffffffffffff811115613355576133546125c6565b5b61335f82546129ad565b61336a8282856132a6565b600060209050601f83116001811461339d576000841561338b578287015190505b6133958582613317565b8655506133fd565b601f1984166133ab86613187565b60005b828110156133d3578489015182556001820191506020850194506020810190506133ae565b868310156133f057848901516133ec601f8916826132f9565b8355505b6001600288020188555050505b505050505050565b60006134108261237b565b915061341b8361237b565b925082820390508181111561343357613432612d5e565b5b92915050565b60006134448261237b565b915061344f8361237b565b925082820190508082111561346757613466612d5e565b5b92915050565b600081519050919050565b600082825260208201905092915050565b60006134948261346d565b61349e8185613478565b93506134ae8185602086016122e5565b6134b78161230f565b840191505092915050565b60006080820190506134d76000830187612410565b6134e46020830186612410565b6134f160408301856124a6565b81810360608301526135038184613489565b905095945050505050565b60008151905061351d8161223a565b92915050565b60006020828403121561353957613538612204565b5b60006135478482850161350e565b91505092915050565b7f4e487b7100000000000000000000000000000000000000000000000000000000600052601260045260246000fd5b7f4552433732313a206d696e7420746f20746865207a65726f2061646472657373600082015250565b60006135b56020836122d4565b91506135c08261357f565b602082019050919050565b600060208201905081810360008301526135e4816135a8565b9050919050565b7f4552433732313a20746f6b656e20616c7265616479206d696e74656400000000600082015250565b6000613621601c836122d4565b915061362c826135eb565b602082019050919050565b6000602082019050818103600083015261365081613614565b905091905056fea2646970667358221220629b3f1b1a855f4c37d445b2d21b97e7e1f232e9962e89467582596b2157b55364736f6c63430008110033",
  "linkReferences": {},
  "deployedLinkReferences": {}
}