{
  "_format": "hh-sol-artifact-1",
  "contractName": "PokemonCards",
  "sourceName": "contracts/PokemonCards.sol",
  "abi": [
    {
      "inputs": [],
      "stateMutability": "payable",
      "type": "constructor"
    },
    {
      "anonymous": false,
      "inputs": [
        {
          "indexed": true,
          "internalType": "address",
          "name": "owner",
          "type": "address"
        },
        {
          "indexed": true,
          "internalType": "address",
          "name": "approved",
          "type": "address"
        },
        {
          "indexed": true,
          "internalType": "uint256",
          "name": "tokenId",
          "type": "uint256"
        }
      ],
      "name": "Approval",
      "type": "event"
    },
    {
      "anonymous": false,
      "inputs": [
        {
          "indexed": true,
          "internalType": "address",
          "name": "owner",
          "type": "address"
        },
        {
          "indexed": true,
          "internalType": "address",
          "name": "operator",
          "type": "address"
        },
        {
          "indexed": false,
          "internalType": "bool",
          "name": "approved",
          "type": "bool"
        }
      ],
      "name": "ApprovalForAll",
      "type": "event"
    },
    {
      "anonymous": false,
      "inputs": [
        {
          "indexed": true,
          "internalType": "address",
          "name": "_signer",
          "type": "address"
        },
        {
          "indexed": true,
          "internalType": "uint256",
          "name": "_id",
          "type": "uint256"
        }
      ],
      "name": "Bid",
      "type": "event"
    },
    {
      "anonymous": false,
      "inputs": [
        {
          "indexed": true,
          "internalType": "address",
          "name": "_signer",
          "type": "address"
        },
        {
          "indexed": true,
          "internalType": "uint256",
          "name": "_id",
          "type": "uint256"
        }
      ],
      "name": "Cancel",
      "type": "event"
    },
    {
      "anonymous": false,
      "inputs": [
        {
          "indexed": true,
          "internalType": "address",
          "name": "_signer",
          "type": "address"
        },
        {
          "indexed": true,
          "internalType": "uint256",
          "name": "_id",
          "type": "uint256"
        }
      ],
      "name": "CreatorConfirmed",
      "type": "event"
    },
    {
      "anonymous": false,
      "inputs": [
        {
          "indexed": true,
          "internalType": "address",
          "name": "_signer",
          "type": "address"
        },
        {
          "indexed": true,
          "internalType": "uint256",
          "name": "_id",
          "type": "uint256"
        }
      ],
      "name": "DealerConfirmed",
      "type": "event"
    },
    {
      "anonymous": false,
      "inputs": [
        {
          "indexed": true,
          "internalType": "address",
          "name": "_from",
          "type": "address"
        },
        {
          "indexed": true,
          "internalType": "address",
          "name": "_to",
          "type": "address"
        },
        {
          "indexed": true,
          "internalType": "uint256",
          "name": "_id",
          "type": "uint256"
        }
      ],
      "name": "FinalizeTrade",
      "type": "event"
    },
    {
      "anonymous": false,
      "inputs": [
        {
          "indexed": true,
          "internalType": "address",
          "name": "_signer",
          "type": "address"
        },
        {
          "indexed": true,
          "internalType": "uint256",
          "name": "_id",
          "type": "uint256"
        }
      ],
      "name": "Minted",
      "type": "event"
    },
    {
      "anonymous": false,
      "inputs": [
        {
          "indexed": true,
          "internalType": "address",
          "name": "previousOwner",
          "type": "address"
        },
        {
          "indexed": true,
          "internalType": "address",
          "name": "newOwner",
          "type": "address"
        }
      ],
      "name": "OwnershipTransferred",
      "type": "event"
    },
    {
      "anonymous": false,
      "inputs": [
        {
          "indexed": true,
          "internalType": "address",
          "name": "_signer",
          "type": "address"
        },
        {
          "indexed": true,
          "internalType": "uint256",
          "name": "_id",
          "type": "uint256"
        }
      ],
      "name": "TradeCreated",
      "type": "event"
    },
    {
      "anonymous": false,
      "inputs": [
        {
          "indexed": true,
          "internalType": "address",
          "name": "from",
          "type": "address"
        },
        {
          "indexed": true,
          "internalType": "address",
          "name": "to",
          "type": "address"
        },
        {
          "indexed": true,
          "internalType": "uint256",
          "name": "tokenId",
          "type": "uint256"
        }
      ],
      "name": "Transfer",
      "type": "event"
    },
    {
      "inputs": [
        {
          "internalType": "uint256",
          "name": "",
          "type": "uint256"
        }
      ],
      "name": "allTrades",
      "outputs": [
        {
          "internalType": "address",
          "name": "creator",
          "type": "address"
        },
        {
          "internalType": "uint256",
          "name": "creatorTokenId",
          "type": "uint256"
        },
        {
          "internalType": "bool",
          "name": "isCompleted",
          "type": "bool"
        },
        {
          "internalType": "uint256",
          "name": "tradeId",
          "type": "uint256"
        },
        {
          "internalType": "bool",
          "name": "creatorConfirm",
          "type": "bool"
        },
        {
          "internalType": "bool",
          "name": "dealerConfirm",
          "type": "bool"
        },
        {
          "internalType": "address",
          "name": "dealer",
          "type": "address"
        },
        {
          "internalType": "uint256",
          "name": "dealerTokenId",
          "type": "uint256"
        }
      ],
      "stateMutability": "view",
      "type": "function"
    },
    {
      "inputs": [
        {
          "internalType": "address",
          "name": "to",
          "type": "address"
        },
        {
          "internalType": "uint256",
          "name": "tokenId",
          "type": "uint256"
        }
      ],
      "name": "approve",
      "outputs": [],
      "stateMutability": "nonpayable",
      "type": "function"
    },
    {
      "inputs": [
        {
          "internalType": "uint256",
          "name": "_tradeId",
          "type": "uint256"
        }
      ],
      "name": "approveTrade",
      "outputs": [],
      "stateMutability": "payable",
      "type": "function"
    },
    {
      "inputs": [
        {
          "internalType": "address",
          "name": "owner",
          "type": "address"
        }
      ],
      "name": "balanceOf",
      "outputs": [
        {
          "internalType": "uint256",
          "name": "",
          "type": "uint256"
        }
      ],
      "stateMutability": "view",
      "type": "function"
    },
    {
      "inputs": [
        {
          "internalType": "uint256",
          "name": "_tradeId",
          "type": "uint256"
        },
        {
          "internalType": "uint256",
          "name": "_delaerTokenId",
          "type": "uint256"
        }
      ],
      "name": "bidTrade",
      "outputs": [],
      "stateMutability": "payable",
      "type": "function"
    },
    {
      "inputs": [
        {
          "internalType": "uint256",
          "name": "_tradeId",
          "type": "uint256"
        }
      ],
      "name": "cancelTrade",
      "outputs": [],
      "stateMutability": "payable",
      "type": "function"
    },
    {
      "inputs": [
        {
          "internalType": "uint256",
          "name": "_tradeId",
          "type": "uint256"
        }
      ],
      "name": "finalizeTrade",
      "outputs": [],
      "stateMutability": "payable",
      "type": "function"
    },
    {
      "inputs": [
        {
          "internalType": "address",
          "name": "_addr",
          "type": "address"
        }
      ],
      "name": "getAll",
      "outputs": [
        {
          "internalType": "uint256[]",
          "name": "",
          "type": "uint256[]"
        }
      ],
      "stateMutability": "view",
      "type": "function"
    },
    {
      "inputs": [],
      "name": "getAlltrades",
      "outputs": [
        {
          "internalType": "uint256",
          "name": "",
          "type": "uint256"
        }
      ],
      "stateMutability": "view",
      "type": "function"
    },
    {
      "inputs": [
        {
          "internalType": "uint256",
          "name": "tokenId",
          "type": "uint256"
        }
      ],
      "name": "getApproved",
      "outputs": [
        {
          "internalType": "address",
          "name": "",
          "type": "address"
        }
      ],
      "stateMutability": "view",
      "type": "function"
    },
    {
      "inputs": [
        {
          "internalType": "uint256",
          "name": "",
          "type": "uint256"
        }
      ],
      "name": "hasTokenId",
      "outputs": [
        {
          "internalType": "uint256",
          "name": "",
          "type": "uint256"
        }
      ],
      "stateMutability": "view",
      "type": "function"
    },
    {
      "inputs": [
        {
          "internalType": "address",
          "name": "owner",
          "type": "address"
        },
        {
          "internalType": "address",
          "name": "operator",
          "type": "address"
        }
      ],
      "name": "isApprovedForAll",
      "outputs": [
        {
          "internalType": "bool",
          "name": "",
          "type": "bool"
        }
      ],
      "stateMutability": "view",
      "type": "function"
    },
    {
      "inputs": [],
      "name": "isMintEnabled",
      "outputs": [
        {
          "internalType": "bool",
          "name": "",
          "type": "bool"
        }
      ],
      "stateMutability": "view",
      "type": "function"
    },
    {
      "inputs": [
        {
          "internalType": "address",
          "name": "",
          "type": "address"
        }
      ],
      "name": "isTrading",
      "outputs": [
        {
          "internalType": "bool",
          "name": "",
          "type": "bool"
        }
      ],
      "stateMutability": "view",
      "type": "function"
    },
    {
      "inputs": [],
      "name": "maxSupply",
      "outputs": [
        {
          "internalType": "uint256",
          "name": "",
          "type": "uint256"
        }
      ],
      "stateMutability": "view",
      "type": "function"
    },
    {
      "inputs": [
        {
          "internalType": "string",
          "name": "tokenURI",
          "type": "string"
        }
      ],
      "name": "mint",
      "outputs": [],
      "stateMutability": "payable",
      "type": "function"
    },
    {
      "inputs": [
        {
          "internalType": "address",
          "name": "",
          "type": "address"
        }
      ],
      "name": "mintedWallets",
      "outputs": [
        {
          "internalType": "uint256",
          "name": "",
          "type": "uint256"
        }
      ],
      "stateMutability": "view",
      "type": "function"
    },
    {
      "inputs": [],
      "name": "name",
      "outputs": [
        {
          "internalType": "string",
          "name": "",
          "type": "string"
        }
      ],
      "stateMutability": "view",
      "type": "function"
    },
    {
      "inputs": [
        {
          "internalType": "address",
          "name": "",
          "type": "address"
        },
        {
          "internalType": "uint256",
          "name": "",
          "type": "uint256"
        }
      ],
      "name": "ownedNfts",
      "outputs": [
        {
          "internalType": "uint256",
          "name": "",
          "type": "uint256"
        }
      ],
      "stateMutability": "view",
      "type": "function"
    },
    {
      "inputs": [],
      "name": "owner",
      "outputs": [
        {
          "internalType": "address",
          "name": "",
          "type": "address"
        }
      ],
      "stateMutability": "view",
      "type": "function"
    },
    {
      "inputs": [
        {
          "internalType": "uint256",
          "name": "tokenId",
          "type": "uint256"
        }
      ],
      "name": "ownerOf",
      "outputs": [
        {
          "internalType": "address",
          "name": "",
          "type": "address"
        }
      ],
      "stateMutability": "view",
      "type": "function"
    },
    {
      "inputs": [
        {
          "internalType": "address",
          "name": "_from",
          "type": "address"
        },
        {
          "internalType": "uint256",
          "name": "_tokenId",
          "type": "uint256"
        }
      ],
      "name": "receiveToken",
      "outputs": [],
      "stateMutability": "payable",
      "type": "function"
    },
    {
      "inputs": [],
      "name": "renounceOwnership",
      "outputs": [],
      "stateMutability": "nonpayable",
      "type": "function"
    },
    {
      "inputs": [
        {
          "internalType": "address",
          "name": "from",
          "type": "address"
        },
        {
          "internalType": "address",
          "name": "to",
          "type": "address"
        },
        {
          "internalType": "uint256",
          "name": "tokenId",
          "type": "uint256"
        }
      ],
      "name": "safeTransferFrom",
      "outputs": [],
      "stateMutability": "nonpayable",
      "type": "function"
    },
    {
      "inputs": [
        {
          "internalType": "address",
          "name": "from",
          "type": "address"
        },
        {
          "internalType": "address",
          "name": "to",
          "type": "address"
        },
        {
          "internalType": "uint256",
          "name": "tokenId",
          "type": "uint256"
        },
        {
          "internalType": "bytes",
          "name": "data",
          "type": "bytes"
        }
      ],
      "name": "safeTransferFrom",
      "outputs": [],
      "stateMutability": "nonpayable",
      "type": "function"
    },
    {
      "inputs": [
        {
          "internalType": "address",
          "name": "operator",
          "type": "address"
        },
        {
          "internalType": "bool",
          "name": "approved",
          "type": "bool"
        }
      ],
      "name": "setApprovalForAll",
      "outputs": [],
      "stateMutability": "nonpayable",
      "type": "function"
    },
    {
      "inputs": [
        {
          "internalType": "uint256",
          "name": "_maxSupply",
          "type": "uint256"
        }
      ],
      "name": "setMaxSupply",
      "outputs": [],
      "stateMutability": "nonpayable",
      "type": "function"
    },
    {
      "inputs": [
        {
          "internalType": "uint256",
          "name": "_creatorTokenId",
          "type": "uint256"
        }
      ],
      "name": "setTrade",
      "outputs": [],
      "stateMutability": "payable",
      "type": "function"
    },
    {
      "inputs": [
        {
          "internalType": "bytes4",
          "name": "interfaceId",
          "type": "bytes4"
        }
      ],
      "name": "supportsInterface",
      "outputs": [
        {
          "internalType": "bool",
          "name": "",
          "type": "bool"
        }
      ],
      "stateMutability": "view",
      "type": "function"
    },
    {
      "inputs": [],
      "name": "symbol",
      "outputs": [
        {
          "internalType": "string",
          "name": "",
          "type": "string"
        }
      ],
      "stateMutability": "view",
      "type": "function"
    },
    {
      "inputs": [],
      "name": "toggleIsMintEnabled",
      "outputs": [],
      "stateMutability": "nonpayable",
      "type": "function"
    },
    {
      "inputs": [
        {
          "internalType": "uint256",
          "name": "tokenId",
          "type": "uint256"
        }
      ],
      "name": "tokenURI",
      "outputs": [
        {
          "internalType": "string",
          "name": "",
          "type": "string"
        }
      ],
      "stateMutability": "view",
      "type": "function"
    },
    {
      "inputs": [],
      "name": "totalSupply",
      "outputs": [
        {
          "internalType": "uint256",
          "name": "",
          "type": "uint256"
        }
      ],
      "stateMutability": "view",
      "type": "function"
    },
    {
      "inputs": [],
      "name": "totalTrades",
      "outputs": [
        {
          "internalType": "uint256",
          "name": "",
          "type": "uint256"
        }
      ],
      "stateMutability": "view",
      "type": "function"
    },
    {
      "inputs": [
        {
          "internalType": "uint256",
          "name": "",
          "type": "uint256"
        }
      ],
      "name": "trades",
      "outputs": [
        {
          "internalType": "address",
          "name": "creator",
          "type": "address"
        },
        {
          "internalType": "uint256",
          "name": "creatorTokenId",
          "type": "uint256"
        },
        {
          "internalType": "bool",
          "name": "isCompleted",
          "type": "bool"
        },
        {
          "internalType": "uint256",
          "name": "tradeId",
          "type": "uint256"
        },
        {
          "internalType": "bool",
          "name": "creatorConfirm",
          "type": "bool"
        },
        {
          "internalType": "bool",
          "name": "dealerConfirm",
          "type": "bool"
        },
        {
          "internalType": "address",
          "name": "dealer",
          "type": "address"
        },
        {
          "internalType": "uint256",
          "name": "dealerTokenId",
          "type": "uint256"
        }
      ],
      "stateMutability": "view",
      "type": "function"
    },
    {
      "inputs": [
        {
          "internalType": "address",
          "name": "from",
          "type": "address"
        },
        {
          "internalType": "address",
          "name": "to",
          "type": "address"
        },
        {
          "internalType": "uint256",
          "name": "tokenId",
          "type": "uint256"
        }
      ],
      "name": "transferFrom",
      "outputs": [],
      "stateMutability": "nonpayable",
      "type": "function"
    },
    {
      "inputs": [
        {
          "internalType": "address",
          "name": "newOwner",
          "type": "address"
        }
      ],
      "name": "transferOwnership",
      "outputs": [],
      "stateMutability": "nonpayable",
      "type": "function"
    },
    {
      "inputs": [
        {
          "internalType": "address",
          "name": "",
          "type": "address"
        },
        {
          "internalType": "uint256",
          "name": "",
          "type": "uint256"
        }
      ],
      "name": "userTrades",
      "outputs": [
        {
          "internalType": "address",
          "name": "creator",
          "type": "address"
        },
        {
          "internalType": "uint256",
          "name": "creatorTokenId",
          "type": "uint256"
        },
        {
          "internalType": "bool",
          "name": "isCompleted",
          "type": "bool"
        },
        {
          "internalType": "uint256",
          "name": "tradeId",
          "type": "uint256"
        },
        {
          "internalType": "bool",
          "name": "creatorConfirm",
          "type": "bool"
        },
        {
          "internalType": "bool",
          "name": "dealerConfirm",
          "type": "bool"
        },
        {
          "internalType": "address",
          "name": "dealer",
          "type": "address"
        },
        {
          "internalType": "uint256",
          "name": "dealerTokenId",
          "type": "uint256"
        }
      ],
      "stateMutability": "view",
      "type": "function"
    }
  ],
  "bytecode": "0x60806040526001600a60006101000a81548160ff0219169083151502179055506000600f556040518060400160405280600c81526020017f506f6b656d6f6e204361726400000000000000000000000000000000000000008152506040518060400160405280600481526020017f504f4b45000000000000000000000000000000000000000000000000000000008152508160009081620000a191906200042c565b508060019081620000b391906200042c565b505050620000d6620000ca620000e460201b60201c565b620000ec60201b60201c565b601460098190555062000513565b600033905090565b6000600760009054906101000a900473ffffffffffffffffffffffffffffffffffffffff16905081600760006101000a81548173ffffffffffffffffffffffffffffffffffffffff021916908373ffffffffffffffffffffffffffffffffffffffff1602179055508173ffffffffffffffffffffffffffffffffffffffff168173ffffffffffffffffffffffffffffffffffffffff167f8be0079c531659141344cd1fd0a4f28419497f9722a3daafe3b4186f6b6457e060405160405180910390a35050565b600081519050919050565b7f4e487b7100000000000000000000000000000000000000000000000000000000600052604160045260246000fd5b7f4e487b7100000000000000000000000000000000000000000000000000000000600052602260045260246000fd5b600060028204905060018216806200023457607f821691505b6020821081036200024a5762000249620001ec565b5b50919050565b60008190508160005260206000209050919050565b60006020601f8301049050919050565b600082821b905092915050565b600060088302620002b47fffffffffffffffffffffffffffffffffffffffffffffffffffffffffffffffff8262000275565b620002c0868362000275565b95508019841693508086168417925050509392505050565b6000819050919050565b6000819050919050565b60006200030d620003076200030184620002d8565b620002e2565b620002d8565b9050919050565b6000819050919050565b6200032983620002ec565b62000341620003388262000314565b84845462000282565b825550505050565b600090565b6200035862000349565b620003658184846200031e565b505050565b5b818110156200038d57620003816000826200034e565b6001810190506200036b565b5050565b601f821115620003dc57620003a68162000250565b620003b18462000265565b81016020851015620003c1578190505b620003d9620003d08562000265565b8301826200036a565b50505b505050565b600082821c905092915050565b60006200040160001984600802620003e1565b1980831691505092915050565b60006200041c8383620003ee565b9150826002028217905092915050565b6200043782620001b2565b67ffffffffffffffff811115620004535762000452620001bd565b5b6200045f82546200021b565b6200046c82828562000391565b600060209050601f831160018114620004a457600084156200048f578287015190505b6200049b85826200040e565b8655506200050b565b601f198416620004b48662000250565b60005b82811015620004de57848901518255600182019150602085019450602081019050620004b7565b86831015620004fe5784890151620004fa601f891682620003ee565b8355505b6001600288020188555050505b505050505050565b615ec380620005236000396000f3fe6080604052600436106102255760003560e01c806370a0823111610123578063b88d4fde116100ab578063d85d3d271161006f578063d85d3d2714610814578063e275c99714610830578063e985e9c51461085b578063eb07734214610898578063f2fde38b146108d557610225565b8063b88d4fde14610750578063c407321714610779578063c87b56dd14610790578063d58c71a5146107cd578063d5abeb01146107e957610225565b806397235a1e116100f257806397235a1e1461066e578063992cb6361461068a578063a22cb465146106a6578063ada7c4ed146106cf578063b1b1ffab1461070c57610225565b806370a08231146105c4578063715018a6146106015780638da5cb5b1461061857806395d89b411461064357610225565b806330911590116101b15780635d6bc62c116101755780635d6bc62c146104c8578063605df800146105055780636352211e146105215780636b3a76711461055e5780636f8b44b01461059b57610225565b806330911590146103c8578063346de50a146103f35780633d9a34791461041e57806342842e0e1461045b57806347ca9c331461048457610225565b8063095ea7b3116101f8578063095ea7b3146102eb57806309ec6cc71461031457806318160ddd146103305780631e6c598e1461035b57806323b872dd1461039f57610225565b806301663e591461022a57806301ffc9a71461024657806306fdde0314610283578063081812fc146102ae575b600080fd5b610244600480360381019061023f9190614518565b6108fe565b005b34801561025257600080fd5b5061026d6004803603810190610268919061459d565b610bd0565b60405161027a91906145e5565b60405180910390f35b34801561028f57600080fd5b50610298610cb2565b6040516102a59190614690565b60405180910390f35b3480156102ba57600080fd5b506102d560048036038101906102d09190614518565b610d44565b6040516102e291906146f3565b60405180910390f35b3480156102f757600080fd5b50610312600480360381019061030d919061473a565b610d8a565b005b61032e60048036038101906103299190614518565b610ea1565b005b34801561033c57600080fd5b506103456112d8565b6040516103529190614789565b60405180910390f35b34801561036757600080fd5b50610382600480360381019061037d9190614518565b6112de565b6040516103969897969594939291906147a4565b60405180910390f35b3480156103ab57600080fd5b506103c660048036038101906103c19190614822565b61138d565b005b3480156103d457600080fd5b506103dd6113ed565b6040516103ea9190614789565b60405180910390f35b3480156103ff57600080fd5b506104086113fa565b60405161041591906145e5565b60405180910390f35b34801561042a57600080fd5b506104456004803603810190610440919061473a565b61140d565b6040516104529190614789565b60405180910390f35b34801561046757600080fd5b50610482600480360381019061047d9190614822565b61143e565b005b34801561049057600080fd5b506104ab60048036038101906104a69190614518565b61145e565b6040516104bf9897969594939291906147a4565b60405180910390f35b3480156104d457600080fd5b506104ef60048036038101906104ea9190614875565b61151d565b6040516104fc91906145e5565b60405180910390f35b61051f600480360381019061051a9190614518565b61153d565b005b34801561052d57600080fd5b5061054860048036038101906105439190614518565b611c48565b60405161055591906146f3565b60405180910390f35b34801561056a57600080fd5b5061058560048036038101906105809190614518565b611cce565b6040516105929190614789565b60405180910390f35b3480156105a757600080fd5b506105c260048036038101906105bd9190614518565b611cf2565b005b3480156105d057600080fd5b506105eb60048036038101906105e69190614875565b611d04565b6040516105f89190614789565b60405180910390f35b34801561060d57600080fd5b50610616611dbb565b005b34801561062457600080fd5b5061062d611dcf565b60405161063a91906146f3565b60405180910390f35b34801561064f57600080fd5b50610658611df9565b6040516106659190614690565b60405180910390f35b6106886004803603810190610683919061473a565b611e8b565b005b6106a4600480360381019061069f91906148a2565b611efe565b005b3480156106b257600080fd5b506106cd60048036038101906106c8919061490e565b612312565b005b3480156106db57600080fd5b506106f660048036038101906106f19190614875565b612328565b6040516107039190614789565b60405180910390f35b34801561071857600080fd5b50610733600480360381019061072e919061473a565b612340565b6040516107479897969594939291906147a4565b60405180910390f35b34801561075c57600080fd5b5061077760048036038101906107729190614a83565b61240c565b005b34801561078557600080fd5b5061078e61246e565b005b34801561079c57600080fd5b506107b760048036038101906107b29190614518565b6124a2565b6040516107c49190614690565b60405180910390f35b6107e760048036038101906107e29190614518565b6125b4565b005b3480156107f557600080fd5b506107fe612fc0565b60405161080b9190614789565b60405180910390f35b61082e60048036038101906108299190614ba7565b612fc6565b005b34801561083c57600080fd5b50610845613213565b6040516108529190614789565b60405180910390f35b34801561086757600080fd5b50610882600480360381019061087d9190614bf0565b613219565b60405161088f91906145e5565b60405180910390f35b3480156108a457600080fd5b506108bf60048036038101906108ba9190614875565b6132ad565b6040516108cc9190614cee565b60405180910390f35b3480156108e157600080fd5b506108fc60048036038101906108f79190614875565b613344565b005b6010600082815260200190815260200160002060000160009054906101000a900473ffffffffffffffffffffffffffffffffffffffff1673ffffffffffffffffffffffffffffffffffffffff163373ffffffffffffffffffffffffffffffffffffffff1614806109cf57506010600082815260200190815260200160002060040160029054906101000a900473ffffffffffffffffffffffffffffffffffffffff1673ffffffffffffffffffffffffffffffffffffffff163373ffffffffffffffffffffffffffffffffffffffff16145b610a0e576040517f08c379a0000000000000000000000000000000000000000000000000000000008152600401610a0590614d82565b60405180910390fd5b6010600082815260200190815260200160002060000160009054906101000a900473ffffffffffffffffffffffffffffffffffffffff1673ffffffffffffffffffffffffffffffffffffffff163373ffffffffffffffffffffffffffffffffffffffff1603610aef5760016010600083815260200190815260200160002060040160006101000a81548160ff021916908315150217905550803373ffffffffffffffffffffffffffffffffffffffff167f3a1969ca46669a3f66a53a2135981b18fb515a84547134f620f6909a9e77420360405160405180910390a3610bcd565b6010600082815260200190815260200160002060040160029054906101000a900473ffffffffffffffffffffffffffffffffffffffff1673ffffffffffffffffffffffffffffffffffffffff163373ffffffffffffffffffffffffffffffffffffffff1603610bcc5760016010600083815260200190815260200160002060040160016101000a81548160ff021916908315150217905550803373ffffffffffffffffffffffffffffffffffffffff167f647aff22ae177d03066d9a153943a8fe57e44a8dd0f1a47a2b7b6aebbf3173c660405160405180910390a35b5b50565b60007f80ac58cd000000000000000000000000000000000000000000000000000000007bffffffffffffffffffffffffffffffffffffffffffffffffffffffff1916827bffffffffffffffffffffffffffffffffffffffffffffffffffffffff19161480610c9b57507f5b5e139f000000000000000000000000000000000000000000000000000000007bffffffffffffffffffffffffffffffffffffffffffffffffffffffff1916827bffffffffffffffffffffffffffffffffffffffffffffffffffffffff1916145b80610cab5750610caa826133c7565b5b9050919050565b606060008054610cc190614dd1565b80601f0160208091040260200160405190810160405280929190818152602001828054610ced90614dd1565b8015610d3a5780601f10610d0f57610100808354040283529160200191610d3a565b820191906000526020600020905b815481529060010190602001808311610d1d57829003601f168201915b5050505050905090565b6000610d4f82613431565b6004600083815260200190815260200160002060009054906101000a900473ffffffffffffffffffffffffffffffffffffffff169050919050565b6000610d9582611c48565b90508073ffffffffffffffffffffffffffffffffffffffff168373ffffffffffffffffffffffffffffffffffffffff1603610e05576040517f08c379a0000000000000000000000000000000000000000000000000000000008152600401610dfc90614e74565b60405180910390fd5b8073ffffffffffffffffffffffffffffffffffffffff16610e2461347c565b73ffffffffffffffffffffffffffffffffffffffff161480610e535750610e5281610e4d61347c565b613219565b5b610e92576040517f08c379a0000000000000000000000000000000000000000000000000000000008152600401610e8990614f06565b60405180910390fd5b610e9c8383613484565b505050565b6010600082815260200190815260200160002060000160009054906101000a900473ffffffffffffffffffffffffffffffffffffffff1673ffffffffffffffffffffffffffffffffffffffff163373ffffffffffffffffffffffffffffffffffffffff161480610f7257506010600082815260200190815260200160002060040160029054906101000a900473ffffffffffffffffffffffffffffffffffffffff1673ffffffffffffffffffffffffffffffffffffffff163373ffffffffffffffffffffffffffffffffffffffff16145b610fb1576040517f08c379a0000000000000000000000000000000000000000000000000000000008152600401610fa890614d82565b60405180910390fd5b6010600082815260200190815260200160002060000160009054906101000a900473ffffffffffffffffffffffffffffffffffffffff1673ffffffffffffffffffffffffffffffffffffffff163373ffffffffffffffffffffffffffffffffffffffff160361118557600015156010600083815260200190815260200160002060020160009054906101000a900460ff16151514611084576040517f08c379a000000000000000000000000000000000000000000000000000000000815260040161107b90614f72565b60405180910390fd5b60106000828152602001908152602001600020600080820160006101000a81549073ffffffffffffffffffffffffffffffffffffffff021916905560018201600090556002820160006101000a81549060ff021916905560038201600090556004820160006101000a81549060ff02191690556004820160016101000a81549060ff02191690556004820160026101000a81549073ffffffffffffffffffffffffffffffffffffffff021916905560058201600090555050803373ffffffffffffffffffffffffffffffffffffffff167f27f83af92b39768b17fe0c8d6922452702717efb8626d97e7a754e0b27d4f6d260405160405180910390a36112d5565b6010600082815260200190815260200160002060040160029054906101000a900473ffffffffffffffffffffffffffffffffffffffff1673ffffffffffffffffffffffffffffffffffffffff163373ffffffffffffffffffffffffffffffffffffffff16036112d45760006010600083815260200190815260200160002060040160016101000a81548160ff02191690831515021790555060006010600083815260200190815260200160002060040160026101000a81548173ffffffffffffffffffffffffffffffffffffffff021916908373ffffffffffffffffffffffffffffffffffffffff16021790555060006010600083815260200190815260200160002060050181905550803373ffffffffffffffffffffffffffffffffffffffff167f27f83af92b39768b17fe0c8d6922452702717efb8626d97e7a754e0b27d4f6d260405160405180910390a35b5b50565b60085481565b60106020528060005260406000206000915090508060000160009054906101000a900473ffffffffffffffffffffffffffffffffffffffff16908060010154908060020160009054906101000a900460ff16908060030154908060040160009054906101000a900460ff16908060040160019054906101000a900460ff16908060040160029054906101000a900473ffffffffffffffffffffffffffffffffffffffff16908060050154905088565b61139e61139861347c565b8261353d565b6113dd576040517f08c379a00000000000000000000000000000000000000000000000000000000081526004016113d490615004565b60405180910390fd5b6113e88383836135d2565b505050565b6000601380549050905090565b600a60009054906101000a900460ff1681565b600e602052816000526040600020818154811061142957600080fd5b90600052602060002001600091509150505481565b6114598383836040518060200160405280600081525061240c565b505050565b6013818154811061146e57600080fd5b90600052602060002090600602016000915090508060000160009054906101000a900473ffffffffffffffffffffffffffffffffffffffff16908060010154908060020160009054906101000a900460ff16908060030154908060040160009054906101000a900460ff16908060040160019054906101000a900460ff16908060040160029054906101000a900473ffffffffffffffffffffffffffffffffffffffff16908060050154905088565b60126020528060005260406000206000915054906101000a900460ff1681565b3373ffffffffffffffffffffffffffffffffffffffff1661155d82611c48565b73ffffffffffffffffffffffffffffffffffffffff16146115b3576040517f08c379a00000000000000000000000000000000000000000000000000000000081526004016115aa90615096565b60405180910390fd5b60001515601260003373ffffffffffffffffffffffffffffffffffffffff1673ffffffffffffffffffffffffffffffffffffffff16815260200190815260200160002060009054906101000a900460ff16151514611646576040517f08c379a000000000000000000000000000000000000000000000000000000000815260040161163d90615102565b60405180910390fd5b611651306001612312565b600f600081548092919061166490615151565b91905055506001601260003373ffffffffffffffffffffffffffffffffffffffff1673ffffffffffffffffffffffffffffffffffffffff16815260200190815260200160002060006101000a81548160ff0219169083151502179055506040518061010001604052803373ffffffffffffffffffffffffffffffffffffffff168152602001828152602001600015158152602001600f548152602001600015158152602001600015158152602001600073ffffffffffffffffffffffffffffffffffffffff168152602001600081525060106000600f54815260200190815260200160002060008201518160000160006101000a81548173ffffffffffffffffffffffffffffffffffffffff021916908373ffffffffffffffffffffffffffffffffffffffff1602179055506020820151816001015560408201518160020160006101000a81548160ff0219169083151502179055506060820151816003015560808201518160040160006101000a81548160ff02191690831515021790555060a08201518160040160016101000a81548160ff02191690831515021790555060c08201518160040160026101000a81548173ffffffffffffffffffffffffffffffffffffffff021916908373ffffffffffffffffffffffffffffffffffffffff16021790555060e08201518160050155905050601360106000600f54815260200190815260200160002090806001815401808255809150506001900390600052602060002090600602016000909190919091506000820160009054906101000a900473ffffffffffffffffffffffffffffffffffffffff168160000160006101000a81548173ffffffffffffffffffffffffffffffffffffffff021916908373ffffffffffffffffffffffffffffffffffffffff160217905550600182015481600101556002820160009054906101000a900460ff168160020160006101000a81548160ff021916908315150217905550600382015481600301556004820160009054906101000a900460ff168160040160006101000a81548160ff0219169083151502179055506004820160019054906101000a900460ff168160040160016101000a81548160ff0219169083151502179055506004820160029054906101000a900473ffffffffffffffffffffffffffffffffffffffff168160040160026101000a81548173ffffffffffffffffffffffffffffffffffffffff021916908373ffffffffffffffffffffffffffffffffffffffff160217905550600582015481600501555050601160003373ffffffffffffffffffffffffffffffffffffffff1673ffffffffffffffffffffffffffffffffffffffff16815260200190815260200160002060106000600f54815260200190815260200160002090806001815401808255809150506001900390600052602060002090600602016000909190919091506000820160009054906101000a900473ffffffffffffffffffffffffffffffffffffffff168160000160006101000a81548173ffffffffffffffffffffffffffffffffffffffff021916908373ffffffffffffffffffffffffffffffffffffffff160217905550600182015481600101556002820160009054906101000a900460ff168160020160006101000a81548160ff021916908315150217905550600382015481600301556004820160009054906101000a900460ff168160040160006101000a81548160ff0219169083151502179055506004820160019054906101000a900460ff168160040160016101000a81548160ff0219169083151502179055506004820160029054906101000a900473ffffffffffffffffffffffffffffffffffffffff168160040160026101000a81548173ffffffffffffffffffffffffffffffffffffffff021916908373ffffffffffffffffffffffffffffffffffffffff160217905550600582015481600501555050600f543373ffffffffffffffffffffffffffffffffffffffff167fbfce24751fc3f5d349c888b748dbe331a3af19ad7ee1ea95c5ac1b844ba9e51a60405160405180910390a350565b600080611c54836138cb565b9050600073ffffffffffffffffffffffffffffffffffffffff168173ffffffffffffffffffffffffffffffffffffffff1603611cc5576040517f08c379a0000000000000000000000000000000000000000000000000000000008152600401611cbc906151e5565b60405180910390fd5b80915050919050565b600b8181548110611cde57600080fd5b906000526020600020016000915090505481565b611cfa613908565b8060098190555050565b60008073ffffffffffffffffffffffffffffffffffffffff168273ffffffffffffffffffffffffffffffffffffffff1603611d74576040517f08c379a0000000000000000000000000000000000000000000000000000000008152600401611d6b90615277565b60405180910390fd5b600360008373ffffffffffffffffffffffffffffffffffffffff1673ffffffffffffffffffffffffffffffffffffffff168152602001908152602001600020549050919050565b611dc3613908565b611dcd6000613986565b565b6000600760009054906101000a900473ffffffffffffffffffffffffffffffffffffffff16905090565b606060018054611e0890614dd1565b80601f0160208091040260200160405190810160405280929190818152602001828054611e3490614dd1565b8015611e815780601f10611e5657610100808354040283529160200191611e81565b820191906000526020600020905b815481529060010190602001808311611e6457829003601f168201915b5050505050905090565b8173ffffffffffffffffffffffffffffffffffffffff166342842e0e8330846040518463ffffffff1660e01b8152600401611ec893929190615297565b600060405180830381600087803b158015611ee257600080fd5b505af1158015611ef6573d6000803e3d6000fd5b505050505050565b3373ffffffffffffffffffffffffffffffffffffffff16611f1e82611c48565b73ffffffffffffffffffffffffffffffffffffffff1614611f74576040517f08c379a0000000000000000000000000000000000000000000000000000000008152600401611f6b90615096565b60405180910390fd5b60001515601260003373ffffffffffffffffffffffffffffffffffffffff1673ffffffffffffffffffffffffffffffffffffffff16815260200190815260200160002060009054906101000a900460ff16151514612007576040517f08c379a0000000000000000000000000000000000000000000000000000000008152600401611ffe9061531a565b60405180910390fd5b612012306001612312565b6001601260003373ffffffffffffffffffffffffffffffffffffffff1673ffffffffffffffffffffffffffffffffffffffff16815260200190815260200160002060006101000a81548160ff021916908315150217905550336010600084815260200190815260200160002060040160026101000a81548173ffffffffffffffffffffffffffffffffffffffff021916908373ffffffffffffffffffffffffffffffffffffffff160217905550806010600084815260200190815260200160002060050181905550601160003373ffffffffffffffffffffffffffffffffffffffff1673ffffffffffffffffffffffffffffffffffffffff1681526020019081526020016000206010600084815260200190815260200160002090806001815401808255809150506001900390600052602060002090600602016000909190919091506000820160009054906101000a900473ffffffffffffffffffffffffffffffffffffffff168160000160006101000a81548173ffffffffffffffffffffffffffffffffffffffff021916908373ffffffffffffffffffffffffffffffffffffffff160217905550600182015481600101556002820160009054906101000a900460ff168160020160006101000a81548160ff021916908315150217905550600382015481600301556004820160009054906101000a900460ff168160040160006101000a81548160ff0219169083151502179055506004820160019054906101000a900460ff168160040160016101000a81548160ff0219169083151502179055506004820160029054906101000a900473ffffffffffffffffffffffffffffffffffffffff168160040160026101000a81548173ffffffffffffffffffffffffffffffffffffffff021916908373ffffffffffffffffffffffffffffffffffffffff160217905550600582015481600501555050813373ffffffffffffffffffffffffffffffffffffffff167fe684a55f31b79eca403df938249029212a5925ec6be8012e099b45bc1019e5d260405160405180910390a35050565b61232461231d61347c565b8383613a4c565b5050565b600d6020528060005260406000206000915090505481565b6011602052816000526040600020818154811061235c57600080fd5b9060005260206000209060060201600091509150508060000160009054906101000a900473ffffffffffffffffffffffffffffffffffffffff16908060010154908060020160009054906101000a900460ff16908060030154908060040160009054906101000a900460ff16908060040160019054906101000a900460ff16908060040160029054906101000a900473ffffffffffffffffffffffffffffffffffffffff16908060050154905088565b61241d61241761347c565b8361353d565b61245c576040517f08c379a000000000000000000000000000000000000000000000000000000000815260040161245390615004565b60405180910390fd5b61246884848484613bb8565b50505050565b612476613908565b600a60009054906101000a900460ff1615600a60006101000a81548160ff021916908315150217905550565b60606124ad82613431565b60006006600084815260200190815260200160002080546124cd90614dd1565b80601f01602080910402602001604051908101604052809291908181526020018280546124f990614dd1565b80156125465780601f1061251b57610100808354040283529160200191612546565b820191906000526020600020905b81548152906001019060200180831161252957829003601f168201915b505050505090506000612557613c14565b9050600081510361256c5781925050506125af565b6000825111156125a1578082604051602001612589929190615376565b604051602081830303815290604052925050506125af565b6125aa84613c2b565b925050505b919050565b3373ffffffffffffffffffffffffffffffffffffffff166010600083815260200190815260200160002060000160009054906101000a900473ffffffffffffffffffffffffffffffffffffffff1673ffffffffffffffffffffffffffffffffffffffff16148061268557503373ffffffffffffffffffffffffffffffffffffffff166010600083815260200190815260200160002060040160029054906101000a900473ffffffffffffffffffffffffffffffffffffffff1673ffffffffffffffffffffffffffffffffffffffff16145b6126c4576040517f08c379a00000000000000000000000000000000000000000000000000000000081526004016126bb90614d82565b60405180910390fd5b600015156010600083815260200190815260200160002060020160009054906101000a900460ff1615151461272e576040517f08c379a0000000000000000000000000000000000000000000000000000000008152600401612725906153e6565b60405180910390fd5b600115156010600083815260200190815260200160002060040160009054906101000a900460ff16151514801561278c5750600115156010600083815260200190815260200160002060040160019054906101000a900460ff161515145b6127cb576040517f08c379a00000000000000000000000000000000000000000000000000000000081526004016127c290615452565b60405180910390fd5b60016010600083815260200190815260200160002060020160006101000a81548160ff0219169083151502179055503073ffffffffffffffffffffffffffffffffffffffff166342842e0e6010600084815260200190815260200160002060000160009054906101000a900473ffffffffffffffffffffffffffffffffffffffff166010600085815260200190815260200160002060040160029054906101000a900473ffffffffffffffffffffffffffffffffffffffff1660106000868152602001908152602001600020600101546040518463ffffffff1660e01b81526004016128b993929190615297565b600060405180830381600087803b1580156128d357600080fd5b505af11580156128e7573d6000803e3d6000fd5b505050503073ffffffffffffffffffffffffffffffffffffffff166342842e0e6010600084815260200190815260200160002060040160029054906101000a900473ffffffffffffffffffffffffffffffffffffffff166010600085815260200190815260200160002060000160009054906101000a900473ffffffffffffffffffffffffffffffffffffffff1660106000868152602001908152602001600020600501546040518463ffffffff1660e01b81526004016129aa93929190615297565b600060405180830381600087803b1580156129c457600080fd5b505af11580156129d8573d6000803e3d6000fd5b50505050600e60006010600084815260200190815260200160002060040160029054906101000a900473ffffffffffffffffffffffffffffffffffffffff1673ffffffffffffffffffffffffffffffffffffffff1673ffffffffffffffffffffffffffffffffffffffff1681526020019081526020016000206010600083815260200190815260200160002060010154908060018154018082558091505060019003906000526020600020016000909190919091505560005b600e60006010600085815260200190815260200160002060040160029054906101000a900473ffffffffffffffffffffffffffffffffffffffff1673ffffffffffffffffffffffffffffffffffffffff1673ffffffffffffffffffffffffffffffffffffffff16815260200190815260200160002080549050811015612c68576010600083815260200190815260200160002060050154600e60006010600086815260200190815260200160002060040160029054906101000a900473ffffffffffffffffffffffffffffffffffffffff1673ffffffffffffffffffffffffffffffffffffffff1673ffffffffffffffffffffffffffffffffffffffff1681526020019081526020016000208281548110612baf57612bae615472565b5b906000526020600020015403612c5557600e60006010600085815260200190815260200160002060040160029054906101000a900473ffffffffffffffffffffffffffffffffffffffff1673ffffffffffffffffffffffffffffffffffffffff1673ffffffffffffffffffffffffffffffffffffffff1681526020019081526020016000208181548110612c4657612c45615472565b5b90600052602060002001600090555b8080612c6090615151565b915050612a91565b5060005b600e60006010600085815260200190815260200160002060000160009054906101000a900473ffffffffffffffffffffffffffffffffffffffff1673ffffffffffffffffffffffffffffffffffffffff1673ffffffffffffffffffffffffffffffffffffffff16815260200190815260200160002080549050811015612e43576010600083815260200190815260200160002060010154600e60006010600086815260200190815260200160002060000160009054906101000a900473ffffffffffffffffffffffffffffffffffffffff1673ffffffffffffffffffffffffffffffffffffffff1673ffffffffffffffffffffffffffffffffffffffff1681526020019081526020016000208281548110612d8a57612d89615472565b5b906000526020600020015403612e3057600e60006010600085815260200190815260200160002060000160009054906101000a900473ffffffffffffffffffffffffffffffffffffffff1673ffffffffffffffffffffffffffffffffffffffff1673ffffffffffffffffffffffffffffffffffffffff1681526020019081526020016000208181548110612e2157612e20615472565b5b90600052602060002001600090555b8080612e3b90615151565b915050612c6c565b50600e60006010600084815260200190815260200160002060000160009054906101000a900473ffffffffffffffffffffffffffffffffffffffff1673ffffffffffffffffffffffffffffffffffffffff1673ffffffffffffffffffffffffffffffffffffffff16815260200190815260200160002060106000838152602001908152602001600020600501549080600181540180825580915050600190039060005260206000200160009091909190915055806010600083815260200190815260200160002060040160029054906101000a900473ffffffffffffffffffffffffffffffffffffffff1673ffffffffffffffffffffffffffffffffffffffff166010600084815260200190815260200160002060000160009054906101000a900473ffffffffffffffffffffffffffffffffffffffff1673ffffffffffffffffffffffffffffffffffffffff167f70472766abdeecc3d1cf2b2c6925b9dfb8f08aae449dffb2a2142b96d5a5ca6c60405160405180910390a450565b60095481565b600a60009054906101000a900460ff16613015576040517f08c379a000000000000000000000000000000000000000000000000000000000815260040161300c906154ed565b60405180910390fd5b6001600d60003373ffffffffffffffffffffffffffffffffffffffff1673ffffffffffffffffffffffffffffffffffffffff1681526020019081526020016000205410613097576040517f08c379a000000000000000000000000000000000000000000000000000000000815260040161308e9061557f565b60405180910390fd5b600854600954116130dd576040517f08c379a00000000000000000000000000000000000000000000000000000000081526004016130d4906155eb565b60405180910390fd5b600d60003373ffffffffffffffffffffffffffffffffffffffff1673ffffffffffffffffffffffffffffffffffffffff168152602001908152602001600020600081548092919061312d90615151565b91905055506008600081548092919061314590615151565b919050555060006008549050600e60003373ffffffffffffffffffffffffffffffffffffffff1673ffffffffffffffffffffffffffffffffffffffff1681526020019081526020016000208190806001815401808255809150506001900390600052602060002001600090919091909150556131c13382613c93565b6131cb8183613cb1565b803373ffffffffffffffffffffffffffffffffffffffff167f30385c845b448a36257a6a1716e6ad2e1bc2cbe333cde1e69fe849ad6511adfe60405160405180910390a35050565b600f5481565b6000600560008473ffffffffffffffffffffffffffffffffffffffff1673ffffffffffffffffffffffffffffffffffffffff16815260200190815260200160002060008373ffffffffffffffffffffffffffffffffffffffff1673ffffffffffffffffffffffffffffffffffffffff16815260200190815260200160002060009054906101000a900460ff16905092915050565b6060600e60008373ffffffffffffffffffffffffffffffffffffffff1673ffffffffffffffffffffffffffffffffffffffff16815260200190815260200160002080548060200260200160405190810160405280929190818152602001828054801561333857602002820191906000526020600020905b815481526020019060010190808311613324575b50505050509050919050565b61334c613908565b600073ffffffffffffffffffffffffffffffffffffffff168173ffffffffffffffffffffffffffffffffffffffff16036133bb576040517f08c379a00000000000000000000000000000000000000000000000000000000081526004016133b29061567d565b60405180910390fd5b6133c481613986565b50565b60007f01ffc9a7000000000000000000000000000000000000000000000000000000007bffffffffffffffffffffffffffffffffffffffffffffffffffffffff1916827bffffffffffffffffffffffffffffffffffffffffffffffffffffffff1916149050919050565b61343a81613d1e565b613479576040517f08c379a0000000000000000000000000000000000000000000000000000000008152600401613470906151e5565b60405180910390fd5b50565b600033905090565b816004600083815260200190815260200160002060006101000a81548173ffffffffffffffffffffffffffffffffffffffff021916908373ffffffffffffffffffffffffffffffffffffffff160217905550808273ffffffffffffffffffffffffffffffffffffffff166134f783611c48565b73ffffffffffffffffffffffffffffffffffffffff167f8c5be1e5ebec7d5bd14f71427d1e84f3dd0314c0f7b2291e5b200ac8c7c3b92560405160405180910390a45050565b60008061354983611c48565b90508073ffffffffffffffffffffffffffffffffffffffff168473ffffffffffffffffffffffffffffffffffffffff16148061358b575061358a8185613219565b5b806135c957508373ffffffffffffffffffffffffffffffffffffffff166135b184610d44565b73ffffffffffffffffffffffffffffffffffffffff16145b91505092915050565b8273ffffffffffffffffffffffffffffffffffffffff166135f282611c48565b73ffffffffffffffffffffffffffffffffffffffff1614613648576040517f08c379a000000000000000000000000000000000000000000000000000000000815260040161363f9061570f565b60405180910390fd5b600073ffffffffffffffffffffffffffffffffffffffff168273ffffffffffffffffffffffffffffffffffffffff16036136b7576040517f08c379a00000000000000000000000000000000000000000000000000000000081526004016136ae906157a1565b60405180910390fd5b6136c48383836001613d5f565b8273ffffffffffffffffffffffffffffffffffffffff166136e482611c48565b73ffffffffffffffffffffffffffffffffffffffff161461373a576040517f08c379a00000000000000000000000000000000000000000000000000000000081526004016137319061570f565b60405180910390fd5b6004600082815260200190815260200160002060006101000a81549073ffffffffffffffffffffffffffffffffffffffff02191690556001600360008573ffffffffffffffffffffffffffffffffffffffff1673ffffffffffffffffffffffffffffffffffffffff168152602001908152602001600020600082825403925050819055506001600360008473ffffffffffffffffffffffffffffffffffffffff1673ffffffffffffffffffffffffffffffffffffffff16815260200190815260200160002060008282540192505081905550816002600083815260200190815260200160002060006101000a81548173ffffffffffffffffffffffffffffffffffffffff021916908373ffffffffffffffffffffffffffffffffffffffff160217905550808273ffffffffffffffffffffffffffffffffffffffff168473ffffffffffffffffffffffffffffffffffffffff167fddf252ad1be2c89b69c2b068fc378daa952ba7f163c4a11628f55a4df523b3ef60405160405180910390a46138c68383836001613e85565b505050565b60006002600083815260200190815260200160002060009054906101000a900473ffffffffffffffffffffffffffffffffffffffff169050919050565b61391061347c565b73ffffffffffffffffffffffffffffffffffffffff1661392e611dcf565b73ffffffffffffffffffffffffffffffffffffffff1614613984576040517f08c379a000000000000000000000000000000000000000000000000000000000815260040161397b9061580d565b60405180910390fd5b565b6000600760009054906101000a900473ffffffffffffffffffffffffffffffffffffffff16905081600760006101000a81548173ffffffffffffffffffffffffffffffffffffffff021916908373ffffffffffffffffffffffffffffffffffffffff1602179055508173ffffffffffffffffffffffffffffffffffffffff168173ffffffffffffffffffffffffffffffffffffffff167f8be0079c531659141344cd1fd0a4f28419497f9722a3daafe3b4186f6b6457e060405160405180910390a35050565b8173ffffffffffffffffffffffffffffffffffffffff168373ffffffffffffffffffffffffffffffffffffffff1603613aba576040517f08c379a0000000000000000000000000000000000000000000000000000000008152600401613ab190615879565b60405180910390fd5b80600560008573ffffffffffffffffffffffffffffffffffffffff1673ffffffffffffffffffffffffffffffffffffffff16815260200190815260200160002060008473ffffffffffffffffffffffffffffffffffffffff1673ffffffffffffffffffffffffffffffffffffffff16815260200190815260200160002060006101000a81548160ff0219169083151502179055508173ffffffffffffffffffffffffffffffffffffffff168373ffffffffffffffffffffffffffffffffffffffff167f17307eab39ab6107e8899845ad3d59bd9653f200f220920489ca2b5937696c3183604051613bab91906145e5565b60405180910390a3505050565b613bc38484846135d2565b613bcf84848484613e8b565b613c0e576040517f08c379a0000000000000000000000000000000000000000000000000000000008152600401613c059061590b565b60405180910390fd5b50505050565b606060405180602001604052806000815250905090565b6060613c3682613431565b6000613c40613c14565b90506000815111613c605760405180602001604052806000815250613c8b565b80613c6a84614012565b604051602001613c7b929190615376565b6040516020818303038152906040525b915050919050565b613cad8282604051806020016040528060008152506140e0565b5050565b613cba82613d1e565b613cf9576040517f08c379a0000000000000000000000000000000000000000000000000000000008152600401613cf09061599d565b60405180910390fd5b80600660008481526020019081526020016000209081613d199190615b69565b505050565b60008073ffffffffffffffffffffffffffffffffffffffff16613d40836138cb565b73ffffffffffffffffffffffffffffffffffffffff1614159050919050565b6001811115613e7f57600073ffffffffffffffffffffffffffffffffffffffff168473ffffffffffffffffffffffffffffffffffffffff1614613df35780600360008673ffffffffffffffffffffffffffffffffffffffff1673ffffffffffffffffffffffffffffffffffffffff1681526020019081526020016000206000828254613deb9190615c3b565b925050819055505b600073ffffffffffffffffffffffffffffffffffffffff168373ffffffffffffffffffffffffffffffffffffffff1614613e7e5780600360008573ffffffffffffffffffffffffffffffffffffffff1673ffffffffffffffffffffffffffffffffffffffff1681526020019081526020016000206000828254613e769190615c6f565b925050819055505b5b50505050565b50505050565b6000613eac8473ffffffffffffffffffffffffffffffffffffffff1661413b565b15614005578373ffffffffffffffffffffffffffffffffffffffff1663150b7a02613ed561347c565b8786866040518563ffffffff1660e01b8152600401613ef79493929190615cf8565b6020604051808303816000875af1925050508015613f3357506040513d601f19601f82011682018060405250810190613f309190615d59565b60015b613fb5573d8060008114613f63576040519150601f19603f3d011682016040523d82523d6000602084013e613f68565b606091505b506000815103613fad576040517f08c379a0000000000000000000000000000000000000000000000000000000008152600401613fa49061590b565b60405180910390fd5b805181602001fd5b63150b7a0260e01b7bffffffffffffffffffffffffffffffffffffffffffffffffffffffff1916817bffffffffffffffffffffffffffffffffffffffffffffffffffffffff19161491505061400a565b600190505b949350505050565b6060600060016140218461415e565b01905060008167ffffffffffffffff8111156140405761403f614958565b5b6040519080825280601f01601f1916602001820160405280156140725781602001600182028036833780820191505090505b509050600082602001820190505b6001156140d5578080600190039150507f3031323334353637383961626364656600000000000000000000000000000000600a86061a8153600a85816140c9576140c8615d86565b5b04945060008503614080575b819350505050919050565b6140ea83836142b1565b6140f76000848484613e8b565b614136576040517f08c379a000000000000000000000000000000000000000000000000000000000815260040161412d9061590b565b60405180910390fd5b505050565b6000808273ffffffffffffffffffffffffffffffffffffffff163b119050919050565b600080600090507a184f03e93ff9f4daa797ed6e38ed64bf6a1f01000000000000000083106141bc577a184f03e93ff9f4daa797ed6e38ed64bf6a1f01000000000000000083816141b2576141b1615d86565b5b0492506040810190505b6d04ee2d6d415b85acef810000000083106141f9576d04ee2d6d415b85acef810000000083816141ef576141ee615d86565b5b0492506020810190505b662386f26fc10000831061422857662386f26fc10000838161421e5761421d615d86565b5b0492506010810190505b6305f5e1008310614251576305f5e100838161424757614246615d86565b5b0492506008810190505b612710831061427657612710838161426c5761426b615d86565b5b0492506004810190505b60648310614299576064838161428f5761428e615d86565b5b0492506002810190505b600a83106142a8576001810190505b80915050919050565b600073ffffffffffffffffffffffffffffffffffffffff168273ffffffffffffffffffffffffffffffffffffffff1603614320576040517f08c379a000000000000000000000000000000000000000000000000000000000815260040161431790615e01565b60405180910390fd5b61432981613d1e565b15614369576040517f08c379a000000000000000000000000000000000000000000000000000000000815260040161436090615e6d565b60405180910390fd5b614377600083836001613d5f565b61438081613d1e565b156143c0576040517f08c379a00000000000000000000000000000000000000000000000000000000081526004016143b790615e6d565b60405180910390fd5b6001600360008473ffffffffffffffffffffffffffffffffffffffff1673ffffffffffffffffffffffffffffffffffffffff16815260200190815260200160002060008282540192505081905550816002600083815260200190815260200160002060006101000a81548173ffffffffffffffffffffffffffffffffffffffff021916908373ffffffffffffffffffffffffffffffffffffffff160217905550808273ffffffffffffffffffffffffffffffffffffffff16600073ffffffffffffffffffffffffffffffffffffffff167fddf252ad1be2c89b69c2b068fc378daa952ba7f163c4a11628f55a4df523b3ef60405160405180910390a46144ca600083836001613e85565b5050565b6000604051905090565b600080fd5b600080fd5b6000819050919050565b6144f5816144e2565b811461450057600080fd5b50565b600081359050614512816144ec565b92915050565b60006020828403121561452e5761452d6144d8565b5b600061453c84828501614503565b91505092915050565b60007fffffffff0000000000000000000000000000000000000000000000000000000082169050919050565b61457a81614545565b811461458557600080fd5b50565b60008135905061459781614571565b92915050565b6000602082840312156145b3576145b26144d8565b5b60006145c184828501614588565b91505092915050565b60008115159050919050565b6145df816145ca565b82525050565b60006020820190506145fa60008301846145d6565b92915050565b600081519050919050565b600082825260208201905092915050565b60005b8381101561463a57808201518184015260208101905061461f565b60008484015250505050565b6000601f19601f8301169050919050565b600061466282614600565b61466c818561460b565b935061467c81856020860161461c565b61468581614646565b840191505092915050565b600060208201905081810360008301526146aa8184614657565b905092915050565b600073ffffffffffffffffffffffffffffffffffffffff82169050919050565b60006146dd826146b2565b9050919050565b6146ed816146d2565b82525050565b600060208201905061470860008301846146e4565b92915050565b614717816146d2565b811461472257600080fd5b50565b6000813590506147348161470e565b92915050565b60008060408385031215614751576147506144d8565b5b600061475f85828601614725565b925050602061477085828601614503565b9150509250929050565b614783816144e2565b82525050565b600060208201905061479e600083018461477a565b92915050565b6000610100820190506147ba600083018b6146e4565b6147c7602083018a61477a565b6147d460408301896145d6565b6147e1606083018861477a565b6147ee60808301876145d6565b6147fb60a08301866145d6565b61480860c08301856146e4565b61481560e083018461477a565b9998505050505050505050565b60008060006060848603121561483b5761483a6144d8565b5b600061484986828701614725565b935050602061485a86828701614725565b925050604061486b86828701614503565b9150509250925092565b60006020828403121561488b5761488a6144d8565b5b600061489984828501614725565b91505092915050565b600080604083850312156148b9576148b86144d8565b5b60006148c785828601614503565b92505060206148d885828601614503565b9150509250929050565b6148eb816145ca565b81146148f657600080fd5b50565b600081359050614908816148e2565b92915050565b60008060408385031215614925576149246144d8565b5b600061493385828601614725565b9250506020614944858286016148f9565b9150509250929050565b600080fd5b600080fd5b7f4e487b7100000000000000000000000000000000000000000000000000000000600052604160045260246000fd5b61499082614646565b810181811067ffffffffffffffff821117156149af576149ae614958565b5b80604052505050565b60006149c26144ce565b90506149ce8282614987565b919050565b600067ffffffffffffffff8211156149ee576149ed614958565b5b6149f782614646565b9050602081019050919050565b82818337600083830152505050565b6000614a26614a21846149d3565b6149b8565b905082815260208101848484011115614a4257614a41614953565b5b614a4d848285614a04565b509392505050565b600082601f830112614a6a57614a6961494e565b5b8135614a7a848260208601614a13565b91505092915050565b60008060008060808587031215614a9d57614a9c6144d8565b5b6000614aab87828801614725565b9450506020614abc87828801614725565b9350506040614acd87828801614503565b925050606085013567ffffffffffffffff811115614aee57614aed6144dd565b5b614afa87828801614a55565b91505092959194509250565b600067ffffffffffffffff821115614b2157614b20614958565b5b614b2a82614646565b9050602081019050919050565b6000614b4a614b4584614b06565b6149b8565b905082815260208101848484011115614b6657614b65614953565b5b614b71848285614a04565b509392505050565b600082601f830112614b8e57614b8d61494e565b5b8135614b9e848260208601614b37565b91505092915050565b600060208284031215614bbd57614bbc6144d8565b5b600082013567ffffffffffffffff811115614bdb57614bda6144dd565b5b614be784828501614b79565b91505092915050565b60008060408385031215614c0757614c066144d8565b5b6000614c1585828601614725565b9250506020614c2685828601614725565b9150509250929050565b600081519050919050565b600082825260208201905092915050565b6000819050602082019050919050565b614c65816144e2565b82525050565b6000614c778383614c5c565b60208301905092915050565b6000602082019050919050565b6000614c9b82614c30565b614ca58185614c3b565b9350614cb083614c4c565b8060005b83811015614ce1578151614cc88882614c6b565b9750614cd383614c83565b925050600181019050614cb4565b5085935050505092915050565b60006020820190508181036000830152614d088184614c90565b905092915050565b7f596f752068617665206e6f207065726d697373696f6e20696e2074686973207460008201527f7261646500000000000000000000000000000000000000000000000000000000602082015250565b6000614d6c60248361460b565b9150614d7782614d10565b604082019050919050565b60006020820190508181036000830152614d9b81614d5f565b9050919050565b7f4e487b7100000000000000000000000000000000000000000000000000000000600052602260045260246000fd5b60006002820490506001821680614de957607f821691505b602082108103614dfc57614dfb614da2565b5b50919050565b7f4552433732313a20617070726f76616c20746f2063757272656e74206f776e6560008201527f7200000000000000000000000000000000000000000000000000000000000000602082015250565b6000614e5e60218361460b565b9150614e6982614e02565b604082019050919050565b60006020820190508181036000830152614e8d81614e51565b9050919050565b7f4552433732313a20617070726f76652063616c6c6572206973206e6f7420746f60008201527f6b656e206f776e6572206f7220617070726f76656420666f7220616c6c000000602082015250565b6000614ef0603d8361460b565b9150614efb82614e94565b604082019050919050565b60006020820190508181036000830152614f1f81614ee3565b9050919050565b7f547261646520656e64656420616c726561647900000000000000000000000000600082015250565b6000614f5c60138361460b565b9150614f6782614f26565b602082019050919050565b60006020820190508181036000830152614f8b81614f4f565b9050919050565b7f4552433732313a2063616c6c6572206973206e6f7420746f6b656e206f776e6560008201527f72206f7220617070726f76656400000000000000000000000000000000000000602082015250565b6000614fee602d8361460b565b9150614ff982614f92565b604082019050919050565b6000602082019050818103600083015261501d81614fe1565b9050919050565b7f596f75206d757374206f776e2074686973204e465420696e206f72646572207460008201527f6f20747261646520697400000000000000000000000000000000000000000000602082015250565b6000615080602a8361460b565b915061508b82615024565b604082019050919050565b600060208201905081810360008301526150af81615073565b9050919050565b7f596f752061726520616c72656164792074726164696e67202100000000000000600082015250565b60006150ec60198361460b565b91506150f7826150b6565b602082019050919050565b6000602082019050818103600083015261511b816150df565b9050919050565b7f4e487b7100000000000000000000000000000000000000000000000000000000600052601160045260246000fd5b600061515c826144e2565b91507fffffffffffffffffffffffffffffffffffffffffffffffffffffffffffffffff820361518e5761518d615122565b5b600182019050919050565b7f4552433732313a20696e76616c696420746f6b656e2049440000000000000000600082015250565b60006151cf60188361460b565b91506151da82615199565b602082019050919050565b600060208201905081810360008301526151fe816151c2565b9050919050565b7f4552433732313a2061646472657373207a65726f206973206e6f74206120766160008201527f6c6964206f776e65720000000000000000000000000000000000000000000000602082015250565b600061526160298361460b565b915061526c82615205565b604082019050919050565b6000602082019050818103600083015261529081615254565b9050919050565b60006060820190506152ac60008301866146e4565b6152b960208301856146e4565b6152c6604083018461477a565b949350505050565b7f596f752061726520616c72656164792074726164696e67202120000000000000600082015250565b6000615304601a8361460b565b915061530f826152ce565b602082019050919050565b60006020820190508181036000830152615333816152f7565b9050919050565b600081905092915050565b600061535082614600565b61535a818561533a565b935061536a81856020860161461c565b80840191505092915050565b60006153828285615345565b915061538e8284615345565b91508190509392505050565b7f547261646520616c726561647920636f6d706c65746564000000000000000000600082015250565b60006153d060178361460b565b91506153db8261539a565b602082019050919050565b600060208201905081810360008301526153ff816153c3565b9050919050565b7f5472616465206973206e6f7420617070726f7665640000000000000000000000600082015250565b600061543c60158361460b565b915061544782615406565b602082019050919050565b6000602082019050818103600083015261546b8161542f565b9050919050565b7f4e487b7100000000000000000000000000000000000000000000000000000000600052603260045260246000fd5b7f4d696e74696e67206973206e6f7420656e61626c650000000000000000000000600082015250565b60006154d760158361460b565b91506154e2826154a1565b602082019050919050565b60006020820190508181036000830152615506816154ca565b9050919050565b7f596f7520686176652072656163686564206d6178696d756d206d696e74206e7560008201527f6d62657200000000000000000000000000000000000000000000000000000000602082015250565b600061556960248361460b565b91506155748261550d565b604082019050919050565b600060208201905081810360008301526155988161555c565b9050919050565b7f536f6c64204f7574202120000000000000000000000000000000000000000000600082015250565b60006155d5600b8361460b565b91506155e08261559f565b602082019050919050565b60006020820190508181036000830152615604816155c8565b9050919050565b7f4f776e61626c653a206e6577206f776e657220697320746865207a65726f206160008201527f6464726573730000000000000000000000000000000000000000000000000000602082015250565b600061566760268361460b565b91506156728261560b565b604082019050919050565b600060208201905081810360008301526156968161565a565b9050919050565b7f4552433732313a207472616e736665722066726f6d20696e636f72726563742060008201527f6f776e6572000000000000000000000000000000000000000000000000000000602082015250565b60006156f960258361460b565b91506157048261569d565b604082019050919050565b60006020820190508181036000830152615728816156ec565b9050919050565b7f4552433732313a207472616e7366657220746f20746865207a65726f2061646460008201527f7265737300000000000000000000000000000000000000000000000000000000602082015250565b600061578b60248361460b565b91506157968261572f565b604082019050919050565b600060208201905081810360008301526157ba8161577e565b9050919050565b7f4f776e61626c653a2063616c6c6572206973206e6f7420746865206f776e6572600082015250565b60006157f760208361460b565b9150615802826157c1565b602082019050919050565b60006020820190508181036000830152615826816157ea565b9050919050565b7f4552433732313a20617070726f766520746f2063616c6c657200000000000000600082015250565b600061586360198361460b565b915061586e8261582d565b602082019050919050565b6000602082019050818103600083015261589281615856565b9050919050565b7f4552433732313a207472616e7366657220746f206e6f6e20455243373231526560008201527f63656976657220696d706c656d656e7465720000000000000000000000000000602082015250565b60006158f560328361460b565b915061590082615899565b604082019050919050565b60006020820190508181036000830152615924816158e8565b9050919050565b7f45524337323155524953746f726167653a2055524920736574206f66206e6f6e60008201527f6578697374656e7420746f6b656e000000000000000000000000000000000000602082015250565b6000615987602e8361460b565b91506159928261592b565b604082019050919050565b600060208201905081810360008301526159b68161597a565b9050919050565b60008190508160005260206000209050919050565b60006020601f8301049050919050565b600082821b905092915050565b600060088302615a1f7fffffffffffffffffffffffffffffffffffffffffffffffffffffffffffffffff826159e2565b615a2986836159e2565b95508019841693508086168417925050509392505050565b6000819050919050565b6000615a66615a61615a5c846144e2565b615a41565b6144e2565b9050919050565b6000819050919050565b615a8083615a4b565b615a94615a8c82615a6d565b8484546159ef565b825550505050565b600090565b615aa9615a9c565b615ab4818484615a77565b505050565b5b81811015615ad857615acd600082615aa1565b600181019050615aba565b5050565b601f821115615b1d57615aee816159bd565b615af7846159d2565b81016020851015615b06578190505b615b1a615b12856159d2565b830182615ab9565b50505b505050565b600082821c905092915050565b6000615b4060001984600802615b22565b1980831691505092915050565b6000615b598383615b2f565b9150826002028217905092915050565b615b7282614600565b67ffffffffffffffff811115615b8b57615b8a614958565b5b615b958254614dd1565b615ba0828285615adc565b600060209050601f831160018114615bd35760008415615bc1578287015190505b615bcb8582615b4d565b865550615c33565b601f198416615be1866159bd565b60005b82811015615c0957848901518255600182019150602085019450602081019050615be4565b86831015615c265784890151615c22601f891682615b2f565b8355505b6001600288020188555050505b505050505050565b6000615c46826144e2565b9150615c51836144e2565b9250828203905081811115615c6957615c68615122565b5b92915050565b6000615c7a826144e2565b9150615c85836144e2565b9250828201905080821115615c9d57615c9c615122565b5b92915050565b600081519050919050565b600082825260208201905092915050565b6000615cca82615ca3565b615cd48185615cae565b9350615ce481856020860161461c565b615ced81614646565b840191505092915050565b6000608082019050615d0d60008301876146e4565b615d1a60208301866146e4565b615d27604083018561477a565b8181036060830152615d398184615cbf565b905095945050505050565b600081519050615d5381614571565b92915050565b600060208284031215615d6f57615d6e6144d8565b5b6000615d7d84828501615d44565b91505092915050565b7f4e487b7100000000000000000000000000000000000000000000000000000000600052601260045260246000fd5b7f4552433732313a206d696e7420746f20746865207a65726f2061646472657373600082015250565b6000615deb60208361460b565b9150615df682615db5565b602082019050919050565b60006020820190508181036000830152615e1a81615dde565b9050919050565b7f4552433732313a20746f6b656e20616c7265616479206d696e74656400000000600082015250565b6000615e57601c8361460b565b9150615e6282615e21565b602082019050919050565b60006020820190508181036000830152615e8681615e4a565b905091905056fea26469706673582212202c40cda65cfb55ad6394338289d2ba869d1d7182ec2d96686dd876f01b7f875964736f6c63430008110033",
  "linkReferences": {},
  "deployedLinkReferences": {}
}