{
  "_format": "hh-sol-artifact-1",
  "contractName": "PokemonCards",
  "sourceName": "contracts/PokemonCards.sol",
  "abi": [
    {
      "inputs": [],
      "stateMutability": "payable",
      "type": "constructor"
    },
    {
      "anonymous": false,
      "inputs": [
        {
          "indexed": true,
          "internalType": "address",
          "name": "owner",
          "type": "address"
        },
        {
          "indexed": true,
          "internalType": "address",
          "name": "approved",
          "type": "address"
        },
        {
          "indexed": true,
          "internalType": "uint256",
          "name": "tokenId",
          "type": "uint256"
        }
      ],
      "name": "Approval",
      "type": "event"
    },
    {
      "anonymous": false,
      "inputs": [
        {
          "indexed": true,
          "internalType": "address",
          "name": "owner",
          "type": "address"
        },
        {
          "indexed": true,
          "internalType": "address",
          "name": "operator",
          "type": "address"
        },
        {
          "indexed": false,
          "internalType": "bool",
          "name": "approved",
          "type": "bool"
        }
      ],
      "name": "ApprovalForAll",
      "type": "event"
    },
    {
      "anonymous": false,
      "inputs": [
        {
          "indexed": true,
          "internalType": "address",
          "name": "_signer",
          "type": "address"
        },
        {
          "indexed": true,
          "internalType": "uint256",
          "name": "_id",
          "type": "uint256"
        }
      ],
      "name": "Bid",
      "type": "event"
    },
    {
      "anonymous": false,
      "inputs": [
        {
          "indexed": true,
          "internalType": "address",
          "name": "_signer",
          "type": "address"
        },
        {
          "indexed": true,
          "internalType": "uint256",
          "name": "_id",
          "type": "uint256"
        }
      ],
      "name": "Cancel",
      "type": "event"
    },
    {
      "anonymous": false,
      "inputs": [
        {
          "indexed": true,
          "internalType": "address",
          "name": "_from",
          "type": "address"
        },
        {
          "indexed": true,
          "internalType": "address",
          "name": "_to",
          "type": "address"
        },
        {
          "indexed": true,
          "internalType": "uint256",
          "name": "_id",
          "type": "uint256"
        }
      ],
      "name": "FinalizeTrade",
      "type": "event"
    },
    {
      "anonymous": false,
      "inputs": [
        {
          "indexed": true,
          "internalType": "address",
          "name": "previousOwner",
          "type": "address"
        },
        {
          "indexed": true,
          "internalType": "address",
          "name": "newOwner",
          "type": "address"
        }
      ],
      "name": "OwnershipTransferred",
      "type": "event"
    },
    {
      "anonymous": false,
      "inputs": [
        {
          "indexed": true,
          "internalType": "address",
          "name": "_signer",
          "type": "address"
        },
        {
          "indexed": true,
          "internalType": "uint256",
          "name": "_id",
          "type": "uint256"
        }
      ],
      "name": "TradeCreated",
      "type": "event"
    },
    {
      "anonymous": false,
      "inputs": [
        {
          "indexed": true,
          "internalType": "address",
          "name": "from",
          "type": "address"
        },
        {
          "indexed": true,
          "internalType": "address",
          "name": "to",
          "type": "address"
        },
        {
          "indexed": true,
          "internalType": "uint256",
          "name": "tokenId",
          "type": "uint256"
        }
      ],
      "name": "Transfer",
      "type": "event"
    },
    {
      "inputs": [
        {
          "internalType": "uint256",
          "name": "",
          "type": "uint256"
        }
      ],
      "name": "allTrades",
      "outputs": [
        {
          "internalType": "address",
          "name": "creator",
          "type": "address"
        },
        {
          "internalType": "uint256",
          "name": "creatorTokenId",
          "type": "uint256"
        },
        {
          "internalType": "bool",
          "name": "isCompleted",
          "type": "bool"
        },
        {
          "internalType": "uint256",
          "name": "tradeId",
          "type": "uint256"
        },
        {
          "internalType": "bool",
          "name": "creatorConfirm",
          "type": "bool"
        },
        {
          "internalType": "bool",
          "name": "dealerConfirm",
          "type": "bool"
        },
        {
          "internalType": "address",
          "name": "dealer",
          "type": "address"
        },
        {
          "internalType": "uint256",
          "name": "dealerTokenId",
          "type": "uint256"
        }
      ],
      "stateMutability": "view",
      "type": "function"
    },
    {
      "inputs": [
        {
          "internalType": "address",
          "name": "to",
          "type": "address"
        },
        {
          "internalType": "uint256",
          "name": "tokenId",
          "type": "uint256"
        }
      ],
      "name": "approve",
      "outputs": [],
      "stateMutability": "nonpayable",
      "type": "function"
    },
    {
      "inputs": [
        {
          "internalType": "uint256",
          "name": "_tradeId",
          "type": "uint256"
        }
      ],
      "name": "approveTrade",
      "outputs": [],
      "stateMutability": "payable",
      "type": "function"
    },
    {
      "inputs": [
        {
          "internalType": "address",
          "name": "owner",
          "type": "address"
        }
      ],
      "name": "balanceOf",
      "outputs": [
        {
          "internalType": "uint256",
          "name": "",
          "type": "uint256"
        }
      ],
      "stateMutability": "view",
      "type": "function"
    },
    {
      "inputs": [
        {
          "internalType": "uint256",
          "name": "_tradeId",
          "type": "uint256"
        },
        {
          "internalType": "uint256",
          "name": "_delaerTokenId",
          "type": "uint256"
        }
      ],
      "name": "bidTrade",
      "outputs": [],
      "stateMutability": "payable",
      "type": "function"
    },
    {
      "inputs": [
        {
          "internalType": "uint256",
          "name": "_tradeId",
          "type": "uint256"
        }
      ],
      "name": "cancelTrade",
      "outputs": [],
      "stateMutability": "payable",
      "type": "function"
    },
    {
      "inputs": [
        {
          "internalType": "uint256",
          "name": "_tradeId",
          "type": "uint256"
        }
      ],
      "name": "finalizeTrade",
      "outputs": [],
      "stateMutability": "payable",
      "type": "function"
    },
    {
      "inputs": [
        {
          "internalType": "address",
          "name": "_addr",
          "type": "address"
        }
      ],
      "name": "getAll",
      "outputs": [
        {
          "internalType": "uint256[]",
          "name": "",
          "type": "uint256[]"
        }
      ],
      "stateMutability": "view",
      "type": "function"
    },
    {
      "inputs": [],
      "name": "getAlltrades",
      "outputs": [
        {
          "components": [
            {
              "internalType": "address",
              "name": "creator",
              "type": "address"
            },
            {
              "internalType": "uint256",
              "name": "creatorTokenId",
              "type": "uint256"
            },
            {
              "internalType": "bool",
              "name": "isCompleted",
              "type": "bool"
            },
            {
              "internalType": "uint256",
              "name": "tradeId",
              "type": "uint256"
            },
            {
              "internalType": "bool",
              "name": "creatorConfirm",
              "type": "bool"
            },
            {
              "internalType": "bool",
              "name": "dealerConfirm",
              "type": "bool"
            },
            {
              "internalType": "address",
              "name": "dealer",
              "type": "address"
            },
            {
              "internalType": "uint256",
              "name": "dealerTokenId",
              "type": "uint256"
            }
          ],
          "internalType": "struct PokemonCards.Trade[]",
          "name": "",
          "type": "tuple[]"
        }
      ],
      "stateMutability": "view",
      "type": "function"
    },
    {
      "inputs": [
        {
          "internalType": "uint256",
          "name": "tokenId",
          "type": "uint256"
        }
      ],
      "name": "getApproved",
      "outputs": [
        {
          "internalType": "address",
          "name": "",
          "type": "address"
        }
      ],
      "stateMutability": "view",
      "type": "function"
    },
    {
      "inputs": [
        {
          "internalType": "uint256",
          "name": "",
          "type": "uint256"
        }
      ],
      "name": "hasTokenId",
      "outputs": [
        {
          "internalType": "uint256",
          "name": "",
          "type": "uint256"
        }
      ],
      "stateMutability": "view",
      "type": "function"
    },
    {
      "inputs": [
        {
          "internalType": "address",
          "name": "owner",
          "type": "address"
        },
        {
          "internalType": "address",
          "name": "operator",
          "type": "address"
        }
      ],
      "name": "isApprovedForAll",
      "outputs": [
        {
          "internalType": "bool",
          "name": "",
          "type": "bool"
        }
      ],
      "stateMutability": "view",
      "type": "function"
    },
    {
      "inputs": [],
      "name": "isMintEnabled",
      "outputs": [
        {
          "internalType": "bool",
          "name": "",
          "type": "bool"
        }
      ],
      "stateMutability": "view",
      "type": "function"
    },
    {
      "inputs": [],
      "name": "maxSupply",
      "outputs": [
        {
          "internalType": "uint256",
          "name": "",
          "type": "uint256"
        }
      ],
      "stateMutability": "view",
      "type": "function"
    },
    {
      "inputs": [
        {
          "internalType": "string",
          "name": "tokenURI",
          "type": "string"
        }
      ],
      "name": "mint",
      "outputs": [],
      "stateMutability": "payable",
      "type": "function"
    },
    {
      "inputs": [
        {
          "internalType": "address",
          "name": "",
          "type": "address"
        }
      ],
      "name": "mintedWallets",
      "outputs": [
        {
          "internalType": "uint256",
          "name": "",
          "type": "uint256"
        }
      ],
      "stateMutability": "view",
      "type": "function"
    },
    {
      "inputs": [],
      "name": "name",
      "outputs": [
        {
          "internalType": "string",
          "name": "",
          "type": "string"
        }
      ],
      "stateMutability": "view",
      "type": "function"
    },
    {
      "inputs": [
        {
          "internalType": "address",
          "name": "",
          "type": "address"
        },
        {
          "internalType": "uint256",
          "name": "",
          "type": "uint256"
        }
      ],
      "name": "ownedNfts",
      "outputs": [
        {
          "internalType": "uint256",
          "name": "",
          "type": "uint256"
        }
      ],
      "stateMutability": "view",
      "type": "function"
    },
    {
      "inputs": [],
      "name": "owner",
      "outputs": [
        {
          "internalType": "address",
          "name": "",
          "type": "address"
        }
      ],
      "stateMutability": "view",
      "type": "function"
    },
    {
      "inputs": [
        {
          "internalType": "uint256",
          "name": "tokenId",
          "type": "uint256"
        }
      ],
      "name": "ownerOf",
      "outputs": [
        {
          "internalType": "address",
          "name": "",
          "type": "address"
        }
      ],
      "stateMutability": "view",
      "type": "function"
    },
    {
      "inputs": [
        {
          "internalType": "address",
          "name": "_from",
          "type": "address"
        },
        {
          "internalType": "uint256",
          "name": "_tokenId",
          "type": "uint256"
        }
      ],
      "name": "receiveToken",
      "outputs": [],
      "stateMutability": "payable",
      "type": "function"
    },
    {
      "inputs": [],
      "name": "renounceOwnership",
      "outputs": [],
      "stateMutability": "nonpayable",
      "type": "function"
    },
    {
      "inputs": [
        {
          "internalType": "address",
          "name": "from",
          "type": "address"
        },
        {
          "internalType": "address",
          "name": "to",
          "type": "address"
        },
        {
          "internalType": "uint256",
          "name": "tokenId",
          "type": "uint256"
        }
      ],
      "name": "safeTransferFrom",
      "outputs": [],
      "stateMutability": "nonpayable",
      "type": "function"
    },
    {
      "inputs": [
        {
          "internalType": "address",
          "name": "from",
          "type": "address"
        },
        {
          "internalType": "address",
          "name": "to",
          "type": "address"
        },
        {
          "internalType": "uint256",
          "name": "tokenId",
          "type": "uint256"
        },
        {
          "internalType": "bytes",
          "name": "data",
          "type": "bytes"
        }
      ],
      "name": "safeTransferFrom",
      "outputs": [],
      "stateMutability": "nonpayable",
      "type": "function"
    },
    {
      "inputs": [
        {
          "internalType": "address",
          "name": "operator",
          "type": "address"
        },
        {
          "internalType": "bool",
          "name": "approved",
          "type": "bool"
        }
      ],
      "name": "setApprovalForAll",
      "outputs": [],
      "stateMutability": "nonpayable",
      "type": "function"
    },
    {
      "inputs": [
        {
          "internalType": "uint256",
          "name": "_maxSupply",
          "type": "uint256"
        }
      ],
      "name": "setMaxSupply",
      "outputs": [],
      "stateMutability": "nonpayable",
      "type": "function"
    },
    {
      "inputs": [
        {
          "internalType": "uint256",
          "name": "_creatorTokenId",
          "type": "uint256"
        }
      ],
      "name": "setTrade",
      "outputs": [],
      "stateMutability": "payable",
      "type": "function"
    },
    {
      "inputs": [
        {
          "internalType": "bytes4",
          "name": "interfaceId",
          "type": "bytes4"
        }
      ],
      "name": "supportsInterface",
      "outputs": [
        {
          "internalType": "bool",
          "name": "",
          "type": "bool"
        }
      ],
      "stateMutability": "view",
      "type": "function"
    },
    {
      "inputs": [],
      "name": "symbol",
      "outputs": [
        {
          "internalType": "string",
          "name": "",
          "type": "string"
        }
      ],
      "stateMutability": "view",
      "type": "function"
    },
    {
      "inputs": [],
      "name": "toggleIsMintEnabled",
      "outputs": [],
      "stateMutability": "nonpayable",
      "type": "function"
    },
    {
      "inputs": [
        {
          "internalType": "uint256",
          "name": "tokenId",
          "type": "uint256"
        }
      ],
      "name": "tokenURI",
      "outputs": [
        {
          "internalType": "string",
          "name": "",
          "type": "string"
        }
      ],
      "stateMutability": "view",
      "type": "function"
    },
    {
      "inputs": [],
      "name": "totalSupply",
      "outputs": [
        {
          "internalType": "uint256",
          "name": "",
          "type": "uint256"
        }
      ],
      "stateMutability": "view",
      "type": "function"
    },
    {
      "inputs": [],
      "name": "totalTrades",
      "outputs": [
        {
          "internalType": "uint256",
          "name": "",
          "type": "uint256"
        }
      ],
      "stateMutability": "view",
      "type": "function"
    },
    {
      "inputs": [
        {
          "internalType": "uint256",
          "name": "",
          "type": "uint256"
        }
      ],
      "name": "trades",
      "outputs": [
        {
          "internalType": "address",
          "name": "creator",
          "type": "address"
        },
        {
          "internalType": "uint256",
          "name": "creatorTokenId",
          "type": "uint256"
        },
        {
          "internalType": "bool",
          "name": "isCompleted",
          "type": "bool"
        },
        {
          "internalType": "uint256",
          "name": "tradeId",
          "type": "uint256"
        },
        {
          "internalType": "bool",
          "name": "creatorConfirm",
          "type": "bool"
        },
        {
          "internalType": "bool",
          "name": "dealerConfirm",
          "type": "bool"
        },
        {
          "internalType": "address",
          "name": "dealer",
          "type": "address"
        },
        {
          "internalType": "uint256",
          "name": "dealerTokenId",
          "type": "uint256"
        }
      ],
      "stateMutability": "view",
      "type": "function"
    },
    {
      "inputs": [
        {
          "internalType": "address",
          "name": "from",
          "type": "address"
        },
        {
          "internalType": "address",
          "name": "to",
          "type": "address"
        },
        {
          "internalType": "uint256",
          "name": "tokenId",
          "type": "uint256"
        }
      ],
      "name": "transferFrom",
      "outputs": [],
      "stateMutability": "nonpayable",
      "type": "function"
    },
    {
      "inputs": [
        {
          "internalType": "address",
          "name": "newOwner",
          "type": "address"
        }
      ],
      "name": "transferOwnership",
      "outputs": [],
      "stateMutability": "nonpayable",
      "type": "function"
    },
    {
      "inputs": [
        {
          "internalType": "address",
          "name": "",
          "type": "address"
        },
        {
          "internalType": "uint256",
          "name": "",
          "type": "uint256"
        }
      ],
      "name": "userTrades",
      "outputs": [
        {
          "internalType": "address",
          "name": "creator",
          "type": "address"
        },
        {
          "internalType": "uint256",
          "name": "creatorTokenId",
          "type": "uint256"
        },
        {
          "internalType": "bool",
          "name": "isCompleted",
          "type": "bool"
        },
        {
          "internalType": "uint256",
          "name": "tradeId",
          "type": "uint256"
        },
        {
          "internalType": "bool",
          "name": "creatorConfirm",
          "type": "bool"
        },
        {
          "internalType": "bool",
          "name": "dealerConfirm",
          "type": "bool"
        },
        {
          "internalType": "address",
          "name": "dealer",
          "type": "address"
        },
        {
          "internalType": "uint256",
          "name": "dealerTokenId",
          "type": "uint256"
        }
      ],
      "stateMutability": "view",
      "type": "function"
    }
  ],
  "bytecode": "0x60806040526001600a60006101000a81548160ff0219169083151502179055506000600e556040518060400160405280600c81526020017f506f6b656d6f6e204361726400000000000000000000000000000000000000008152506040518060400160405280600481526020017f504f4b45000000000000000000000000000000000000000000000000000000008152508160009081620000a191906200042c565b508060019081620000b391906200042c565b505050620000d6620000ca620000e460201b60201c565b620000ec60201b60201c565b601460098190555062000513565b600033905090565b6000600760009054906101000a900473ffffffffffffffffffffffffffffffffffffffff16905081600760006101000a81548173ffffffffffffffffffffffffffffffffffffffff021916908373ffffffffffffffffffffffffffffffffffffffff1602179055508173ffffffffffffffffffffffffffffffffffffffff168173ffffffffffffffffffffffffffffffffffffffff167f8be0079c531659141344cd1fd0a4f28419497f9722a3daafe3b4186f6b6457e060405160405180910390a35050565b600081519050919050565b7f4e487b7100000000000000000000000000000000000000000000000000000000600052604160045260246000fd5b7f4e487b7100000000000000000000000000000000000000000000000000000000600052602260045260246000fd5b600060028204905060018216806200023457607f821691505b6020821081036200024a5762000249620001ec565b5b50919050565b60008190508160005260206000209050919050565b60006020601f8301049050919050565b600082821b905092915050565b600060088302620002b47fffffffffffffffffffffffffffffffffffffffffffffffffffffffffffffffff8262000275565b620002c0868362000275565b95508019841693508086168417925050509392505050565b6000819050919050565b6000819050919050565b60006200030d620003076200030184620002d8565b620002e2565b620002d8565b9050919050565b6000819050919050565b6200032983620002ec565b62000341620003388262000314565b84845462000282565b825550505050565b600090565b6200035862000349565b620003658184846200031e565b505050565b5b818110156200038d57620003816000826200034e565b6001810190506200036b565b5050565b601f821115620003dc57620003a68162000250565b620003b18462000265565b81016020851015620003c1578190505b620003d9620003d08562000265565b8301826200036a565b50505b505050565b600082821c905092915050565b60006200040160001984600802620003e1565b1980831691505092915050565b60006200041c8383620003ee565b9150826002028217905092915050565b6200043782620001b2565b67ffffffffffffffff811115620004535762000452620001bd565b5b6200045f82546200021b565b6200046c82828562000391565b600060209050601f831160018114620004a457600084156200048f578287015190505b6200049b85826200040e565b8655506200050b565b601f198416620004b48662000250565b60005b82811015620004de57848901518255600182019150602085019450602081019050620004b7565b86831015620004fe5784890151620004fa601f891682620003ee565b8355505b6001600288020188555050505b505050505050565b615c2c80620005236000396000f3fe60806040526004361061021a5760003560e01c806370a0823111610123578063b88d4fde116100ab578063d85d3d271161006f578063d85d3d27146107cc578063e275c997146107e8578063e985e9c514610813578063eb07734214610850578063f2fde38b1461088d5761021a565b8063b88d4fde14610708578063c407321714610731578063c87b56dd14610748578063d58c71a514610785578063d5abeb01146107a15761021a565b806397235a1e116100f257806397235a1e14610626578063992cb63614610642578063a22cb4651461065e578063ada7c4ed14610687578063b1b1ffab146106c45761021a565b806370a082311461057c578063715018a6146105b95780638da5cb5b146105d057806395d89b41146105fb5761021a565b806330911590116101a657806347ca9c331161017557806347ca9c3314610479578063605df800146104bd5780636352211e146104d95780636b3a7671146105165780636f8b44b0146105535761021a565b806330911590146103bd578063346de50a146103e85780633d9a34791461041357806342842e0e146104505761021a565b8063095ea7b3116101ed578063095ea7b3146102e057806309ec6cc71461030957806318160ddd146103255780631e6c598e1461035057806323b872dd146103945761021a565b806301663e591461021f57806301ffc9a71461023b57806306fdde0314610278578063081812fc146102a3575b600080fd5b610239600480360381019061023491906141c7565b6108b6565b005b34801561024757600080fd5b50610262600480360381019061025d919061424c565b610b00565b60405161026f9190614294565b60405180910390f35b34801561028457600080fd5b5061028d610be2565b60405161029a919061433f565b60405180910390f35b3480156102af57600080fd5b506102ca60048036038101906102c591906141c7565b610c74565b6040516102d791906143a2565b60405180910390f35b3480156102ec57600080fd5b50610307600480360381019061030291906143e9565b610cba565b005b610323600480360381019061031e91906141c7565b610dd1565b005b34801561033157600080fd5b5061033a611208565b6040516103479190614438565b60405180910390f35b34801561035c57600080fd5b50610377600480360381019061037291906141c7565b61120e565b60405161038b989796959493929190614453565b60405180910390f35b3480156103a057600080fd5b506103bb60048036038101906103b691906144d1565b6112bd565b005b3480156103c957600080fd5b506103d261131d565b6040516103df91906146a3565b60405180910390f35b3480156103f457600080fd5b506103fd611498565b60405161040a9190614294565b60405180910390f35b34801561041f57600080fd5b5061043a600480360381019061043591906143e9565b6114ab565b6040516104479190614438565b60405180910390f35b34801561045c57600080fd5b50610477600480360381019061047291906144d1565b6114dc565b005b34801561048557600080fd5b506104a0600480360381019061049b91906141c7565b6114fc565b6040516104b4989796959493929190614453565b60405180910390f35b6104d760048036038101906104d291906141c7565b6115bb565b005b3480156104e557600080fd5b5061050060048036038101906104fb91906141c7565b611a26565b60405161050d91906143a2565b60405180910390f35b34801561052257600080fd5b5061053d600480360381019061053891906141c7565b611aac565b60405161054a9190614438565b60405180910390f35b34801561055f57600080fd5b5061057a600480360381019061057591906141c7565b611ad0565b005b34801561058857600080fd5b506105a3600480360381019061059e91906146c5565b611ae2565b6040516105b09190614438565b60405180910390f35b3480156105c557600080fd5b506105ce611b99565b005b3480156105dc57600080fd5b506105e5611bad565b6040516105f291906143a2565b60405180910390f35b34801561060757600080fd5b50610610611bd7565b60405161061d919061433f565b60405180910390f35b610640600480360381019061063b91906143e9565b611c69565b005b61065c600480360381019061065791906146f2565b611cdc565b005b34801561066a57600080fd5b506106856004803603810190610680919061475e565b612005565b005b34801561069357600080fd5b506106ae60048036038101906106a991906146c5565b61201b565b6040516106bb9190614438565b60405180910390f35b3480156106d057600080fd5b506106eb60048036038101906106e691906143e9565b612033565b6040516106ff989796959493929190614453565b60405180910390f35b34801561071457600080fd5b5061072f600480360381019061072a91906148d3565b6120ff565b005b34801561073d57600080fd5b50610746612161565b005b34801561075457600080fd5b5061076f600480360381019061076a91906141c7565b612195565b60405161077c919061433f565b60405180910390f35b61079f600480360381019061079a91906141c7565b6122a7565b005b3480156107ad57600080fd5b506107b6612cb3565b6040516107c39190614438565b60405180910390f35b6107e660048036038101906107e191906149f7565b612cb9565b005b3480156107f457600080fd5b506107fd612ec2565b60405161080a9190614438565b60405180910390f35b34801561081f57600080fd5b5061083a60048036038101906108359190614a40565b612ec8565b6040516108479190614294565b60405180910390f35b34801561085c57600080fd5b50610877600480360381019061087291906146c5565b612f5c565b6040516108849190614b2f565b60405180910390f35b34801561089957600080fd5b506108b460048036038101906108af91906146c5565b612ff3565b005b600f600082815260200190815260200160002060000160009054906101000a900473ffffffffffffffffffffffffffffffffffffffff1673ffffffffffffffffffffffffffffffffffffffff163373ffffffffffffffffffffffffffffffffffffffff1614806109875750600f600082815260200190815260200160002060040160029054906101000a900473ffffffffffffffffffffffffffffffffffffffff1673ffffffffffffffffffffffffffffffffffffffff163373ffffffffffffffffffffffffffffffffffffffff16145b6109c6576040517f08c379a00000000000000000000000000000000000000000000000000000000081526004016109bd90614bc3565b60405180910390fd5b600f600082815260200190815260200160002060000160009054906101000a900473ffffffffffffffffffffffffffffffffffffffff1673ffffffffffffffffffffffffffffffffffffffff163373ffffffffffffffffffffffffffffffffffffffff1603610a63576001600f600083815260200190815260200160002060040160006101000a81548160ff021916908315150217905550610afd565b600f600082815260200190815260200160002060040160029054906101000a900473ffffffffffffffffffffffffffffffffffffffff1673ffffffffffffffffffffffffffffffffffffffff163373ffffffffffffffffffffffffffffffffffffffff1603610afc576001600f600083815260200190815260200160002060040160016101000a81548160ff0219169083151502179055505b5b50565b60007f80ac58cd000000000000000000000000000000000000000000000000000000007bffffffffffffffffffffffffffffffffffffffffffffffffffffffff1916827bffffffffffffffffffffffffffffffffffffffffffffffffffffffff19161480610bcb57507f5b5e139f000000000000000000000000000000000000000000000000000000007bffffffffffffffffffffffffffffffffffffffffffffffffffffffff1916827bffffffffffffffffffffffffffffffffffffffffffffffffffffffff1916145b80610bdb5750610bda82613076565b5b9050919050565b606060008054610bf190614c12565b80601f0160208091040260200160405190810160405280929190818152602001828054610c1d90614c12565b8015610c6a5780601f10610c3f57610100808354040283529160200191610c6a565b820191906000526020600020905b815481529060010190602001808311610c4d57829003601f168201915b5050505050905090565b6000610c7f826130e0565b6004600083815260200190815260200160002060009054906101000a900473ffffffffffffffffffffffffffffffffffffffff169050919050565b6000610cc582611a26565b90508073ffffffffffffffffffffffffffffffffffffffff168373ffffffffffffffffffffffffffffffffffffffff1603610d35576040517f08c379a0000000000000000000000000000000000000000000000000000000008152600401610d2c90614cb5565b60405180910390fd5b8073ffffffffffffffffffffffffffffffffffffffff16610d5461312b565b73ffffffffffffffffffffffffffffffffffffffff161480610d835750610d8281610d7d61312b565b612ec8565b5b610dc2576040517f08c379a0000000000000000000000000000000000000000000000000000000008152600401610db990614d47565b60405180910390fd5b610dcc8383613133565b505050565b600f600082815260200190815260200160002060000160009054906101000a900473ffffffffffffffffffffffffffffffffffffffff1673ffffffffffffffffffffffffffffffffffffffff163373ffffffffffffffffffffffffffffffffffffffff161480610ea25750600f600082815260200190815260200160002060040160029054906101000a900473ffffffffffffffffffffffffffffffffffffffff1673ffffffffffffffffffffffffffffffffffffffff163373ffffffffffffffffffffffffffffffffffffffff16145b610ee1576040517f08c379a0000000000000000000000000000000000000000000000000000000008152600401610ed890614bc3565b60405180910390fd5b600f600082815260200190815260200160002060000160009054906101000a900473ffffffffffffffffffffffffffffffffffffffff1673ffffffffffffffffffffffffffffffffffffffff163373ffffffffffffffffffffffffffffffffffffffff16036110b55760001515600f600083815260200190815260200160002060020160009054906101000a900460ff16151514610fb4576040517f08c379a0000000000000000000000000000000000000000000000000000000008152600401610fab90614db3565b60405180910390fd5b600f6000828152602001908152602001600020600080820160006101000a81549073ffffffffffffffffffffffffffffffffffffffff021916905560018201600090556002820160006101000a81549060ff021916905560038201600090556004820160006101000a81549060ff02191690556004820160016101000a81549060ff02191690556004820160026101000a81549073ffffffffffffffffffffffffffffffffffffffff021916905560058201600090555050803373ffffffffffffffffffffffffffffffffffffffff167f27f83af92b39768b17fe0c8d6922452702717efb8626d97e7a754e0b27d4f6d260405160405180910390a3611205565b600f600082815260200190815260200160002060040160029054906101000a900473ffffffffffffffffffffffffffffffffffffffff1673ffffffffffffffffffffffffffffffffffffffff163373ffffffffffffffffffffffffffffffffffffffff1603611204576000600f600083815260200190815260200160002060040160016101000a81548160ff0219169083151502179055506000600f600083815260200190815260200160002060040160026101000a81548173ffffffffffffffffffffffffffffffffffffffff021916908373ffffffffffffffffffffffffffffffffffffffff1602179055506000600f600083815260200190815260200160002060050181905550803373ffffffffffffffffffffffffffffffffffffffff167f27f83af92b39768b17fe0c8d6922452702717efb8626d97e7a754e0b27d4f6d260405160405180910390a35b5b50565b60085481565b600f6020528060005260406000206000915090508060000160009054906101000a900473ffffffffffffffffffffffffffffffffffffffff16908060010154908060020160009054906101000a900460ff16908060030154908060040160009054906101000a900460ff16908060040160019054906101000a900460ff16908060040160029054906101000a900473ffffffffffffffffffffffffffffffffffffffff16908060050154905088565b6112ce6112c861312b565b826131ec565b61130d576040517f08c379a000000000000000000000000000000000000000000000000000000000815260040161130490614e45565b60405180910390fd5b611318838383613281565b505050565b60606011805480602002602001604051908101604052809291908181526020016000905b8282101561148f5783829060005260206000209060060201604051806101000160405290816000820160009054906101000a900473ffffffffffffffffffffffffffffffffffffffff1673ffffffffffffffffffffffffffffffffffffffff1673ffffffffffffffffffffffffffffffffffffffff168152602001600182015481526020016002820160009054906101000a900460ff16151515158152602001600382015481526020016004820160009054906101000a900460ff161515151581526020016004820160019054906101000a900460ff161515151581526020016004820160029054906101000a900473ffffffffffffffffffffffffffffffffffffffff1673ffffffffffffffffffffffffffffffffffffffff1673ffffffffffffffffffffffffffffffffffffffff16815260200160058201548152505081526020019060010190611341565b50505050905090565b600a60009054906101000a900460ff1681565b600d60205281600052604060002081815481106114c757600080fd5b90600052602060002001600091509150505481565b6114f7838383604051806020016040528060008152506120ff565b505050565b6011818154811061150c57600080fd5b90600052602060002090600602016000915090508060000160009054906101000a900473ffffffffffffffffffffffffffffffffffffffff16908060010154908060020160009054906101000a900460ff16908060030154908060040160009054906101000a900460ff16908060040160019054906101000a900460ff16908060040160029054906101000a900473ffffffffffffffffffffffffffffffffffffffff16908060050154905088565b3373ffffffffffffffffffffffffffffffffffffffff166115db82611a26565b73ffffffffffffffffffffffffffffffffffffffff1614611631576040517f08c379a000000000000000000000000000000000000000000000000000000000815260040161162890614ed7565b60405180910390fd5b61163c306001612005565b600e600081548092919061164f90614f26565b91905055506040518061010001604052803373ffffffffffffffffffffffffffffffffffffffff168152602001828152602001600015158152602001600e548152602001600015158152602001600015158152602001600073ffffffffffffffffffffffffffffffffffffffff1681526020016000815250600f6000600e54815260200190815260200160002060008201518160000160006101000a81548173ffffffffffffffffffffffffffffffffffffffff021916908373ffffffffffffffffffffffffffffffffffffffff1602179055506020820151816001015560408201518160020160006101000a81548160ff0219169083151502179055506060820151816003015560808201518160040160006101000a81548160ff02191690831515021790555060a08201518160040160016101000a81548160ff02191690831515021790555060c08201518160040160026101000a81548173ffffffffffffffffffffffffffffffffffffffff021916908373ffffffffffffffffffffffffffffffffffffffff16021790555060e08201518160050155905050601060003373ffffffffffffffffffffffffffffffffffffffff1673ffffffffffffffffffffffffffffffffffffffff168152602001908152602001600020600f6000600e54815260200190815260200160002090806001815401808255809150506001900390600052602060002090600602016000909190919091506000820160009054906101000a900473ffffffffffffffffffffffffffffffffffffffff168160000160006101000a81548173ffffffffffffffffffffffffffffffffffffffff021916908373ffffffffffffffffffffffffffffffffffffffff160217905550600182015481600101556002820160009054906101000a900460ff168160020160006101000a81548160ff021916908315150217905550600382015481600301556004820160009054906101000a900460ff168160040160006101000a81548160ff0219169083151502179055506004820160019054906101000a900460ff168160040160016101000a81548160ff0219169083151502179055506004820160029054906101000a900473ffffffffffffffffffffffffffffffffffffffff168160040160026101000a81548173ffffffffffffffffffffffffffffffffffffffff021916908373ffffffffffffffffffffffffffffffffffffffff160217905550600582015481600501555050600e543373ffffffffffffffffffffffffffffffffffffffff167fbfce24751fc3f5d349c888b748dbe331a3af19ad7ee1ea95c5ac1b844ba9e51a60405160405180910390a350565b600080611a328361357a565b9050600073ffffffffffffffffffffffffffffffffffffffff168173ffffffffffffffffffffffffffffffffffffffff1603611aa3576040517f08c379a0000000000000000000000000000000000000000000000000000000008152600401611a9a90614fba565b60405180910390fd5b80915050919050565b600b8181548110611abc57600080fd5b906000526020600020016000915090505481565b611ad86135b7565b8060098190555050565b60008073ffffffffffffffffffffffffffffffffffffffff168273ffffffffffffffffffffffffffffffffffffffff1603611b52576040517f08c379a0000000000000000000000000000000000000000000000000000000008152600401611b499061504c565b60405180910390fd5b600360008373ffffffffffffffffffffffffffffffffffffffff1673ffffffffffffffffffffffffffffffffffffffff168152602001908152602001600020549050919050565b611ba16135b7565b611bab6000613635565b565b6000600760009054906101000a900473ffffffffffffffffffffffffffffffffffffffff16905090565b606060018054611be690614c12565b80601f0160208091040260200160405190810160405280929190818152602001828054611c1290614c12565b8015611c5f5780601f10611c3457610100808354040283529160200191611c5f565b820191906000526020600020905b815481529060010190602001808311611c4257829003601f168201915b5050505050905090565b8173ffffffffffffffffffffffffffffffffffffffff166342842e0e8330846040518463ffffffff1660e01b8152600401611ca69392919061506c565b600060405180830381600087803b158015611cc057600080fd5b505af1158015611cd4573d6000803e3d6000fd5b505050505050565b3373ffffffffffffffffffffffffffffffffffffffff16611cfc82611a26565b73ffffffffffffffffffffffffffffffffffffffff1614611d52576040517f08c379a0000000000000000000000000000000000000000000000000000000008152600401611d4990614ed7565b60405180910390fd5b611d5d306001612005565b33600f600084815260200190815260200160002060040160026101000a81548173ffffffffffffffffffffffffffffffffffffffff021916908373ffffffffffffffffffffffffffffffffffffffff16021790555080600f600084815260200190815260200160002060050181905550601060003373ffffffffffffffffffffffffffffffffffffffff1673ffffffffffffffffffffffffffffffffffffffff168152602001908152602001600020600f600084815260200190815260200160002090806001815401808255809150506001900390600052602060002090600602016000909190919091506000820160009054906101000a900473ffffffffffffffffffffffffffffffffffffffff168160000160006101000a81548173ffffffffffffffffffffffffffffffffffffffff021916908373ffffffffffffffffffffffffffffffffffffffff160217905550600182015481600101556002820160009054906101000a900460ff168160020160006101000a81548160ff021916908315150217905550600382015481600301556004820160009054906101000a900460ff168160040160006101000a81548160ff0219169083151502179055506004820160019054906101000a900460ff168160040160016101000a81548160ff0219169083151502179055506004820160029054906101000a900473ffffffffffffffffffffffffffffffffffffffff168160040160026101000a81548173ffffffffffffffffffffffffffffffffffffffff021916908373ffffffffffffffffffffffffffffffffffffffff160217905550600582015481600501555050813373ffffffffffffffffffffffffffffffffffffffff167fe684a55f31b79eca403df938249029212a5925ec6be8012e099b45bc1019e5d260405160405180910390a35050565b61201761201061312b565b83836136fb565b5050565b600c6020528060005260406000206000915090505481565b6010602052816000526040600020818154811061204f57600080fd5b9060005260206000209060060201600091509150508060000160009054906101000a900473ffffffffffffffffffffffffffffffffffffffff16908060010154908060020160009054906101000a900460ff16908060030154908060040160009054906101000a900460ff16908060040160019054906101000a900460ff16908060040160029054906101000a900473ffffffffffffffffffffffffffffffffffffffff16908060050154905088565b61211061210a61312b565b836131ec565b61214f576040517f08c379a000000000000000000000000000000000000000000000000000000000815260040161214690614e45565b60405180910390fd5b61215b84848484613867565b50505050565b6121696135b7565b600a60009054906101000a900460ff1615600a60006101000a81548160ff021916908315150217905550565b60606121a0826130e0565b60006006600084815260200190815260200160002080546121c090614c12565b80601f01602080910402602001604051908101604052809291908181526020018280546121ec90614c12565b80156122395780601f1061220e57610100808354040283529160200191612239565b820191906000526020600020905b81548152906001019060200180831161221c57829003601f168201915b50505050509050600061224a6138c3565b9050600081510361225f5781925050506122a2565b60008251111561229457808260405160200161227c9291906150df565b604051602081830303815290604052925050506122a2565b61229d846138da565b925050505b919050565b3373ffffffffffffffffffffffffffffffffffffffff16600f600083815260200190815260200160002060000160009054906101000a900473ffffffffffffffffffffffffffffffffffffffff1673ffffffffffffffffffffffffffffffffffffffff16148061237857503373ffffffffffffffffffffffffffffffffffffffff16600f600083815260200190815260200160002060040160029054906101000a900473ffffffffffffffffffffffffffffffffffffffff1673ffffffffffffffffffffffffffffffffffffffff16145b6123b7576040517f08c379a00000000000000000000000000000000000000000000000000000000081526004016123ae90614bc3565b60405180910390fd5b60001515600f600083815260200190815260200160002060020160009054906101000a900460ff16151514612421576040517f08c379a00000000000000000000000000000000000000000000000000000000081526004016124189061514f565b60405180910390fd5b60011515600f600083815260200190815260200160002060040160009054906101000a900460ff16151514801561247f575060011515600f600083815260200190815260200160002060040160019054906101000a900460ff161515145b6124be576040517f08c379a00000000000000000000000000000000000000000000000000000000081526004016124b5906151bb565b60405180910390fd5b6001600f600083815260200190815260200160002060020160006101000a81548160ff0219169083151502179055503073ffffffffffffffffffffffffffffffffffffffff166342842e0e600f600084815260200190815260200160002060000160009054906101000a900473ffffffffffffffffffffffffffffffffffffffff16600f600085815260200190815260200160002060040160029054906101000a900473ffffffffffffffffffffffffffffffffffffffff16600f6000868152602001908152602001600020600101546040518463ffffffff1660e01b81526004016125ac9392919061506c565b600060405180830381600087803b1580156125c657600080fd5b505af11580156125da573d6000803e3d6000fd5b505050503073ffffffffffffffffffffffffffffffffffffffff166342842e0e600f600084815260200190815260200160002060040160029054906101000a900473ffffffffffffffffffffffffffffffffffffffff16600f600085815260200190815260200160002060000160009054906101000a900473ffffffffffffffffffffffffffffffffffffffff16600f6000868152602001908152602001600020600501546040518463ffffffff1660e01b815260040161269d9392919061506c565b600060405180830381600087803b1580156126b757600080fd5b505af11580156126cb573d6000803e3d6000fd5b50505050600d6000600f600084815260200190815260200160002060040160029054906101000a900473ffffffffffffffffffffffffffffffffffffffff1673ffffffffffffffffffffffffffffffffffffffff1673ffffffffffffffffffffffffffffffffffffffff168152602001908152602001600020600f600083815260200190815260200160002060010154908060018154018082558091505060019003906000526020600020016000909190919091505560005b600d6000600f600085815260200190815260200160002060040160029054906101000a900473ffffffffffffffffffffffffffffffffffffffff1673ffffffffffffffffffffffffffffffffffffffff1673ffffffffffffffffffffffffffffffffffffffff1681526020019081526020016000208054905081101561295b57600f600083815260200190815260200160002060050154600d6000600f600086815260200190815260200160002060040160029054906101000a900473ffffffffffffffffffffffffffffffffffffffff1673ffffffffffffffffffffffffffffffffffffffff1673ffffffffffffffffffffffffffffffffffffffff16815260200190815260200160002082815481106128a2576128a16151db565b5b90600052602060002001540361294857600d6000600f600085815260200190815260200160002060040160029054906101000a900473ffffffffffffffffffffffffffffffffffffffff1673ffffffffffffffffffffffffffffffffffffffff1673ffffffffffffffffffffffffffffffffffffffff1681526020019081526020016000208181548110612939576129386151db565b5b90600052602060002001600090555b808061295390614f26565b915050612784565b5060005b600d6000600f600085815260200190815260200160002060000160009054906101000a900473ffffffffffffffffffffffffffffffffffffffff1673ffffffffffffffffffffffffffffffffffffffff1673ffffffffffffffffffffffffffffffffffffffff16815260200190815260200160002080549050811015612b3657600f600083815260200190815260200160002060010154600d6000600f600086815260200190815260200160002060000160009054906101000a900473ffffffffffffffffffffffffffffffffffffffff1673ffffffffffffffffffffffffffffffffffffffff1673ffffffffffffffffffffffffffffffffffffffff1681526020019081526020016000208281548110612a7d57612a7c6151db565b5b906000526020600020015403612b2357600d6000600f600085815260200190815260200160002060000160009054906101000a900473ffffffffffffffffffffffffffffffffffffffff1673ffffffffffffffffffffffffffffffffffffffff1673ffffffffffffffffffffffffffffffffffffffff1681526020019081526020016000208181548110612b1457612b136151db565b5b90600052602060002001600090555b8080612b2e90614f26565b91505061295f565b50600d6000600f600084815260200190815260200160002060000160009054906101000a900473ffffffffffffffffffffffffffffffffffffffff1673ffffffffffffffffffffffffffffffffffffffff1673ffffffffffffffffffffffffffffffffffffffff168152602001908152602001600020600f600083815260200190815260200160002060050154908060018154018082558091505060019003906000526020600020016000909190919091505580600f600083815260200190815260200160002060040160029054906101000a900473ffffffffffffffffffffffffffffffffffffffff1673ffffffffffffffffffffffffffffffffffffffff16600f600084815260200190815260200160002060000160009054906101000a900473ffffffffffffffffffffffffffffffffffffffff1673ffffffffffffffffffffffffffffffffffffffff167f70472766abdeecc3d1cf2b2c6925b9dfb8f08aae449dffb2a2142b96d5a5ca6c60405160405180910390a450565b60095481565b600a60009054906101000a900460ff16612d08576040517f08c379a0000000000000000000000000000000000000000000000000000000008152600401612cff90615256565b60405180910390fd5b6001600c60003373ffffffffffffffffffffffffffffffffffffffff1673ffffffffffffffffffffffffffffffffffffffff1681526020019081526020016000205410612d8a576040517f08c379a0000000000000000000000000000000000000000000000000000000008152600401612d81906152e8565b60405180910390fd5b60085460095411612dd0576040517f08c379a0000000000000000000000000000000000000000000000000000000008152600401612dc790615354565b60405180910390fd5b600c60003373ffffffffffffffffffffffffffffffffffffffff1673ffffffffffffffffffffffffffffffffffffffff1681526020019081526020016000206000815480929190612e2090614f26565b919050555060086000815480929190612e3890614f26565b919050555060006008549050600d60003373ffffffffffffffffffffffffffffffffffffffff1673ffffffffffffffffffffffffffffffffffffffff168152602001908152602001600020819080600181540180825580915050600190039060005260206000200160009091909190915055612eb43382613942565b612ebe8183613960565b5050565b600e5481565b6000600560008473ffffffffffffffffffffffffffffffffffffffff1673ffffffffffffffffffffffffffffffffffffffff16815260200190815260200160002060008373ffffffffffffffffffffffffffffffffffffffff1673ffffffffffffffffffffffffffffffffffffffff16815260200190815260200160002060009054906101000a900460ff16905092915050565b6060600d60008373ffffffffffffffffffffffffffffffffffffffff1673ffffffffffffffffffffffffffffffffffffffff168152602001908152602001600020805480602002602001604051908101604052809291908181526020018280548015612fe757602002820191906000526020600020905b815481526020019060010190808311612fd3575b50505050509050919050565b612ffb6135b7565b600073ffffffffffffffffffffffffffffffffffffffff168173ffffffffffffffffffffffffffffffffffffffff160361306a576040517f08c379a0000000000000000000000000000000000000000000000000000000008152600401613061906153e6565b60405180910390fd5b61307381613635565b50565b60007f01ffc9a7000000000000000000000000000000000000000000000000000000007bffffffffffffffffffffffffffffffffffffffffffffffffffffffff1916827bffffffffffffffffffffffffffffffffffffffffffffffffffffffff1916149050919050565b6130e9816139cd565b613128576040517f08c379a000000000000000000000000000000000000000000000000000000000815260040161311f90614fba565b60405180910390fd5b50565b600033905090565b816004600083815260200190815260200160002060006101000a81548173ffffffffffffffffffffffffffffffffffffffff021916908373ffffffffffffffffffffffffffffffffffffffff160217905550808273ffffffffffffffffffffffffffffffffffffffff166131a683611a26565b73ffffffffffffffffffffffffffffffffffffffff167f8c5be1e5ebec7d5bd14f71427d1e84f3dd0314c0f7b2291e5b200ac8c7c3b92560405160405180910390a45050565b6000806131f883611a26565b90508073ffffffffffffffffffffffffffffffffffffffff168473ffffffffffffffffffffffffffffffffffffffff16148061323a57506132398185612ec8565b5b8061327857508373ffffffffffffffffffffffffffffffffffffffff1661326084610c74565b73ffffffffffffffffffffffffffffffffffffffff16145b91505092915050565b8273ffffffffffffffffffffffffffffffffffffffff166132a182611a26565b73ffffffffffffffffffffffffffffffffffffffff16146132f7576040517f08c379a00000000000000000000000000000000000000000000000000000000081526004016132ee90615478565b60405180910390fd5b600073ffffffffffffffffffffffffffffffffffffffff168273ffffffffffffffffffffffffffffffffffffffff1603613366576040517f08c379a000000000000000000000000000000000000000000000000000000000815260040161335d9061550a565b60405180910390fd5b6133738383836001613a0e565b8273ffffffffffffffffffffffffffffffffffffffff1661339382611a26565b73ffffffffffffffffffffffffffffffffffffffff16146133e9576040517f08c379a00000000000000000000000000000000000000000000000000000000081526004016133e090615478565b60405180910390fd5b6004600082815260200190815260200160002060006101000a81549073ffffffffffffffffffffffffffffffffffffffff02191690556001600360008573ffffffffffffffffffffffffffffffffffffffff1673ffffffffffffffffffffffffffffffffffffffff168152602001908152602001600020600082825403925050819055506001600360008473ffffffffffffffffffffffffffffffffffffffff1673ffffffffffffffffffffffffffffffffffffffff16815260200190815260200160002060008282540192505081905550816002600083815260200190815260200160002060006101000a81548173ffffffffffffffffffffffffffffffffffffffff021916908373ffffffffffffffffffffffffffffffffffffffff160217905550808273ffffffffffffffffffffffffffffffffffffffff168473ffffffffffffffffffffffffffffffffffffffff167fddf252ad1be2c89b69c2b068fc378daa952ba7f163c4a11628f55a4df523b3ef60405160405180910390a46135758383836001613b34565b505050565b60006002600083815260200190815260200160002060009054906101000a900473ffffffffffffffffffffffffffffffffffffffff169050919050565b6135bf61312b565b73ffffffffffffffffffffffffffffffffffffffff166135dd611bad565b73ffffffffffffffffffffffffffffffffffffffff1614613633576040517f08c379a000000000000000000000000000000000000000000000000000000000815260040161362a90615576565b60405180910390fd5b565b6000600760009054906101000a900473ffffffffffffffffffffffffffffffffffffffff16905081600760006101000a81548173ffffffffffffffffffffffffffffffffffffffff021916908373ffffffffffffffffffffffffffffffffffffffff1602179055508173ffffffffffffffffffffffffffffffffffffffff168173ffffffffffffffffffffffffffffffffffffffff167f8be0079c531659141344cd1fd0a4f28419497f9722a3daafe3b4186f6b6457e060405160405180910390a35050565b8173ffffffffffffffffffffffffffffffffffffffff168373ffffffffffffffffffffffffffffffffffffffff1603613769576040517f08c379a0000000000000000000000000000000000000000000000000000000008152600401613760906155e2565b60405180910390fd5b80600560008573ffffffffffffffffffffffffffffffffffffffff1673ffffffffffffffffffffffffffffffffffffffff16815260200190815260200160002060008473ffffffffffffffffffffffffffffffffffffffff1673ffffffffffffffffffffffffffffffffffffffff16815260200190815260200160002060006101000a81548160ff0219169083151502179055508173ffffffffffffffffffffffffffffffffffffffff168373ffffffffffffffffffffffffffffffffffffffff167f17307eab39ab6107e8899845ad3d59bd9653f200f220920489ca2b5937696c318360405161385a9190614294565b60405180910390a3505050565b613872848484613281565b61387e84848484613b3a565b6138bd576040517f08c379a00000000000000000000000000000000000000000000000000000000081526004016138b490615674565b60405180910390fd5b50505050565b606060405180602001604052806000815250905090565b60606138e5826130e0565b60006138ef6138c3565b9050600081511161390f576040518060200160405280600081525061393a565b8061391984613cc1565b60405160200161392a9291906150df565b6040516020818303038152906040525b915050919050565b61395c828260405180602001604052806000815250613d8f565b5050565b613969826139cd565b6139a8576040517f08c379a000000000000000000000000000000000000000000000000000000000815260040161399f90615706565b60405180910390fd5b806006600084815260200190815260200160002090816139c891906158d2565b505050565b60008073ffffffffffffffffffffffffffffffffffffffff166139ef8361357a565b73ffffffffffffffffffffffffffffffffffffffff1614159050919050565b6001811115613b2e57600073ffffffffffffffffffffffffffffffffffffffff168473ffffffffffffffffffffffffffffffffffffffff1614613aa25780600360008673ffffffffffffffffffffffffffffffffffffffff1673ffffffffffffffffffffffffffffffffffffffff1681526020019081526020016000206000828254613a9a91906159a4565b925050819055505b600073ffffffffffffffffffffffffffffffffffffffff168373ffffffffffffffffffffffffffffffffffffffff1614613b2d5780600360008573ffffffffffffffffffffffffffffffffffffffff1673ffffffffffffffffffffffffffffffffffffffff1681526020019081526020016000206000828254613b2591906159d8565b925050819055505b5b50505050565b50505050565b6000613b5b8473ffffffffffffffffffffffffffffffffffffffff16613dea565b15613cb4578373ffffffffffffffffffffffffffffffffffffffff1663150b7a02613b8461312b565b8786866040518563ffffffff1660e01b8152600401613ba69493929190615a61565b6020604051808303816000875af1925050508015613be257506040513d601f19601f82011682018060405250810190613bdf9190615ac2565b60015b613c64573d8060008114613c12576040519150601f19603f3d011682016040523d82523d6000602084013e613c17565b606091505b506000815103613c5c576040517f08c379a0000000000000000000000000000000000000000000000000000000008152600401613c5390615674565b60405180910390fd5b805181602001fd5b63150b7a0260e01b7bffffffffffffffffffffffffffffffffffffffffffffffffffffffff1916817bffffffffffffffffffffffffffffffffffffffffffffffffffffffff191614915050613cb9565b600190505b949350505050565b606060006001613cd084613e0d565b01905060008167ffffffffffffffff811115613cef57613cee6147a8565b5b6040519080825280601f01601f191660200182016040528015613d215781602001600182028036833780820191505090505b509050600082602001820190505b600115613d84578080600190039150507f3031323334353637383961626364656600000000000000000000000000000000600a86061a8153600a8581613d7857613d77615aef565b5b04945060008503613d2f575b819350505050919050565b613d998383613f60565b613da66000848484613b3a565b613de5576040517f08c379a0000000000000000000000000000000000000000000000000000000008152600401613ddc90615674565b60405180910390fd5b505050565b6000808273ffffffffffffffffffffffffffffffffffffffff163b119050919050565b600080600090507a184f03e93ff9f4daa797ed6e38ed64bf6a1f0100000000000000008310613e6b577a184f03e93ff9f4daa797ed6e38ed64bf6a1f0100000000000000008381613e6157613e60615aef565b5b0492506040810190505b6d04ee2d6d415b85acef81000000008310613ea8576d04ee2d6d415b85acef81000000008381613e9e57613e9d615aef565b5b0492506020810190505b662386f26fc100008310613ed757662386f26fc100008381613ecd57613ecc615aef565b5b0492506010810190505b6305f5e1008310613f00576305f5e1008381613ef657613ef5615aef565b5b0492506008810190505b6127108310613f25576127108381613f1b57613f1a615aef565b5b0492506004810190505b60648310613f485760648381613f3e57613f3d615aef565b5b0492506002810190505b600a8310613f57576001810190505b80915050919050565b600073ffffffffffffffffffffffffffffffffffffffff168273ffffffffffffffffffffffffffffffffffffffff1603613fcf576040517f08c379a0000000000000000000000000000000000000000000000000000000008152600401613fc690615b6a565b60405180910390fd5b613fd8816139cd565b15614018576040517f08c379a000000000000000000000000000000000000000000000000000000000815260040161400f90615bd6565b60405180910390fd5b614026600083836001613a0e565b61402f816139cd565b1561406f576040517f08c379a000000000000000000000000000000000000000000000000000000000815260040161406690615bd6565b60405180910390fd5b6001600360008473ffffffffffffffffffffffffffffffffffffffff1673ffffffffffffffffffffffffffffffffffffffff16815260200190815260200160002060008282540192505081905550816002600083815260200190815260200160002060006101000a81548173ffffffffffffffffffffffffffffffffffffffff021916908373ffffffffffffffffffffffffffffffffffffffff160217905550808273ffffffffffffffffffffffffffffffffffffffff16600073ffffffffffffffffffffffffffffffffffffffff167fddf252ad1be2c89b69c2b068fc378daa952ba7f163c4a11628f55a4df523b3ef60405160405180910390a4614179600083836001613b34565b5050565b6000604051905090565b600080fd5b600080fd5b6000819050919050565b6141a481614191565b81146141af57600080fd5b50565b6000813590506141c18161419b565b92915050565b6000602082840312156141dd576141dc614187565b5b60006141eb848285016141b2565b91505092915050565b60007fffffffff0000000000000000000000000000000000000000000000000000000082169050919050565b614229816141f4565b811461423457600080fd5b50565b60008135905061424681614220565b92915050565b60006020828403121561426257614261614187565b5b600061427084828501614237565b91505092915050565b60008115159050919050565b61428e81614279565b82525050565b60006020820190506142a96000830184614285565b92915050565b600081519050919050565b600082825260208201905092915050565b60005b838110156142e95780820151818401526020810190506142ce565b60008484015250505050565b6000601f19601f8301169050919050565b6000614311826142af565b61431b81856142ba565b935061432b8185602086016142cb565b614334816142f5565b840191505092915050565b600060208201905081810360008301526143598184614306565b905092915050565b600073ffffffffffffffffffffffffffffffffffffffff82169050919050565b600061438c82614361565b9050919050565b61439c81614381565b82525050565b60006020820190506143b76000830184614393565b92915050565b6143c681614381565b81146143d157600080fd5b50565b6000813590506143e3816143bd565b92915050565b60008060408385031215614400576143ff614187565b5b600061440e858286016143d4565b925050602061441f858286016141b2565b9150509250929050565b61443281614191565b82525050565b600060208201905061444d6000830184614429565b92915050565b600061010082019050614469600083018b614393565b614476602083018a614429565b6144836040830189614285565b6144906060830188614429565b61449d6080830187614285565b6144aa60a0830186614285565b6144b760c0830185614393565b6144c460e0830184614429565b9998505050505050505050565b6000806000606084860312156144ea576144e9614187565b5b60006144f8868287016143d4565b9350506020614509868287016143d4565b925050604061451a868287016141b2565b9150509250925092565b600081519050919050565b600082825260208201905092915050565b6000819050602082019050919050565b61455981614381565b82525050565b61456881614191565b82525050565b61457781614279565b82525050565b610100820160008201516145946000850182614550565b5060208201516145a7602085018261455f565b5060408201516145ba604085018261456e565b5060608201516145cd606085018261455f565b5060808201516145e0608085018261456e565b5060a08201516145f360a085018261456e565b5060c082015161460660c0850182614550565b5060e082015161461960e085018261455f565b50505050565b600061462b838361457d565b6101008301905092915050565b6000602082019050919050565b600061465082614524565b61465a818561452f565b935061466583614540565b8060005b8381101561469657815161467d888261461f565b975061468883614638565b925050600181019050614669565b5085935050505092915050565b600060208201905081810360008301526146bd8184614645565b905092915050565b6000602082840312156146db576146da614187565b5b60006146e9848285016143d4565b91505092915050565b6000806040838503121561470957614708614187565b5b6000614717858286016141b2565b9250506020614728858286016141b2565b9150509250929050565b61473b81614279565b811461474657600080fd5b50565b60008135905061475881614732565b92915050565b6000806040838503121561477557614774614187565b5b6000614783858286016143d4565b925050602061479485828601614749565b9150509250929050565b600080fd5b600080fd5b7f4e487b7100000000000000000000000000000000000000000000000000000000600052604160045260246000fd5b6147e0826142f5565b810181811067ffffffffffffffff821117156147ff576147fe6147a8565b5b80604052505050565b600061481261417d565b905061481e82826147d7565b919050565b600067ffffffffffffffff82111561483e5761483d6147a8565b5b614847826142f5565b9050602081019050919050565b82818337600083830152505050565b600061487661487184614823565b614808565b905082815260208101848484011115614892576148916147a3565b5b61489d848285614854565b509392505050565b600082601f8301126148ba576148b961479e565b5b81356148ca848260208601614863565b91505092915050565b600080600080608085870312156148ed576148ec614187565b5b60006148fb878288016143d4565b945050602061490c878288016143d4565b935050604061491d878288016141b2565b925050606085013567ffffffffffffffff81111561493e5761493d61418c565b5b61494a878288016148a5565b91505092959194509250565b600067ffffffffffffffff821115614971576149706147a8565b5b61497a826142f5565b9050602081019050919050565b600061499a61499584614956565b614808565b9050828152602081018484840111156149b6576149b56147a3565b5b6149c1848285614854565b509392505050565b600082601f8301126149de576149dd61479e565b5b81356149ee848260208601614987565b91505092915050565b600060208284031215614a0d57614a0c614187565b5b600082013567ffffffffffffffff811115614a2b57614a2a61418c565b5b614a37848285016149c9565b91505092915050565b60008060408385031215614a5757614a56614187565b5b6000614a65858286016143d4565b9250506020614a76858286016143d4565b9150509250929050565b600081519050919050565b600082825260208201905092915050565b6000819050602082019050919050565b6000614ab8838361455f565b60208301905092915050565b6000602082019050919050565b6000614adc82614a80565b614ae68185614a8b565b9350614af183614a9c565b8060005b83811015614b22578151614b098882614aac565b9750614b1483614ac4565b925050600181019050614af5565b5085935050505092915050565b60006020820190508181036000830152614b498184614ad1565b905092915050565b7f596f752068617665206e6f207065726d697373696f6e20696e2074686973207460008201527f7261646500000000000000000000000000000000000000000000000000000000602082015250565b6000614bad6024836142ba565b9150614bb882614b51565b604082019050919050565b60006020820190508181036000830152614bdc81614ba0565b9050919050565b7f4e487b7100000000000000000000000000000000000000000000000000000000600052602260045260246000fd5b60006002820490506001821680614c2a57607f821691505b602082108103614c3d57614c3c614be3565b5b50919050565b7f4552433732313a20617070726f76616c20746f2063757272656e74206f776e6560008201527f7200000000000000000000000000000000000000000000000000000000000000602082015250565b6000614c9f6021836142ba565b9150614caa82614c43565b604082019050919050565b60006020820190508181036000830152614cce81614c92565b9050919050565b7f4552433732313a20617070726f76652063616c6c6572206973206e6f7420746f60008201527f6b656e206f776e6572206f7220617070726f76656420666f7220616c6c000000602082015250565b6000614d31603d836142ba565b9150614d3c82614cd5565b604082019050919050565b60006020820190508181036000830152614d6081614d24565b9050919050565b7f547261646520656e64656420616c726561647900000000000000000000000000600082015250565b6000614d9d6013836142ba565b9150614da882614d67565b602082019050919050565b60006020820190508181036000830152614dcc81614d90565b9050919050565b7f4552433732313a2063616c6c6572206973206e6f7420746f6b656e206f776e6560008201527f72206f7220617070726f76656400000000000000000000000000000000000000602082015250565b6000614e2f602d836142ba565b9150614e3a82614dd3565b604082019050919050565b60006020820190508181036000830152614e5e81614e22565b9050919050565b7f596f75206d757374206f776e2074686973204e465420696e206f72646572207460008201527f6f20747261646520697400000000000000000000000000000000000000000000602082015250565b6000614ec1602a836142ba565b9150614ecc82614e65565b604082019050919050565b60006020820190508181036000830152614ef081614eb4565b9050919050565b7f4e487b7100000000000000000000000000000000000000000000000000000000600052601160045260246000fd5b6000614f3182614191565b91507fffffffffffffffffffffffffffffffffffffffffffffffffffffffffffffffff8203614f6357614f62614ef7565b5b600182019050919050565b7f4552433732313a20696e76616c696420746f6b656e2049440000000000000000600082015250565b6000614fa46018836142ba565b9150614faf82614f6e565b602082019050919050565b60006020820190508181036000830152614fd381614f97565b9050919050565b7f4552433732313a2061646472657373207a65726f206973206e6f74206120766160008201527f6c6964206f776e65720000000000000000000000000000000000000000000000602082015250565b60006150366029836142ba565b915061504182614fda565b604082019050919050565b6000602082019050818103600083015261506581615029565b9050919050565b60006060820190506150816000830186614393565b61508e6020830185614393565b61509b6040830184614429565b949350505050565b600081905092915050565b60006150b9826142af565b6150c381856150a3565b93506150d38185602086016142cb565b80840191505092915050565b60006150eb82856150ae565b91506150f782846150ae565b91508190509392505050565b7f547261646520616c726561647920636f6d706c65746564000000000000000000600082015250565b60006151396017836142ba565b915061514482615103565b602082019050919050565b600060208201905081810360008301526151688161512c565b9050919050565b7f5472616465206973206e6f7420617070726f7665640000000000000000000000600082015250565b60006151a56015836142ba565b91506151b08261516f565b602082019050919050565b600060208201905081810360008301526151d481615198565b9050919050565b7f4e487b7100000000000000000000000000000000000000000000000000000000600052603260045260246000fd5b7f4d696e74696e67206973206e6f7420656e61626c650000000000000000000000600082015250565b60006152406015836142ba565b915061524b8261520a565b602082019050919050565b6000602082019050818103600083015261526f81615233565b9050919050565b7f596f7520686176652072656163686564206d6178696d756d206d696e74206e7560008201527f6d62657200000000000000000000000000000000000000000000000000000000602082015250565b60006152d26024836142ba565b91506152dd82615276565b604082019050919050565b60006020820190508181036000830152615301816152c5565b9050919050565b7f536f6c64204f7574202120000000000000000000000000000000000000000000600082015250565b600061533e600b836142ba565b915061534982615308565b602082019050919050565b6000602082019050818103600083015261536d81615331565b9050919050565b7f4f776e61626c653a206e6577206f776e657220697320746865207a65726f206160008201527f6464726573730000000000000000000000000000000000000000000000000000602082015250565b60006153d06026836142ba565b91506153db82615374565b604082019050919050565b600060208201905081810360008301526153ff816153c3565b9050919050565b7f4552433732313a207472616e736665722066726f6d20696e636f72726563742060008201527f6f776e6572000000000000000000000000000000000000000000000000000000602082015250565b60006154626025836142ba565b915061546d82615406565b604082019050919050565b6000602082019050818103600083015261549181615455565b9050919050565b7f4552433732313a207472616e7366657220746f20746865207a65726f2061646460008201527f7265737300000000000000000000000000000000000000000000000000000000602082015250565b60006154f46024836142ba565b91506154ff82615498565b604082019050919050565b60006020820190508181036000830152615523816154e7565b9050919050565b7f4f776e61626c653a2063616c6c6572206973206e6f7420746865206f776e6572600082015250565b60006155606020836142ba565b915061556b8261552a565b602082019050919050565b6000602082019050818103600083015261558f81615553565b9050919050565b7f4552433732313a20617070726f766520746f2063616c6c657200000000000000600082015250565b60006155cc6019836142ba565b91506155d782615596565b602082019050919050565b600060208201905081810360008301526155fb816155bf565b9050919050565b7f4552433732313a207472616e7366657220746f206e6f6e20455243373231526560008201527f63656976657220696d706c656d656e7465720000000000000000000000000000602082015250565b600061565e6032836142ba565b915061566982615602565b604082019050919050565b6000602082019050818103600083015261568d81615651565b9050919050565b7f45524337323155524953746f726167653a2055524920736574206f66206e6f6e60008201527f6578697374656e7420746f6b656e000000000000000000000000000000000000602082015250565b60006156f0602e836142ba565b91506156fb82615694565b604082019050919050565b6000602082019050818103600083015261571f816156e3565b9050919050565b60008190508160005260206000209050919050565b60006020601f8301049050919050565b600082821b905092915050565b6000600883026157887fffffffffffffffffffffffffffffffffffffffffffffffffffffffffffffffff8261574b565b615792868361574b565b95508019841693508086168417925050509392505050565b6000819050919050565b60006157cf6157ca6157c584614191565b6157aa565b614191565b9050919050565b6000819050919050565b6157e9836157b4565b6157fd6157f5826157d6565b848454615758565b825550505050565b600090565b615812615805565b61581d8184846157e0565b505050565b5b818110156158415761583660008261580a565b600181019050615823565b5050565b601f8211156158865761585781615726565b6158608461573b565b8101602085101561586f578190505b61588361587b8561573b565b830182615822565b50505b505050565b600082821c905092915050565b60006158a96000198460080261588b565b1980831691505092915050565b60006158c28383615898565b9150826002028217905092915050565b6158db826142af565b67ffffffffffffffff8111156158f4576158f36147a8565b5b6158fe8254614c12565b615909828285615845565b600060209050601f83116001811461593c576000841561592a578287015190505b61593485826158b6565b86555061599c565b601f19841661594a86615726565b60005b828110156159725784890151825560018201915060208501945060208101905061594d565b8683101561598f578489015161598b601f891682615898565b8355505b6001600288020188555050505b505050505050565b60006159af82614191565b91506159ba83614191565b92508282039050818111156159d2576159d1614ef7565b5b92915050565b60006159e382614191565b91506159ee83614191565b9250828201905080821115615a0657615a05614ef7565b5b92915050565b600081519050919050565b600082825260208201905092915050565b6000615a3382615a0c565b615a3d8185615a17565b9350615a4d8185602086016142cb565b615a56816142f5565b840191505092915050565b6000608082019050615a766000830187614393565b615a836020830186614393565b615a906040830185614429565b8181036060830152615aa28184615a28565b905095945050505050565b600081519050615abc81614220565b92915050565b600060208284031215615ad857615ad7614187565b5b6000615ae684828501615aad565b91505092915050565b7f4e487b7100000000000000000000000000000000000000000000000000000000600052601260045260246000fd5b7f4552433732313a206d696e7420746f20746865207a65726f2061646472657373600082015250565b6000615b546020836142ba565b9150615b5f82615b1e565b602082019050919050565b60006020820190508181036000830152615b8381615b47565b9050919050565b7f4552433732313a20746f6b656e20616c7265616479206d696e74656400000000600082015250565b6000615bc0601c836142ba565b9150615bcb82615b8a565b602082019050919050565b60006020820190508181036000830152615bef81615bb3565b905091905056fea2646970667358221220a3b590a4cd6966ad0c9cb27fef258da8a03677bc6a6ab3f998f635e1f70318f264736f6c63430008110033",
  "linkReferences": {},
  "deployedLinkReferences": {}
}