{
  "_format": "hh-sol-artifact-1",
  "contractName": "PokemonCards",
  "sourceName": "contracts/PokemonCards.sol",
  "abi": [
    {
      "inputs": [],
      "stateMutability": "payable",
      "type": "constructor"
    },
    {
      "anonymous": false,
      "inputs": [
        {
          "indexed": true,
          "internalType": "address",
          "name": "owner",
          "type": "address"
        },
        {
          "indexed": true,
          "internalType": "address",
          "name": "approved",
          "type": "address"
        },
        {
          "indexed": true,
          "internalType": "uint256",
          "name": "tokenId",
          "type": "uint256"
        }
      ],
      "name": "Approval",
      "type": "event"
    },
    {
      "anonymous": false,
      "inputs": [
        {
          "indexed": true,
          "internalType": "address",
          "name": "owner",
          "type": "address"
        },
        {
          "indexed": true,
          "internalType": "address",
          "name": "operator",
          "type": "address"
        },
        {
          "indexed": false,
          "internalType": "bool",
          "name": "approved",
          "type": "bool"
        }
      ],
      "name": "ApprovalForAll",
      "type": "event"
    },
    {
      "anonymous": false,
      "inputs": [
        {
          "indexed": true,
          "internalType": "address",
          "name": "_signer",
          "type": "address"
        },
        {
          "indexed": true,
          "internalType": "uint256",
          "name": "_id",
          "type": "uint256"
        }
      ],
      "name": "Bid",
      "type": "event"
    },
    {
      "anonymous": false,
      "inputs": [
        {
          "indexed": true,
          "internalType": "address",
          "name": "_signer",
          "type": "address"
        },
        {
          "indexed": true,
          "internalType": "uint256",
          "name": "_id",
          "type": "uint256"
        }
      ],
      "name": "Cancel",
      "type": "event"
    },
    {
      "anonymous": false,
      "inputs": [
        {
          "indexed": true,
          "internalType": "address",
          "name": "_from",
          "type": "address"
        },
        {
          "indexed": true,
          "internalType": "address",
          "name": "_to",
          "type": "address"
        },
        {
          "indexed": true,
          "internalType": "uint256",
          "name": "_id",
          "type": "uint256"
        }
      ],
      "name": "FinalizeTrade",
      "type": "event"
    },
    {
      "anonymous": false,
      "inputs": [
        {
          "indexed": true,
          "internalType": "address",
          "name": "previousOwner",
          "type": "address"
        },
        {
          "indexed": true,
          "internalType": "address",
          "name": "newOwner",
          "type": "address"
        }
      ],
      "name": "OwnershipTransferred",
      "type": "event"
    },
    {
      "anonymous": false,
      "inputs": [
        {
          "indexed": true,
          "internalType": "address",
          "name": "_signer",
          "type": "address"
        },
        {
          "indexed": true,
          "internalType": "uint256",
          "name": "_id",
          "type": "uint256"
        }
      ],
      "name": "TradeCreated",
      "type": "event"
    },
    {
      "anonymous": false,
      "inputs": [
        {
          "indexed": true,
          "internalType": "address",
          "name": "from",
          "type": "address"
        },
        {
          "indexed": true,
          "internalType": "address",
          "name": "to",
          "type": "address"
        },
        {
          "indexed": true,
          "internalType": "uint256",
          "name": "tokenId",
          "type": "uint256"
        }
      ],
      "name": "Transfer",
      "type": "event"
    },
    {
      "inputs": [
        {
          "internalType": "address",
          "name": "to",
          "type": "address"
        },
        {
          "internalType": "uint256",
          "name": "tokenId",
          "type": "uint256"
        }
      ],
      "name": "approve",
      "outputs": [],
      "stateMutability": "nonpayable",
      "type": "function"
    },
    {
      "inputs": [
        {
          "internalType": "uint256",
          "name": "_tradeId",
          "type": "uint256"
        }
      ],
      "name": "approveTrade",
      "outputs": [],
      "stateMutability": "payable",
      "type": "function"
    },
    {
      "inputs": [
        {
          "internalType": "address",
          "name": "owner",
          "type": "address"
        }
      ],
      "name": "balanceOf",
      "outputs": [
        {
          "internalType": "uint256",
          "name": "",
          "type": "uint256"
        }
      ],
      "stateMutability": "view",
      "type": "function"
    },
    {
      "inputs": [
        {
          "internalType": "uint256",
          "name": "_tradeId",
          "type": "uint256"
        },
        {
          "internalType": "uint256",
          "name": "_delaerTokenId",
          "type": "uint256"
        }
      ],
      "name": "bidTrade",
      "outputs": [],
      "stateMutability": "payable",
      "type": "function"
    },
    {
      "inputs": [
        {
          "internalType": "uint256",
          "name": "_tradeId",
          "type": "uint256"
        }
      ],
      "name": "cancelTrade",
      "outputs": [],
      "stateMutability": "payable",
      "type": "function"
    },
    {
      "inputs": [
        {
          "internalType": "uint256",
          "name": "_tradeId",
          "type": "uint256"
        }
      ],
      "name": "finalizeTrade",
      "outputs": [],
      "stateMutability": "payable",
      "type": "function"
    },
    {
      "inputs": [
        {
          "internalType": "address",
          "name": "_addr",
          "type": "address"
        }
      ],
      "name": "getAll",
      "outputs": [
        {
          "internalType": "uint256[]",
          "name": "",
          "type": "uint256[]"
        }
      ],
      "stateMutability": "view",
      "type": "function"
    },
    {
      "inputs": [
        {
          "internalType": "uint256",
          "name": "tokenId",
          "type": "uint256"
        }
      ],
      "name": "getApproved",
      "outputs": [
        {
          "internalType": "address",
          "name": "",
          "type": "address"
        }
      ],
      "stateMutability": "view",
      "type": "function"
    },
    {
      "inputs": [
        {
          "internalType": "uint256",
          "name": "",
          "type": "uint256"
        }
      ],
      "name": "hasTokenId",
      "outputs": [
        {
          "internalType": "uint256",
          "name": "",
          "type": "uint256"
        }
      ],
      "stateMutability": "view",
      "type": "function"
    },
    {
      "inputs": [
        {
          "internalType": "address",
          "name": "owner",
          "type": "address"
        },
        {
          "internalType": "address",
          "name": "operator",
          "type": "address"
        }
      ],
      "name": "isApprovedForAll",
      "outputs": [
        {
          "internalType": "bool",
          "name": "",
          "type": "bool"
        }
      ],
      "stateMutability": "view",
      "type": "function"
    },
    {
      "inputs": [],
      "name": "isMintEnabled",
      "outputs": [
        {
          "internalType": "bool",
          "name": "",
          "type": "bool"
        }
      ],
      "stateMutability": "view",
      "type": "function"
    },
    {
      "inputs": [],
      "name": "maxSupply",
      "outputs": [
        {
          "internalType": "uint256",
          "name": "",
          "type": "uint256"
        }
      ],
      "stateMutability": "view",
      "type": "function"
    },
    {
      "inputs": [
        {
          "internalType": "string",
          "name": "tokenURI",
          "type": "string"
        }
      ],
      "name": "mint",
      "outputs": [],
      "stateMutability": "payable",
      "type": "function"
    },
    {
      "inputs": [
        {
          "internalType": "address",
          "name": "",
          "type": "address"
        }
      ],
      "name": "mintedWallets",
      "outputs": [
        {
          "internalType": "uint256",
          "name": "",
          "type": "uint256"
        }
      ],
      "stateMutability": "view",
      "type": "function"
    },
    {
      "inputs": [],
      "name": "name",
      "outputs": [
        {
          "internalType": "string",
          "name": "",
          "type": "string"
        }
      ],
      "stateMutability": "view",
      "type": "function"
    },
    {
      "inputs": [
        {
          "internalType": "address",
          "name": "",
          "type": "address"
        },
        {
          "internalType": "uint256",
          "name": "",
          "type": "uint256"
        }
      ],
      "name": "ownedNfts",
      "outputs": [
        {
          "internalType": "uint256",
          "name": "",
          "type": "uint256"
        }
      ],
      "stateMutability": "view",
      "type": "function"
    },
    {
      "inputs": [],
      "name": "owner",
      "outputs": [
        {
          "internalType": "address",
          "name": "",
          "type": "address"
        }
      ],
      "stateMutability": "view",
      "type": "function"
    },
    {
      "inputs": [
        {
          "internalType": "uint256",
          "name": "tokenId",
          "type": "uint256"
        }
      ],
      "name": "ownerOf",
      "outputs": [
        {
          "internalType": "address",
          "name": "",
          "type": "address"
        }
      ],
      "stateMutability": "view",
      "type": "function"
    },
    {
      "inputs": [
        {
          "internalType": "address",
          "name": "_from",
          "type": "address"
        },
        {
          "internalType": "uint256",
          "name": "_tokenId",
          "type": "uint256"
        }
      ],
      "name": "receiveToken",
      "outputs": [],
      "stateMutability": "payable",
      "type": "function"
    },
    {
      "inputs": [],
      "name": "renounceOwnership",
      "outputs": [],
      "stateMutability": "nonpayable",
      "type": "function"
    },
    {
      "inputs": [
        {
          "internalType": "address",
          "name": "from",
          "type": "address"
        },
        {
          "internalType": "address",
          "name": "to",
          "type": "address"
        },
        {
          "internalType": "uint256",
          "name": "tokenId",
          "type": "uint256"
        }
      ],
      "name": "safeTransferFrom",
      "outputs": [],
      "stateMutability": "nonpayable",
      "type": "function"
    },
    {
      "inputs": [
        {
          "internalType": "address",
          "name": "from",
          "type": "address"
        },
        {
          "internalType": "address",
          "name": "to",
          "type": "address"
        },
        {
          "internalType": "uint256",
          "name": "tokenId",
          "type": "uint256"
        },
        {
          "internalType": "bytes",
          "name": "data",
          "type": "bytes"
        }
      ],
      "name": "safeTransferFrom",
      "outputs": [],
      "stateMutability": "nonpayable",
      "type": "function"
    },
    {
      "inputs": [
        {
          "internalType": "address",
          "name": "operator",
          "type": "address"
        },
        {
          "internalType": "bool",
          "name": "approved",
          "type": "bool"
        }
      ],
      "name": "setApprovalForAll",
      "outputs": [],
      "stateMutability": "nonpayable",
      "type": "function"
    },
    {
      "inputs": [
        {
          "internalType": "uint256",
          "name": "_maxSupply",
          "type": "uint256"
        }
      ],
      "name": "setMaxSupply",
      "outputs": [],
      "stateMutability": "nonpayable",
      "type": "function"
    },
    {
      "inputs": [
        {
          "internalType": "uint256",
          "name": "_creatorTokenId",
          "type": "uint256"
        }
      ],
      "name": "setTrade",
      "outputs": [],
      "stateMutability": "payable",
      "type": "function"
    },
    {
      "inputs": [
        {
          "internalType": "bytes4",
          "name": "interfaceId",
          "type": "bytes4"
        }
      ],
      "name": "supportsInterface",
      "outputs": [
        {
          "internalType": "bool",
          "name": "",
          "type": "bool"
        }
      ],
      "stateMutability": "view",
      "type": "function"
    },
    {
      "inputs": [],
      "name": "symbol",
      "outputs": [
        {
          "internalType": "string",
          "name": "",
          "type": "string"
        }
      ],
      "stateMutability": "view",
      "type": "function"
    },
    {
      "inputs": [],
      "name": "toggleIsMintEnabled",
      "outputs": [],
      "stateMutability": "nonpayable",
      "type": "function"
    },
    {
      "inputs": [
        {
          "internalType": "uint256",
          "name": "tokenId",
          "type": "uint256"
        }
      ],
      "name": "tokenURI",
      "outputs": [
        {
          "internalType": "string",
          "name": "",
          "type": "string"
        }
      ],
      "stateMutability": "view",
      "type": "function"
    },
    {
      "inputs": [],
      "name": "totalSupply",
      "outputs": [
        {
          "internalType": "uint256",
          "name": "",
          "type": "uint256"
        }
      ],
      "stateMutability": "view",
      "type": "function"
    },
    {
      "inputs": [],
      "name": "totalTrades",
      "outputs": [
        {
          "internalType": "uint256",
          "name": "",
          "type": "uint256"
        }
      ],
      "stateMutability": "view",
      "type": "function"
    },
    {
      "inputs": [
        {
          "internalType": "uint256",
          "name": "",
          "type": "uint256"
        }
      ],
      "name": "trades",
      "outputs": [
        {
          "internalType": "address",
          "name": "creator",
          "type": "address"
        },
        {
          "internalType": "uint256",
          "name": "creatorTokenId",
          "type": "uint256"
        },
        {
          "internalType": "bool",
          "name": "isCompleted",
          "type": "bool"
        },
        {
          "internalType": "uint256",
          "name": "tradeId",
          "type": "uint256"
        },
        {
          "internalType": "bool",
          "name": "creatorConfirm",
          "type": "bool"
        },
        {
          "internalType": "bool",
          "name": "dealerConfirm",
          "type": "bool"
        },
        {
          "internalType": "address",
          "name": "dealer",
          "type": "address"
        },
        {
          "internalType": "uint256",
          "name": "dealerTokenId",
          "type": "uint256"
        }
      ],
      "stateMutability": "view",
      "type": "function"
    },
    {
      "inputs": [
        {
          "internalType": "address",
          "name": "from",
          "type": "address"
        },
        {
          "internalType": "address",
          "name": "to",
          "type": "address"
        },
        {
          "internalType": "uint256",
          "name": "tokenId",
          "type": "uint256"
        }
      ],
      "name": "transferFrom",
      "outputs": [],
      "stateMutability": "nonpayable",
      "type": "function"
    },
    {
      "inputs": [
        {
          "internalType": "address",
          "name": "newOwner",
          "type": "address"
        }
      ],
      "name": "transferOwnership",
      "outputs": [],
      "stateMutability": "nonpayable",
      "type": "function"
    },
    {
      "inputs": [
        {
          "internalType": "address",
          "name": "",
          "type": "address"
        },
        {
          "internalType": "uint256",
          "name": "",
          "type": "uint256"
        }
      ],
      "name": "userTrades",
      "outputs": [
        {
          "internalType": "address",
          "name": "creator",
          "type": "address"
        },
        {
          "internalType": "uint256",
          "name": "creatorTokenId",
          "type": "uint256"
        },
        {
          "internalType": "bool",
          "name": "isCompleted",
          "type": "bool"
        },
        {
          "internalType": "uint256",
          "name": "tradeId",
          "type": "uint256"
        },
        {
          "internalType": "bool",
          "name": "creatorConfirm",
          "type": "bool"
        },
        {
          "internalType": "bool",
          "name": "dealerConfirm",
          "type": "bool"
        },
        {
          "internalType": "address",
          "name": "dealer",
          "type": "address"
        },
        {
          "internalType": "uint256",
          "name": "dealerTokenId",
          "type": "uint256"
        }
      ],
      "stateMutability": "view",
      "type": "function"
    }
  ],
  "bytecode": "0x60806040526001600a60006101000a81548160ff0219169083151502179055506000600e556040518060400160405280600c81526020017f506f6b656d6f6e204361726400000000000000000000000000000000000000008152506040518060400160405280600481526020017f504f4b45000000000000000000000000000000000000000000000000000000008152508160009081620000a191906200042c565b508060019081620000b391906200042c565b505050620000d6620000ca620000e460201b60201c565b620000ec60201b60201c565b601460098190555062000513565b600033905090565b6000600760009054906101000a900473ffffffffffffffffffffffffffffffffffffffff16905081600760006101000a81548173ffffffffffffffffffffffffffffffffffffffff021916908373ffffffffffffffffffffffffffffffffffffffff1602179055508173ffffffffffffffffffffffffffffffffffffffff168173ffffffffffffffffffffffffffffffffffffffff167f8be0079c531659141344cd1fd0a4f28419497f9722a3daafe3b4186f6b6457e060405160405180910390a35050565b600081519050919050565b7f4e487b7100000000000000000000000000000000000000000000000000000000600052604160045260246000fd5b7f4e487b7100000000000000000000000000000000000000000000000000000000600052602260045260246000fd5b600060028204905060018216806200023457607f821691505b6020821081036200024a5762000249620001ec565b5b50919050565b60008190508160005260206000209050919050565b60006020601f8301049050919050565b600082821b905092915050565b600060088302620002b47fffffffffffffffffffffffffffffffffffffffffffffffffffffffffffffffff8262000275565b620002c0868362000275565b95508019841693508086168417925050509392505050565b6000819050919050565b6000819050919050565b60006200030d620003076200030184620002d8565b620002e2565b620002d8565b9050919050565b6000819050919050565b6200032983620002ec565b62000341620003388262000314565b84845462000282565b825550505050565b600090565b6200035862000349565b620003658184846200031e565b505050565b5b818110156200038d57620003816000826200034e565b6001810190506200036b565b5050565b601f821115620003dc57620003a68162000250565b620003b18462000265565b81016020851015620003c1578190505b620003d9620003d08562000265565b8301826200036a565b50505b505050565b600082821c905092915050565b60006200040160001984600802620003e1565b1980831691505092915050565b60006200041c8383620003ee565b9150826002028217905092915050565b6200043782620001b2565b67ffffffffffffffff811115620004535762000452620001bd565b5b6200045f82546200021b565b6200046c82828562000391565b600060209050601f831160018114620004a457600084156200048f578287015190505b6200049b85826200040e565b8655506200050b565b601f198416620004b48662000250565b60005b82811015620004de57848901518255600182019150602085019450602081019050620004b7565b86831015620004fe5784890151620004fa601f891682620003ee565b8355505b6001600288020188555050505b505050505050565b6157db80620005236000396000f3fe6080604052600436106102045760003560e01c8063715018a611610118578063c4073217116100a0578063d85d3d271161006f578063d85d3d2714610747578063e275c99714610763578063e985e9c51461078e578063eb077342146107cb578063f2fde38b1461080857610204565b8063c4073217146106ac578063c87b56dd146106c3578063d58c71a514610700578063d5abeb011461071c57610204565b8063992cb636116100e7578063992cb636146105bd578063a22cb465146105d9578063ada7c4ed14610602578063b1b1ffab1461063f578063b88d4fde1461068357610204565b8063715018a6146105345780638da5cb5b1461054b57806395d89b411461057657806397235a1e146105a157610204565b806323b872dd1161019b578063605df8001161016a578063605df800146104385780636352211e146104545780636b3a7671146104915780636f8b44b0146104ce57806370a08231146104f757610204565b806323b872dd1461037e578063346de50a146103a75780633d9a3479146103d257806342842e0e1461040f57610204565b8063095ea7b3116101d7578063095ea7b3146102ca57806309ec6cc7146102f357806318160ddd1461030f5780631e6c598e1461033a57610204565b806301663e591461020957806301ffc9a71461022557806306fdde0314610262578063081812fc1461028d575b600080fd5b610223600480360381019061021e9190613f08565b610831565b005b34801561023157600080fd5b5061024c60048036038101906102479190613f8d565b610a7b565b6040516102599190613fd5565b60405180910390f35b34801561026e57600080fd5b50610277610b5d565b6040516102849190614080565b60405180910390f35b34801561029957600080fd5b506102b460048036038101906102af9190613f08565b610bef565b6040516102c191906140e3565b60405180910390f35b3480156102d657600080fd5b506102f160048036038101906102ec919061412a565b610c35565b005b61030d60048036038101906103089190613f08565b610d4c565b005b34801561031b57600080fd5b50610324611183565b6040516103319190614179565b60405180910390f35b34801561034657600080fd5b50610361600480360381019061035c9190613f08565b611189565b604051610375989796959493929190614194565b60405180910390f35b34801561038a57600080fd5b506103a560048036038101906103a09190614212565b611238565b005b3480156103b357600080fd5b506103bc611298565b6040516103c99190613fd5565b60405180910390f35b3480156103de57600080fd5b506103f960048036038101906103f4919061412a565b6112ab565b6040516104069190614179565b60405180910390f35b34801561041b57600080fd5b5061043660048036038101906104319190614212565b6112dc565b005b610452600480360381019061044d9190613f08565b6112fc565b005b34801561046057600080fd5b5061047b60048036038101906104769190613f08565b611767565b60405161048891906140e3565b60405180910390f35b34801561049d57600080fd5b506104b860048036038101906104b39190613f08565b6117ed565b6040516104c59190614179565b60405180910390f35b3480156104da57600080fd5b506104f560048036038101906104f09190613f08565b611811565b005b34801561050357600080fd5b5061051e60048036038101906105199190614265565b611823565b60405161052b9190614179565b60405180910390f35b34801561054057600080fd5b506105496118da565b005b34801561055757600080fd5b506105606118ee565b60405161056d91906140e3565b60405180910390f35b34801561058257600080fd5b5061058b611918565b6040516105989190614080565b60405180910390f35b6105bb60048036038101906105b6919061412a565b6119aa565b005b6105d760048036038101906105d29190614292565b611a1d565b005b3480156105e557600080fd5b5061060060048036038101906105fb91906142fe565b611d46565b005b34801561060e57600080fd5b5061062960048036038101906106249190614265565b611d5c565b6040516106369190614179565b60405180910390f35b34801561064b57600080fd5b506106666004803603810190610661919061412a565b611d74565b60405161067a989796959493929190614194565b60405180910390f35b34801561068f57600080fd5b506106aa60048036038101906106a59190614473565b611e40565b005b3480156106b857600080fd5b506106c1611ea2565b005b3480156106cf57600080fd5b506106ea60048036038101906106e59190613f08565b611ed6565b6040516106f79190614080565b60405180910390f35b61071a60048036038101906107159190613f08565b611fe8565b005b34801561072857600080fd5b506107316129f4565b60405161073e9190614179565b60405180910390f35b610761600480360381019061075c9190614597565b6129fa565b005b34801561076f57600080fd5b50610778612c03565b6040516107859190614179565b60405180910390f35b34801561079a57600080fd5b506107b560048036038101906107b091906145e0565b612c09565b6040516107c29190613fd5565b60405180910390f35b3480156107d757600080fd5b506107f260048036038101906107ed9190614265565b612c9d565b6040516107ff91906146de565b60405180910390f35b34801561081457600080fd5b5061082f600480360381019061082a9190614265565b612d34565b005b600f600082815260200190815260200160002060000160009054906101000a900473ffffffffffffffffffffffffffffffffffffffff1673ffffffffffffffffffffffffffffffffffffffff163373ffffffffffffffffffffffffffffffffffffffff1614806109025750600f600082815260200190815260200160002060040160029054906101000a900473ffffffffffffffffffffffffffffffffffffffff1673ffffffffffffffffffffffffffffffffffffffff163373ffffffffffffffffffffffffffffffffffffffff16145b610941576040517f08c379a000000000000000000000000000000000000000000000000000000000815260040161093890614772565b60405180910390fd5b600f600082815260200190815260200160002060000160009054906101000a900473ffffffffffffffffffffffffffffffffffffffff1673ffffffffffffffffffffffffffffffffffffffff163373ffffffffffffffffffffffffffffffffffffffff16036109de576001600f600083815260200190815260200160002060040160006101000a81548160ff021916908315150217905550610a78565b600f600082815260200190815260200160002060040160029054906101000a900473ffffffffffffffffffffffffffffffffffffffff1673ffffffffffffffffffffffffffffffffffffffff163373ffffffffffffffffffffffffffffffffffffffff1603610a77576001600f600083815260200190815260200160002060040160016101000a81548160ff0219169083151502179055505b5b50565b60007f80ac58cd000000000000000000000000000000000000000000000000000000007bffffffffffffffffffffffffffffffffffffffffffffffffffffffff1916827bffffffffffffffffffffffffffffffffffffffffffffffffffffffff19161480610b4657507f5b5e139f000000000000000000000000000000000000000000000000000000007bffffffffffffffffffffffffffffffffffffffffffffffffffffffff1916827bffffffffffffffffffffffffffffffffffffffffffffffffffffffff1916145b80610b565750610b5582612db7565b5b9050919050565b606060008054610b6c906147c1565b80601f0160208091040260200160405190810160405280929190818152602001828054610b98906147c1565b8015610be55780601f10610bba57610100808354040283529160200191610be5565b820191906000526020600020905b815481529060010190602001808311610bc857829003601f168201915b5050505050905090565b6000610bfa82612e21565b6004600083815260200190815260200160002060009054906101000a900473ffffffffffffffffffffffffffffffffffffffff169050919050565b6000610c4082611767565b90508073ffffffffffffffffffffffffffffffffffffffff168373ffffffffffffffffffffffffffffffffffffffff1603610cb0576040517f08c379a0000000000000000000000000000000000000000000000000000000008152600401610ca790614864565b60405180910390fd5b8073ffffffffffffffffffffffffffffffffffffffff16610ccf612e6c565b73ffffffffffffffffffffffffffffffffffffffff161480610cfe5750610cfd81610cf8612e6c565b612c09565b5b610d3d576040517f08c379a0000000000000000000000000000000000000000000000000000000008152600401610d34906148f6565b60405180910390fd5b610d478383612e74565b505050565b600f600082815260200190815260200160002060000160009054906101000a900473ffffffffffffffffffffffffffffffffffffffff1673ffffffffffffffffffffffffffffffffffffffff163373ffffffffffffffffffffffffffffffffffffffff161480610e1d5750600f600082815260200190815260200160002060040160029054906101000a900473ffffffffffffffffffffffffffffffffffffffff1673ffffffffffffffffffffffffffffffffffffffff163373ffffffffffffffffffffffffffffffffffffffff16145b610e5c576040517f08c379a0000000000000000000000000000000000000000000000000000000008152600401610e5390614772565b60405180910390fd5b600f600082815260200190815260200160002060000160009054906101000a900473ffffffffffffffffffffffffffffffffffffffff1673ffffffffffffffffffffffffffffffffffffffff163373ffffffffffffffffffffffffffffffffffffffff16036110305760001515600f600083815260200190815260200160002060020160009054906101000a900460ff16151514610f2f576040517f08c379a0000000000000000000000000000000000000000000000000000000008152600401610f2690614962565b60405180910390fd5b600f6000828152602001908152602001600020600080820160006101000a81549073ffffffffffffffffffffffffffffffffffffffff021916905560018201600090556002820160006101000a81549060ff021916905560038201600090556004820160006101000a81549060ff02191690556004820160016101000a81549060ff02191690556004820160026101000a81549073ffffffffffffffffffffffffffffffffffffffff021916905560058201600090555050803373ffffffffffffffffffffffffffffffffffffffff167f27f83af92b39768b17fe0c8d6922452702717efb8626d97e7a754e0b27d4f6d260405160405180910390a3611180565b600f600082815260200190815260200160002060040160029054906101000a900473ffffffffffffffffffffffffffffffffffffffff1673ffffffffffffffffffffffffffffffffffffffff163373ffffffffffffffffffffffffffffffffffffffff160361117f576000600f600083815260200190815260200160002060040160016101000a81548160ff0219169083151502179055506000600f600083815260200190815260200160002060040160026101000a81548173ffffffffffffffffffffffffffffffffffffffff021916908373ffffffffffffffffffffffffffffffffffffffff1602179055506000600f600083815260200190815260200160002060050181905550803373ffffffffffffffffffffffffffffffffffffffff167f27f83af92b39768b17fe0c8d6922452702717efb8626d97e7a754e0b27d4f6d260405160405180910390a35b5b50565b60085481565b600f6020528060005260406000206000915090508060000160009054906101000a900473ffffffffffffffffffffffffffffffffffffffff16908060010154908060020160009054906101000a900460ff16908060030154908060040160009054906101000a900460ff16908060040160019054906101000a900460ff16908060040160029054906101000a900473ffffffffffffffffffffffffffffffffffffffff16908060050154905088565b611249611243612e6c565b82612f2d565b611288576040517f08c379a000000000000000000000000000000000000000000000000000000000815260040161127f906149f4565b60405180910390fd5b611293838383612fc2565b505050565b600a60009054906101000a900460ff1681565b600d60205281600052604060002081815481106112c757600080fd5b90600052602060002001600091509150505481565b6112f783838360405180602001604052806000815250611e40565b505050565b3373ffffffffffffffffffffffffffffffffffffffff1661131c82611767565b73ffffffffffffffffffffffffffffffffffffffff1614611372576040517f08c379a000000000000000000000000000000000000000000000000000000000815260040161136990614a86565b60405180910390fd5b61137d306001611d46565b600e600081548092919061139090614ad5565b91905055506040518061010001604052803373ffffffffffffffffffffffffffffffffffffffff168152602001828152602001600015158152602001600e548152602001600015158152602001600015158152602001600073ffffffffffffffffffffffffffffffffffffffff1681526020016000815250600f6000600e54815260200190815260200160002060008201518160000160006101000a81548173ffffffffffffffffffffffffffffffffffffffff021916908373ffffffffffffffffffffffffffffffffffffffff1602179055506020820151816001015560408201518160020160006101000a81548160ff0219169083151502179055506060820151816003015560808201518160040160006101000a81548160ff02191690831515021790555060a08201518160040160016101000a81548160ff02191690831515021790555060c08201518160040160026101000a81548173ffffffffffffffffffffffffffffffffffffffff021916908373ffffffffffffffffffffffffffffffffffffffff16021790555060e08201518160050155905050601060003373ffffffffffffffffffffffffffffffffffffffff1673ffffffffffffffffffffffffffffffffffffffff168152602001908152602001600020600f6000600e54815260200190815260200160002090806001815401808255809150506001900390600052602060002090600602016000909190919091506000820160009054906101000a900473ffffffffffffffffffffffffffffffffffffffff168160000160006101000a81548173ffffffffffffffffffffffffffffffffffffffff021916908373ffffffffffffffffffffffffffffffffffffffff160217905550600182015481600101556002820160009054906101000a900460ff168160020160006101000a81548160ff021916908315150217905550600382015481600301556004820160009054906101000a900460ff168160040160006101000a81548160ff0219169083151502179055506004820160019054906101000a900460ff168160040160016101000a81548160ff0219169083151502179055506004820160029054906101000a900473ffffffffffffffffffffffffffffffffffffffff168160040160026101000a81548173ffffffffffffffffffffffffffffffffffffffff021916908373ffffffffffffffffffffffffffffffffffffffff160217905550600582015481600501555050600e543373ffffffffffffffffffffffffffffffffffffffff167fbfce24751fc3f5d349c888b748dbe331a3af19ad7ee1ea95c5ac1b844ba9e51a60405160405180910390a350565b600080611773836132bb565b9050600073ffffffffffffffffffffffffffffffffffffffff168173ffffffffffffffffffffffffffffffffffffffff16036117e4576040517f08c379a00000000000000000000000000000000000000000000000000000000081526004016117db90614b69565b60405180910390fd5b80915050919050565b600b81815481106117fd57600080fd5b906000526020600020016000915090505481565b6118196132f8565b8060098190555050565b60008073ffffffffffffffffffffffffffffffffffffffff168273ffffffffffffffffffffffffffffffffffffffff1603611893576040517f08c379a000000000000000000000000000000000000000000000000000000000815260040161188a90614bfb565b60405180910390fd5b600360008373ffffffffffffffffffffffffffffffffffffffff1673ffffffffffffffffffffffffffffffffffffffff168152602001908152602001600020549050919050565b6118e26132f8565b6118ec6000613376565b565b6000600760009054906101000a900473ffffffffffffffffffffffffffffffffffffffff16905090565b606060018054611927906147c1565b80601f0160208091040260200160405190810160405280929190818152602001828054611953906147c1565b80156119a05780601f10611975576101008083540402835291602001916119a0565b820191906000526020600020905b81548152906001019060200180831161198357829003601f168201915b5050505050905090565b8173ffffffffffffffffffffffffffffffffffffffff166342842e0e8330846040518463ffffffff1660e01b81526004016119e793929190614c1b565b600060405180830381600087803b158015611a0157600080fd5b505af1158015611a15573d6000803e3d6000fd5b505050505050565b3373ffffffffffffffffffffffffffffffffffffffff16611a3d82611767565b73ffffffffffffffffffffffffffffffffffffffff1614611a93576040517f08c379a0000000000000000000000000000000000000000000000000000000008152600401611a8a90614a86565b60405180910390fd5b611a9e306001611d46565b33600f600084815260200190815260200160002060040160026101000a81548173ffffffffffffffffffffffffffffffffffffffff021916908373ffffffffffffffffffffffffffffffffffffffff16021790555080600f600084815260200190815260200160002060050181905550601060003373ffffffffffffffffffffffffffffffffffffffff1673ffffffffffffffffffffffffffffffffffffffff168152602001908152602001600020600f600084815260200190815260200160002090806001815401808255809150506001900390600052602060002090600602016000909190919091506000820160009054906101000a900473ffffffffffffffffffffffffffffffffffffffff168160000160006101000a81548173ffffffffffffffffffffffffffffffffffffffff021916908373ffffffffffffffffffffffffffffffffffffffff160217905550600182015481600101556002820160009054906101000a900460ff168160020160006101000a81548160ff021916908315150217905550600382015481600301556004820160009054906101000a900460ff168160040160006101000a81548160ff0219169083151502179055506004820160019054906101000a900460ff168160040160016101000a81548160ff0219169083151502179055506004820160029054906101000a900473ffffffffffffffffffffffffffffffffffffffff168160040160026101000a81548173ffffffffffffffffffffffffffffffffffffffff021916908373ffffffffffffffffffffffffffffffffffffffff160217905550600582015481600501555050813373ffffffffffffffffffffffffffffffffffffffff167fe684a55f31b79eca403df938249029212a5925ec6be8012e099b45bc1019e5d260405160405180910390a35050565b611d58611d51612e6c565b838361343c565b5050565b600c6020528060005260406000206000915090505481565b60106020528160005260406000208181548110611d9057600080fd5b9060005260206000209060060201600091509150508060000160009054906101000a900473ffffffffffffffffffffffffffffffffffffffff16908060010154908060020160009054906101000a900460ff16908060030154908060040160009054906101000a900460ff16908060040160019054906101000a900460ff16908060040160029054906101000a900473ffffffffffffffffffffffffffffffffffffffff16908060050154905088565b611e51611e4b612e6c565b83612f2d565b611e90576040517f08c379a0000000000000000000000000000000000000000000000000000000008152600401611e87906149f4565b60405180910390fd5b611e9c848484846135a8565b50505050565b611eaa6132f8565b600a60009054906101000a900460ff1615600a60006101000a81548160ff021916908315150217905550565b6060611ee182612e21565b6000600660008481526020019081526020016000208054611f01906147c1565b80601f0160208091040260200160405190810160405280929190818152602001828054611f2d906147c1565b8015611f7a5780601f10611f4f57610100808354040283529160200191611f7a565b820191906000526020600020905b815481529060010190602001808311611f5d57829003601f168201915b505050505090506000611f8b613604565b90506000815103611fa0578192505050611fe3565b600082511115611fd5578082604051602001611fbd929190614c8e565b60405160208183030381529060405292505050611fe3565b611fde8461361b565b925050505b919050565b3373ffffffffffffffffffffffffffffffffffffffff16600f600083815260200190815260200160002060000160009054906101000a900473ffffffffffffffffffffffffffffffffffffffff1673ffffffffffffffffffffffffffffffffffffffff1614806120b957503373ffffffffffffffffffffffffffffffffffffffff16600f600083815260200190815260200160002060040160029054906101000a900473ffffffffffffffffffffffffffffffffffffffff1673ffffffffffffffffffffffffffffffffffffffff16145b6120f8576040517f08c379a00000000000000000000000000000000000000000000000000000000081526004016120ef90614772565b60405180910390fd5b60001515600f600083815260200190815260200160002060020160009054906101000a900460ff16151514612162576040517f08c379a000000000000000000000000000000000000000000000000000000000815260040161215990614cfe565b60405180910390fd5b60011515600f600083815260200190815260200160002060040160009054906101000a900460ff1615151480156121c0575060011515600f600083815260200190815260200160002060040160019054906101000a900460ff161515145b6121ff576040517f08c379a00000000000000000000000000000000000000000000000000000000081526004016121f690614d6a565b60405180910390fd5b6001600f600083815260200190815260200160002060020160006101000a81548160ff0219169083151502179055503073ffffffffffffffffffffffffffffffffffffffff166342842e0e600f600084815260200190815260200160002060000160009054906101000a900473ffffffffffffffffffffffffffffffffffffffff16600f600085815260200190815260200160002060040160029054906101000a900473ffffffffffffffffffffffffffffffffffffffff16600f6000868152602001908152602001600020600101546040518463ffffffff1660e01b81526004016122ed93929190614c1b565b600060405180830381600087803b15801561230757600080fd5b505af115801561231b573d6000803e3d6000fd5b505050503073ffffffffffffffffffffffffffffffffffffffff166342842e0e600f600084815260200190815260200160002060040160029054906101000a900473ffffffffffffffffffffffffffffffffffffffff16600f600085815260200190815260200160002060000160009054906101000a900473ffffffffffffffffffffffffffffffffffffffff16600f6000868152602001908152602001600020600501546040518463ffffffff1660e01b81526004016123de93929190614c1b565b600060405180830381600087803b1580156123f857600080fd5b505af115801561240c573d6000803e3d6000fd5b50505050600d6000600f600084815260200190815260200160002060040160029054906101000a900473ffffffffffffffffffffffffffffffffffffffff1673ffffffffffffffffffffffffffffffffffffffff1673ffffffffffffffffffffffffffffffffffffffff168152602001908152602001600020600f600083815260200190815260200160002060010154908060018154018082558091505060019003906000526020600020016000909190919091505560005b600d6000600f600085815260200190815260200160002060040160029054906101000a900473ffffffffffffffffffffffffffffffffffffffff1673ffffffffffffffffffffffffffffffffffffffff1673ffffffffffffffffffffffffffffffffffffffff1681526020019081526020016000208054905081101561269c57600f600083815260200190815260200160002060050154600d6000600f600086815260200190815260200160002060040160029054906101000a900473ffffffffffffffffffffffffffffffffffffffff1673ffffffffffffffffffffffffffffffffffffffff1673ffffffffffffffffffffffffffffffffffffffff16815260200190815260200160002082815481106125e3576125e2614d8a565b5b90600052602060002001540361268957600d6000600f600085815260200190815260200160002060040160029054906101000a900473ffffffffffffffffffffffffffffffffffffffff1673ffffffffffffffffffffffffffffffffffffffff1673ffffffffffffffffffffffffffffffffffffffff168152602001908152602001600020818154811061267a57612679614d8a565b5b90600052602060002001600090555b808061269490614ad5565b9150506124c5565b5060005b600d6000600f600085815260200190815260200160002060000160009054906101000a900473ffffffffffffffffffffffffffffffffffffffff1673ffffffffffffffffffffffffffffffffffffffff1673ffffffffffffffffffffffffffffffffffffffff1681526020019081526020016000208054905081101561287757600f600083815260200190815260200160002060010154600d6000600f600086815260200190815260200160002060000160009054906101000a900473ffffffffffffffffffffffffffffffffffffffff1673ffffffffffffffffffffffffffffffffffffffff1673ffffffffffffffffffffffffffffffffffffffff16815260200190815260200160002082815481106127be576127bd614d8a565b5b90600052602060002001540361286457600d6000600f600085815260200190815260200160002060000160009054906101000a900473ffffffffffffffffffffffffffffffffffffffff1673ffffffffffffffffffffffffffffffffffffffff1673ffffffffffffffffffffffffffffffffffffffff168152602001908152602001600020818154811061285557612854614d8a565b5b90600052602060002001600090555b808061286f90614ad5565b9150506126a0565b50600d6000600f600084815260200190815260200160002060000160009054906101000a900473ffffffffffffffffffffffffffffffffffffffff1673ffffffffffffffffffffffffffffffffffffffff1673ffffffffffffffffffffffffffffffffffffffff168152602001908152602001600020600f600083815260200190815260200160002060050154908060018154018082558091505060019003906000526020600020016000909190919091505580600f600083815260200190815260200160002060040160029054906101000a900473ffffffffffffffffffffffffffffffffffffffff1673ffffffffffffffffffffffffffffffffffffffff16600f600084815260200190815260200160002060000160009054906101000a900473ffffffffffffffffffffffffffffffffffffffff1673ffffffffffffffffffffffffffffffffffffffff167f70472766abdeecc3d1cf2b2c6925b9dfb8f08aae449dffb2a2142b96d5a5ca6c60405160405180910390a450565b60095481565b600a60009054906101000a900460ff16612a49576040517f08c379a0000000000000000000000000000000000000000000000000000000008152600401612a4090614e05565b60405180910390fd5b6001600c60003373ffffffffffffffffffffffffffffffffffffffff1673ffffffffffffffffffffffffffffffffffffffff1681526020019081526020016000205410612acb576040517f08c379a0000000000000000000000000000000000000000000000000000000008152600401612ac290614e97565b60405180910390fd5b60085460095411612b11576040517f08c379a0000000000000000000000000000000000000000000000000000000008152600401612b0890614f03565b60405180910390fd5b600c60003373ffffffffffffffffffffffffffffffffffffffff1673ffffffffffffffffffffffffffffffffffffffff1681526020019081526020016000206000815480929190612b6190614ad5565b919050555060086000815480929190612b7990614ad5565b919050555060006008549050600d60003373ffffffffffffffffffffffffffffffffffffffff1673ffffffffffffffffffffffffffffffffffffffff168152602001908152602001600020819080600181540180825580915050600190039060005260206000200160009091909190915055612bf53382613683565b612bff81836136a1565b5050565b600e5481565b6000600560008473ffffffffffffffffffffffffffffffffffffffff1673ffffffffffffffffffffffffffffffffffffffff16815260200190815260200160002060008373ffffffffffffffffffffffffffffffffffffffff1673ffffffffffffffffffffffffffffffffffffffff16815260200190815260200160002060009054906101000a900460ff16905092915050565b6060600d60008373ffffffffffffffffffffffffffffffffffffffff1673ffffffffffffffffffffffffffffffffffffffff168152602001908152602001600020805480602002602001604051908101604052809291908181526020018280548015612d2857602002820191906000526020600020905b815481526020019060010190808311612d14575b50505050509050919050565b612d3c6132f8565b600073ffffffffffffffffffffffffffffffffffffffff168173ffffffffffffffffffffffffffffffffffffffff1603612dab576040517f08c379a0000000000000000000000000000000000000000000000000000000008152600401612da290614f95565b60405180910390fd5b612db481613376565b50565b60007f01ffc9a7000000000000000000000000000000000000000000000000000000007bffffffffffffffffffffffffffffffffffffffffffffffffffffffff1916827bffffffffffffffffffffffffffffffffffffffffffffffffffffffff1916149050919050565b612e2a8161370e565b612e69576040517f08c379a0000000000000000000000000000000000000000000000000000000008152600401612e6090614b69565b60405180910390fd5b50565b600033905090565b816004600083815260200190815260200160002060006101000a81548173ffffffffffffffffffffffffffffffffffffffff021916908373ffffffffffffffffffffffffffffffffffffffff160217905550808273ffffffffffffffffffffffffffffffffffffffff16612ee783611767565b73ffffffffffffffffffffffffffffffffffffffff167f8c5be1e5ebec7d5bd14f71427d1e84f3dd0314c0f7b2291e5b200ac8c7c3b92560405160405180910390a45050565b600080612f3983611767565b90508073ffffffffffffffffffffffffffffffffffffffff168473ffffffffffffffffffffffffffffffffffffffff161480612f7b5750612f7a8185612c09565b5b80612fb957508373ffffffffffffffffffffffffffffffffffffffff16612fa184610bef565b73ffffffffffffffffffffffffffffffffffffffff16145b91505092915050565b8273ffffffffffffffffffffffffffffffffffffffff16612fe282611767565b73ffffffffffffffffffffffffffffffffffffffff1614613038576040517f08c379a000000000000000000000000000000000000000000000000000000000815260040161302f90615027565b60405180910390fd5b600073ffffffffffffffffffffffffffffffffffffffff168273ffffffffffffffffffffffffffffffffffffffff16036130a7576040517f08c379a000000000000000000000000000000000000000000000000000000000815260040161309e906150b9565b60405180910390fd5b6130b4838383600161374f565b8273ffffffffffffffffffffffffffffffffffffffff166130d482611767565b73ffffffffffffffffffffffffffffffffffffffff161461312a576040517f08c379a000000000000000000000000000000000000000000000000000000000815260040161312190615027565b60405180910390fd5b6004600082815260200190815260200160002060006101000a81549073ffffffffffffffffffffffffffffffffffffffff02191690556001600360008573ffffffffffffffffffffffffffffffffffffffff1673ffffffffffffffffffffffffffffffffffffffff168152602001908152602001600020600082825403925050819055506001600360008473ffffffffffffffffffffffffffffffffffffffff1673ffffffffffffffffffffffffffffffffffffffff16815260200190815260200160002060008282540192505081905550816002600083815260200190815260200160002060006101000a81548173ffffffffffffffffffffffffffffffffffffffff021916908373ffffffffffffffffffffffffffffffffffffffff160217905550808273ffffffffffffffffffffffffffffffffffffffff168473ffffffffffffffffffffffffffffffffffffffff167fddf252ad1be2c89b69c2b068fc378daa952ba7f163c4a11628f55a4df523b3ef60405160405180910390a46132b68383836001613875565b505050565b60006002600083815260200190815260200160002060009054906101000a900473ffffffffffffffffffffffffffffffffffffffff169050919050565b613300612e6c565b73ffffffffffffffffffffffffffffffffffffffff1661331e6118ee565b73ffffffffffffffffffffffffffffffffffffffff1614613374576040517f08c379a000000000000000000000000000000000000000000000000000000000815260040161336b90615125565b60405180910390fd5b565b6000600760009054906101000a900473ffffffffffffffffffffffffffffffffffffffff16905081600760006101000a81548173ffffffffffffffffffffffffffffffffffffffff021916908373ffffffffffffffffffffffffffffffffffffffff1602179055508173ffffffffffffffffffffffffffffffffffffffff168173ffffffffffffffffffffffffffffffffffffffff167f8be0079c531659141344cd1fd0a4f28419497f9722a3daafe3b4186f6b6457e060405160405180910390a35050565b8173ffffffffffffffffffffffffffffffffffffffff168373ffffffffffffffffffffffffffffffffffffffff16036134aa576040517f08c379a00000000000000000000000000000000000000000000000000000000081526004016134a190615191565b60405180910390fd5b80600560008573ffffffffffffffffffffffffffffffffffffffff1673ffffffffffffffffffffffffffffffffffffffff16815260200190815260200160002060008473ffffffffffffffffffffffffffffffffffffffff1673ffffffffffffffffffffffffffffffffffffffff16815260200190815260200160002060006101000a81548160ff0219169083151502179055508173ffffffffffffffffffffffffffffffffffffffff168373ffffffffffffffffffffffffffffffffffffffff167f17307eab39ab6107e8899845ad3d59bd9653f200f220920489ca2b5937696c318360405161359b9190613fd5565b60405180910390a3505050565b6135b3848484612fc2565b6135bf8484848461387b565b6135fe576040517f08c379a00000000000000000000000000000000000000000000000000000000081526004016135f590615223565b60405180910390fd5b50505050565b606060405180602001604052806000815250905090565b606061362682612e21565b6000613630613604565b90506000815111613650576040518060200160405280600081525061367b565b8061365a84613a02565b60405160200161366b929190614c8e565b6040516020818303038152906040525b915050919050565b61369d828260405180602001604052806000815250613ad0565b5050565b6136aa8261370e565b6136e9576040517f08c379a00000000000000000000000000000000000000000000000000000000081526004016136e0906152b5565b60405180910390fd5b806006600084815260200190815260200160002090816137099190615481565b505050565b60008073ffffffffffffffffffffffffffffffffffffffff16613730836132bb565b73ffffffffffffffffffffffffffffffffffffffff1614159050919050565b600181111561386f57600073ffffffffffffffffffffffffffffffffffffffff168473ffffffffffffffffffffffffffffffffffffffff16146137e35780600360008673ffffffffffffffffffffffffffffffffffffffff1673ffffffffffffffffffffffffffffffffffffffff16815260200190815260200160002060008282546137db9190615553565b925050819055505b600073ffffffffffffffffffffffffffffffffffffffff168373ffffffffffffffffffffffffffffffffffffffff161461386e5780600360008573ffffffffffffffffffffffffffffffffffffffff1673ffffffffffffffffffffffffffffffffffffffff16815260200190815260200160002060008282546138669190615587565b925050819055505b5b50505050565b50505050565b600061389c8473ffffffffffffffffffffffffffffffffffffffff16613b2b565b156139f5578373ffffffffffffffffffffffffffffffffffffffff1663150b7a026138c5612e6c565b8786866040518563ffffffff1660e01b81526004016138e79493929190615610565b6020604051808303816000875af192505050801561392357506040513d601f19601f820116820180604052508101906139209190615671565b60015b6139a5573d8060008114613953576040519150601f19603f3d011682016040523d82523d6000602084013e613958565b606091505b50600081510361399d576040517f08c379a000000000000000000000000000000000000000000000000000000000815260040161399490615223565b60405180910390fd5b805181602001fd5b63150b7a0260e01b7bffffffffffffffffffffffffffffffffffffffffffffffffffffffff1916817bffffffffffffffffffffffffffffffffffffffffffffffffffffffff1916149150506139fa565b600190505b949350505050565b606060006001613a1184613b4e565b01905060008167ffffffffffffffff811115613a3057613a2f614348565b5b6040519080825280601f01601f191660200182016040528015613a625781602001600182028036833780820191505090505b509050600082602001820190505b600115613ac5578080600190039150507f3031323334353637383961626364656600000000000000000000000000000000600a86061a8153600a8581613ab957613ab861569e565b5b04945060008503613a70575b819350505050919050565b613ada8383613ca1565b613ae7600084848461387b565b613b26576040517f08c379a0000000000000000000000000000000000000000000000000000000008152600401613b1d90615223565b60405180910390fd5b505050565b6000808273ffffffffffffffffffffffffffffffffffffffff163b119050919050565b600080600090507a184f03e93ff9f4daa797ed6e38ed64bf6a1f0100000000000000008310613bac577a184f03e93ff9f4daa797ed6e38ed64bf6a1f0100000000000000008381613ba257613ba161569e565b5b0492506040810190505b6d04ee2d6d415b85acef81000000008310613be9576d04ee2d6d415b85acef81000000008381613bdf57613bde61569e565b5b0492506020810190505b662386f26fc100008310613c1857662386f26fc100008381613c0e57613c0d61569e565b5b0492506010810190505b6305f5e1008310613c41576305f5e1008381613c3757613c3661569e565b5b0492506008810190505b6127108310613c66576127108381613c5c57613c5b61569e565b5b0492506004810190505b60648310613c895760648381613c7f57613c7e61569e565b5b0492506002810190505b600a8310613c98576001810190505b80915050919050565b600073ffffffffffffffffffffffffffffffffffffffff168273ffffffffffffffffffffffffffffffffffffffff1603613d10576040517f08c379a0000000000000000000000000000000000000000000000000000000008152600401613d0790615719565b60405180910390fd5b613d198161370e565b15613d59576040517f08c379a0000000000000000000000000000000000000000000000000000000008152600401613d5090615785565b60405180910390fd5b613d6760008383600161374f565b613d708161370e565b15613db0576040517f08c379a0000000000000000000000000000000000000000000000000000000008152600401613da790615785565b60405180910390fd5b6001600360008473ffffffffffffffffffffffffffffffffffffffff1673ffffffffffffffffffffffffffffffffffffffff16815260200190815260200160002060008282540192505081905550816002600083815260200190815260200160002060006101000a81548173ffffffffffffffffffffffffffffffffffffffff021916908373ffffffffffffffffffffffffffffffffffffffff160217905550808273ffffffffffffffffffffffffffffffffffffffff16600073ffffffffffffffffffffffffffffffffffffffff167fddf252ad1be2c89b69c2b068fc378daa952ba7f163c4a11628f55a4df523b3ef60405160405180910390a4613eba600083836001613875565b5050565b6000604051905090565b600080fd5b600080fd5b6000819050919050565b613ee581613ed2565b8114613ef057600080fd5b50565b600081359050613f0281613edc565b92915050565b600060208284031215613f1e57613f1d613ec8565b5b6000613f2c84828501613ef3565b91505092915050565b60007fffffffff0000000000000000000000000000000000000000000000000000000082169050919050565b613f6a81613f35565b8114613f7557600080fd5b50565b600081359050613f8781613f61565b92915050565b600060208284031215613fa357613fa2613ec8565b5b6000613fb184828501613f78565b91505092915050565b60008115159050919050565b613fcf81613fba565b82525050565b6000602082019050613fea6000830184613fc6565b92915050565b600081519050919050565b600082825260208201905092915050565b60005b8381101561402a57808201518184015260208101905061400f565b60008484015250505050565b6000601f19601f8301169050919050565b600061405282613ff0565b61405c8185613ffb565b935061406c81856020860161400c565b61407581614036565b840191505092915050565b6000602082019050818103600083015261409a8184614047565b905092915050565b600073ffffffffffffffffffffffffffffffffffffffff82169050919050565b60006140cd826140a2565b9050919050565b6140dd816140c2565b82525050565b60006020820190506140f860008301846140d4565b92915050565b614107816140c2565b811461411257600080fd5b50565b600081359050614124816140fe565b92915050565b6000806040838503121561414157614140613ec8565b5b600061414f85828601614115565b925050602061416085828601613ef3565b9150509250929050565b61417381613ed2565b82525050565b600060208201905061418e600083018461416a565b92915050565b6000610100820190506141aa600083018b6140d4565b6141b7602083018a61416a565b6141c46040830189613fc6565b6141d1606083018861416a565b6141de6080830187613fc6565b6141eb60a0830186613fc6565b6141f860c08301856140d4565b61420560e083018461416a565b9998505050505050505050565b60008060006060848603121561422b5761422a613ec8565b5b600061423986828701614115565b935050602061424a86828701614115565b925050604061425b86828701613ef3565b9150509250925092565b60006020828403121561427b5761427a613ec8565b5b600061428984828501614115565b91505092915050565b600080604083850312156142a9576142a8613ec8565b5b60006142b785828601613ef3565b92505060206142c885828601613ef3565b9150509250929050565b6142db81613fba565b81146142e657600080fd5b50565b6000813590506142f8816142d2565b92915050565b6000806040838503121561431557614314613ec8565b5b600061432385828601614115565b9250506020614334858286016142e9565b9150509250929050565b600080fd5b600080fd5b7f4e487b7100000000000000000000000000000000000000000000000000000000600052604160045260246000fd5b61438082614036565b810181811067ffffffffffffffff8211171561439f5761439e614348565b5b80604052505050565b60006143b2613ebe565b90506143be8282614377565b919050565b600067ffffffffffffffff8211156143de576143dd614348565b5b6143e782614036565b9050602081019050919050565b82818337600083830152505050565b6000614416614411846143c3565b6143a8565b90508281526020810184848401111561443257614431614343565b5b61443d8482856143f4565b509392505050565b600082601f83011261445a5761445961433e565b5b813561446a848260208601614403565b91505092915050565b6000806000806080858703121561448d5761448c613ec8565b5b600061449b87828801614115565b94505060206144ac87828801614115565b93505060406144bd87828801613ef3565b925050606085013567ffffffffffffffff8111156144de576144dd613ecd565b5b6144ea87828801614445565b91505092959194509250565b600067ffffffffffffffff82111561451157614510614348565b5b61451a82614036565b9050602081019050919050565b600061453a614535846144f6565b6143a8565b90508281526020810184848401111561455657614555614343565b5b6145618482856143f4565b509392505050565b600082601f83011261457e5761457d61433e565b5b813561458e848260208601614527565b91505092915050565b6000602082840312156145ad576145ac613ec8565b5b600082013567ffffffffffffffff8111156145cb576145ca613ecd565b5b6145d784828501614569565b91505092915050565b600080604083850312156145f7576145f6613ec8565b5b600061460585828601614115565b925050602061461685828601614115565b9150509250929050565b600081519050919050565b600082825260208201905092915050565b6000819050602082019050919050565b61465581613ed2565b82525050565b6000614667838361464c565b60208301905092915050565b6000602082019050919050565b600061468b82614620565b614695818561462b565b93506146a08361463c565b8060005b838110156146d15781516146b8888261465b565b97506146c383614673565b9250506001810190506146a4565b5085935050505092915050565b600060208201905081810360008301526146f88184614680565b905092915050565b7f596f752068617665206e6f207065726d697373696f6e20696e2074686973207460008201527f7261646500000000000000000000000000000000000000000000000000000000602082015250565b600061475c602483613ffb565b915061476782614700565b604082019050919050565b6000602082019050818103600083015261478b8161474f565b9050919050565b7f4e487b7100000000000000000000000000000000000000000000000000000000600052602260045260246000fd5b600060028204905060018216806147d957607f821691505b6020821081036147ec576147eb614792565b5b50919050565b7f4552433732313a20617070726f76616c20746f2063757272656e74206f776e6560008201527f7200000000000000000000000000000000000000000000000000000000000000602082015250565b600061484e602183613ffb565b9150614859826147f2565b604082019050919050565b6000602082019050818103600083015261487d81614841565b9050919050565b7f4552433732313a20617070726f76652063616c6c6572206973206e6f7420746f60008201527f6b656e206f776e6572206f7220617070726f76656420666f7220616c6c000000602082015250565b60006148e0603d83613ffb565b91506148eb82614884565b604082019050919050565b6000602082019050818103600083015261490f816148d3565b9050919050565b7f547261646520656e64656420616c726561647900000000000000000000000000600082015250565b600061494c601383613ffb565b915061495782614916565b602082019050919050565b6000602082019050818103600083015261497b8161493f565b9050919050565b7f4552433732313a2063616c6c6572206973206e6f7420746f6b656e206f776e6560008201527f72206f7220617070726f76656400000000000000000000000000000000000000602082015250565b60006149de602d83613ffb565b91506149e982614982565b604082019050919050565b60006020820190508181036000830152614a0d816149d1565b9050919050565b7f596f75206d757374206f776e2074686973204e465420696e206f72646572207460008201527f6f20747261646520697400000000000000000000000000000000000000000000602082015250565b6000614a70602a83613ffb565b9150614a7b82614a14565b604082019050919050565b60006020820190508181036000830152614a9f81614a63565b9050919050565b7f4e487b7100000000000000000000000000000000000000000000000000000000600052601160045260246000fd5b6000614ae082613ed2565b91507fffffffffffffffffffffffffffffffffffffffffffffffffffffffffffffffff8203614b1257614b11614aa6565b5b600182019050919050565b7f4552433732313a20696e76616c696420746f6b656e2049440000000000000000600082015250565b6000614b53601883613ffb565b9150614b5e82614b1d565b602082019050919050565b60006020820190508181036000830152614b8281614b46565b9050919050565b7f4552433732313a2061646472657373207a65726f206973206e6f74206120766160008201527f6c6964206f776e65720000000000000000000000000000000000000000000000602082015250565b6000614be5602983613ffb565b9150614bf082614b89565b604082019050919050565b60006020820190508181036000830152614c1481614bd8565b9050919050565b6000606082019050614c3060008301866140d4565b614c3d60208301856140d4565b614c4a604083018461416a565b949350505050565b600081905092915050565b6000614c6882613ff0565b614c728185614c52565b9350614c8281856020860161400c565b80840191505092915050565b6000614c9a8285614c5d565b9150614ca68284614c5d565b91508190509392505050565b7f547261646520616c726561647920636f6d706c65746564000000000000000000600082015250565b6000614ce8601783613ffb565b9150614cf382614cb2565b602082019050919050565b60006020820190508181036000830152614d1781614cdb565b9050919050565b7f5472616465206973206e6f7420617070726f7665640000000000000000000000600082015250565b6000614d54601583613ffb565b9150614d5f82614d1e565b602082019050919050565b60006020820190508181036000830152614d8381614d47565b9050919050565b7f4e487b7100000000000000000000000000000000000000000000000000000000600052603260045260246000fd5b7f4d696e74696e67206973206e6f7420656e61626c650000000000000000000000600082015250565b6000614def601583613ffb565b9150614dfa82614db9565b602082019050919050565b60006020820190508181036000830152614e1e81614de2565b9050919050565b7f596f7520686176652072656163686564206d6178696d756d206d696e74206e7560008201527f6d62657200000000000000000000000000000000000000000000000000000000602082015250565b6000614e81602483613ffb565b9150614e8c82614e25565b604082019050919050565b60006020820190508181036000830152614eb081614e74565b9050919050565b7f536f6c64204f7574202120000000000000000000000000000000000000000000600082015250565b6000614eed600b83613ffb565b9150614ef882614eb7565b602082019050919050565b60006020820190508181036000830152614f1c81614ee0565b9050919050565b7f4f776e61626c653a206e6577206f776e657220697320746865207a65726f206160008201527f6464726573730000000000000000000000000000000000000000000000000000602082015250565b6000614f7f602683613ffb565b9150614f8a82614f23565b604082019050919050565b60006020820190508181036000830152614fae81614f72565b9050919050565b7f4552433732313a207472616e736665722066726f6d20696e636f72726563742060008201527f6f776e6572000000000000000000000000000000000000000000000000000000602082015250565b6000615011602583613ffb565b915061501c82614fb5565b604082019050919050565b6000602082019050818103600083015261504081615004565b9050919050565b7f4552433732313a207472616e7366657220746f20746865207a65726f2061646460008201527f7265737300000000000000000000000000000000000000000000000000000000602082015250565b60006150a3602483613ffb565b91506150ae82615047565b604082019050919050565b600060208201905081810360008301526150d281615096565b9050919050565b7f4f776e61626c653a2063616c6c6572206973206e6f7420746865206f776e6572600082015250565b600061510f602083613ffb565b915061511a826150d9565b602082019050919050565b6000602082019050818103600083015261513e81615102565b9050919050565b7f4552433732313a20617070726f766520746f2063616c6c657200000000000000600082015250565b600061517b601983613ffb565b915061518682615145565b602082019050919050565b600060208201905081810360008301526151aa8161516e565b9050919050565b7f4552433732313a207472616e7366657220746f206e6f6e20455243373231526560008201527f63656976657220696d706c656d656e7465720000000000000000000000000000602082015250565b600061520d603283613ffb565b9150615218826151b1565b604082019050919050565b6000602082019050818103600083015261523c81615200565b9050919050565b7f45524337323155524953746f726167653a2055524920736574206f66206e6f6e60008201527f6578697374656e7420746f6b656e000000000000000000000000000000000000602082015250565b600061529f602e83613ffb565b91506152aa82615243565b604082019050919050565b600060208201905081810360008301526152ce81615292565b9050919050565b60008190508160005260206000209050919050565b60006020601f8301049050919050565b600082821b905092915050565b6000600883026153377fffffffffffffffffffffffffffffffffffffffffffffffffffffffffffffffff826152fa565b61534186836152fa565b95508019841693508086168417925050509392505050565b6000819050919050565b600061537e61537961537484613ed2565b615359565b613ed2565b9050919050565b6000819050919050565b61539883615363565b6153ac6153a482615385565b848454615307565b825550505050565b600090565b6153c16153b4565b6153cc81848461538f565b505050565b5b818110156153f0576153e56000826153b9565b6001810190506153d2565b5050565b601f82111561543557615406816152d5565b61540f846152ea565b8101602085101561541e578190505b61543261542a856152ea565b8301826153d1565b50505b505050565b600082821c905092915050565b60006154586000198460080261543a565b1980831691505092915050565b60006154718383615447565b9150826002028217905092915050565b61548a82613ff0565b67ffffffffffffffff8111156154a3576154a2614348565b5b6154ad82546147c1565b6154b88282856153f4565b600060209050601f8311600181146154eb57600084156154d9578287015190505b6154e38582615465565b86555061554b565b601f1984166154f9866152d5565b60005b82811015615521578489015182556001820191506020850194506020810190506154fc565b8683101561553e578489015161553a601f891682615447565b8355505b6001600288020188555050505b505050505050565b600061555e82613ed2565b915061556983613ed2565b925082820390508181111561558157615580614aa6565b5b92915050565b600061559282613ed2565b915061559d83613ed2565b92508282019050808211156155b5576155b4614aa6565b5b92915050565b600081519050919050565b600082825260208201905092915050565b60006155e2826155bb565b6155ec81856155c6565b93506155fc81856020860161400c565b61560581614036565b840191505092915050565b600060808201905061562560008301876140d4565b61563260208301866140d4565b61563f604083018561416a565b818103606083015261565181846155d7565b905095945050505050565b60008151905061566b81613f61565b92915050565b60006020828403121561568757615686613ec8565b5b60006156958482850161565c565b91505092915050565b7f4e487b7100000000000000000000000000000000000000000000000000000000600052601260045260246000fd5b7f4552433732313a206d696e7420746f20746865207a65726f2061646472657373600082015250565b6000615703602083613ffb565b915061570e826156cd565b602082019050919050565b60006020820190508181036000830152615732816156f6565b9050919050565b7f4552433732313a20746f6b656e20616c7265616479206d696e74656400000000600082015250565b600061576f601c83613ffb565b915061577a82615739565b602082019050919050565b6000602082019050818103600083015261579e81615762565b905091905056fea2646970667358221220467ce2a86dc1cc59a1921668f2af03e41df19a3001082f498b87625b651f0dfa64736f6c63430008110033",
  "linkReferences": {},
  "deployedLinkReferences": {}
}